{
  "_format": "hh-sol-artifact-1",
  "contractName": "DevPipes",
  "sourceName": "contracts/DevPipes.sol",
  "abi": [
    {
      "inputs": [
        {
          "internalType": "uint256",
          "name": "projectId",
          "type": "uint256"
        },
        {
          "internalType": "address",
          "name": "user",
          "type": "address"
        },
        {
          "internalType": "uint256",
          "name": "amount",
          "type": "uint256"
        }
      ],
      "name": "addRoyalty",
      "outputs": [],
      "stateMutability": "nonpayable",
      "type": "function"
    },
    {
      "inputs": [],
      "name": "applicationIndex",
      "outputs": [
        {
          "internalType": "uint256",
          "name": "",
          "type": "uint256"
        }
      ],
      "stateMutability": "view",
      "type": "function"
    },
    {
      "inputs": [
        {
          "internalType": "address",
          "name": "applicant",
          "type": "address"
        },
        {
          "internalType": "uint256",
          "name": "projectId",
          "type": "uint256"
        },
        {
          "internalType": "string",
          "name": "details1",
          "type": "string"
        },
        {
          "internalType": "string",
          "name": "details2",
          "type": "string"
        }
      ],
      "name": "applyForProject",
      "outputs": [],
      "stateMutability": "nonpayable",
      "type": "function"
    },
    {
      "inputs": [],
      "name": "balance",
      "outputs": [
        {
          "internalType": "uint256",
          "name": "",
          "type": "uint256"
        }
      ],
      "stateMutability": "view",
      "type": "function"
    },
    {
      "inputs": [
        {
          "internalType": "string",
          "name": "projectName",
          "type": "string"
        },
        {
          "internalType": "string",
          "name": "description",
          "type": "string"
        },
        {
          "internalType": "string",
          "name": "uri",
          "type": "string"
        },
        {
          "internalType": "string",
          "name": "tags",
          "type": "string"
        },
        {
          "internalType": "uint256",
          "name": "dueDate",
          "type": "uint256"
        },
        {
          "internalType": "uint256",
          "name": "budget",
          "type": "uint256"
        }
      ],
      "name": "createProject",
      "outputs": [],
      "stateMutability": "nonpayable",
      "type": "function"
    },
    {
      "inputs": [
        {
          "internalType": "uint256",
          "name": "parentId",
          "type": "uint256"
        },
        {
          "internalType": "string",
          "name": "projectName",
          "type": "string"
        },
        {
          "internalType": "string",
          "name": "description",
          "type": "string"
        },
        {
          "internalType": "string",
          "name": "uri",
          "type": "string"
        },
        {
          "internalType": "string",
          "name": "tags",
          "type": "string"
        },
        {
          "internalType": "uint256",
          "name": "dueDate",
          "type": "uint256"
        },
        {
          "internalType": "uint256",
          "name": "budget",
          "type": "uint256"
        }
      ],
      "name": "createSubProject",
      "outputs": [],
      "stateMutability": "nonpayable",
      "type": "function"
    },
    {
      "inputs": [],
      "name": "getAllProjects",
      "outputs": [
        {
          "components": [
            {
              "internalType": "uint256",
              "name": "id",
              "type": "uint256"
            },
            {
              "internalType": "uint256",
              "name": "parentId",
              "type": "uint256"
            },
            {
              "internalType": "uint256",
              "name": "rootId",
              "type": "uint256"
            },
            {
              "internalType": "address",
              "name": "creator",
              "type": "address"
            },
            {
              "internalType": "string",
              "name": "name",
              "type": "string"
            },
            {
              "internalType": "string",
              "name": "description",
              "type": "string"
            },
            {
              "internalType": "string",
              "name": "uri",
              "type": "string"
            },
            {
              "internalType": "string",
              "name": "tags",
              "type": "string"
            },
            {
              "internalType": "uint256",
              "name": "dueDate",
              "type": "uint256"
            },
            {
              "internalType": "uint256",
              "name": "budget",
              "type": "uint256"
            },
            {
              "internalType": "uint8",
              "name": "status",
              "type": "uint8"
            }
          ],
          "internalType": "struct DevPipes.Project[]",
          "name": "",
          "type": "tuple[]"
        }
      ],
      "stateMutability": "view",
      "type": "function"
    },
    {
      "inputs": [
        {
          "internalType": "address",
          "name": "user",
          "type": "address"
        }
      ],
      "name": "getProjectsForUser",
      "outputs": [
        {
          "components": [
            {
              "internalType": "uint256",
              "name": "id",
              "type": "uint256"
            },
            {
              "internalType": "uint256",
              "name": "parentId",
              "type": "uint256"
            },
            {
              "internalType": "uint256",
              "name": "rootId",
              "type": "uint256"
            },
            {
              "internalType": "address",
              "name": "creator",
              "type": "address"
            },
            {
              "internalType": "string",
              "name": "name",
              "type": "string"
            },
            {
              "internalType": "string",
              "name": "description",
              "type": "string"
            },
            {
              "internalType": "string",
              "name": "uri",
              "type": "string"
            },
            {
              "internalType": "string",
              "name": "tags",
              "type": "string"
            },
            {
              "internalType": "uint256",
              "name": "dueDate",
              "type": "uint256"
            },
            {
              "internalType": "uint256",
              "name": "budget",
              "type": "uint256"
            },
            {
              "internalType": "uint8",
              "name": "status",
              "type": "uint8"
            }
          ],
          "internalType": "struct DevPipes.Project[]",
          "name": "",
          "type": "tuple[]"
        }
      ],
      "stateMutability": "view",
      "type": "function"
    },
    {
      "inputs": [
        {
          "internalType": "uint256",
          "name": "projectId",
          "type": "uint256"
        }
      ],
      "name": "getRoyaltiesTotal",
      "outputs": [
        {
          "internalType": "uint256",
          "name": "",
          "type": "uint256"
        }
      ],
      "stateMutability": "view",
      "type": "function"
    },
    {
      "inputs": [],
      "name": "init",
      "outputs": [],
      "stateMutability": "nonpayable",
      "type": "function"
    },
    {
      "inputs": [],
      "name": "name",
      "outputs": [
        {
          "internalType": "string",
          "name": "",
          "type": "string"
        }
      ],
      "stateMutability": "view",
      "type": "function"
    },
    {
      "inputs": [],
      "name": "owner",
      "outputs": [
        {
          "internalType": "address",
          "name": "",
          "type": "address"
        }
      ],
      "stateMutability": "view",
      "type": "function"
    },
    {
      "inputs": [],
      "name": "paymentsIndex",
      "outputs": [
        {
          "internalType": "uint256",
          "name": "",
          "type": "uint256"
        }
      ],
      "stateMutability": "view",
      "type": "function"
    },
    {
      "inputs": [],
      "name": "projectIndex",
      "outputs": [
        {
          "internalType": "uint256",
          "name": "",
          "type": "uint256"
        }
      ],
      "stateMutability": "view",
      "type": "function"
    },
    {
      "inputs": [
        {
          "internalType": "uint256",
          "name": "projectId",
          "type": "uint256"
        }
      ],
      "name": "publish",
      "outputs": [],
      "stateMutability": "nonpayable",
      "type": "function"
    },
    {
      "inputs": [],
      "name": "symbol",
      "outputs": [
        {
          "internalType": "string",
          "name": "",
          "type": "string"
        }
      ],
      "stateMutability": "view",
      "type": "function"
    },
    {
      "inputs": [
        {
          "internalType": "uint256",
          "name": "applicationId",
          "type": "uint256"
        }
      ],
      "name": "withdrawApplication",
      "outputs": [],
      "stateMutability": "nonpayable",
      "type": "function"
    }
  ],
  "bytecode": "0x608060405234801561001057600080fd5b506137f3806100206000396000f3fe608060405234801561001057600080fd5b506004361061010b5760003560e01c806380d03829116100a257806395d89b411161007157806395d89b4114610294578063b69ef8a8146102b2578063cc4ef119146102d0578063e1c7392a146102ec578063f1d5314a146102f65761010b565b806380d038291461021e57806386d144761461023c5780638da5cb5b1461025a57806391b87f23146102785761010b565b806320fcd0dd116100de57806320fcd0dd14610184578063223153fa146101b457806363184726146101e457806371274734146102025761010b565b8063012865a41461011057806306fdde031461012c57806315ecdbf31461014a57806316dcb29014610168575b600080fd5b61012a60048036038101906101259190612bfa565b610312565b005b610134610548565b60405161014191906131db565b60405180910390f35b6101526105d6565b60405161015f91906132bd565b60405180910390f35b610182600480360381019061017d9190612b67565b6105dc565b005b61019e60048036038101906101999190612ce3565b610b85565b6040516101ab91906132bd565b60405180910390f35b6101ce60048036038101906101c99190612b3e565b610d1b565b6040516101db91906131b9565b60405180910390f35b6101ec611217565b6040516101f991906132bd565b60405180910390f35b61021c60048036038101906102179190612d84565b61121d565b005b6102266117f4565b60405161023391906131b9565b60405180910390f35b610244611b41565b60405161025191906132bd565b60405180910390f35b610262611b47565b60405161026f919061319e565b60405180910390f35b610292600480360381019061028d9190612d35565b611b6d565b005b61029c612154565b6040516102a991906131db565b60405180910390f35b6102ba6121e2565b6040516102c791906132bd565b60405180910390f35b6102ea60048036038101906102e59190612ce3565b6121e8565b005b6102f46122f1565b005b610310600480360381019061030b9190612ce3565b61282d565b005b6000604051806101600160405280600354815260200160008152602001600081526020013373ffffffffffffffffffffffffffffffffffffffff168152602001888152602001878152602001868152602001858152602001848152602001838152602001600060ff16815250905060078190806001815401808255809150506001900390600052602060002090600b020160009091909190915060008201518160000155602082015181600101556040820151816002015560608201518160030160006101000a81548173ffffffffffffffffffffffffffffffffffffffff021916908373ffffffffffffffffffffffffffffffffffffffff160217905550608082015181600401908051906020019061042d929190612981565b5060a082015181600501908051906020019061044a929190612981565b5060c0820151816006019080519060200190610467929190612981565b5060e0820151816007019080519060200190610484929190612981565b506101008201518160080155610120820151816009015561014082015181600a0160006101000a81548160ff021916908360ff1602179055505050600b60003373ffffffffffffffffffffffffffffffffffffffff1673ffffffffffffffffffffffffffffffffffffffff16815260200190815260200160002060035490806001815401808255809150506001900390600052602060002001600090919091909150556003600081548092919061053a90613566565b919050555050505050505050565b6000805461055590613503565b80601f016020809104026020016040519081016040528092919081815260200182805461058190613503565b80156105ce5780601f106105a3576101008083540402835291602001916105ce565b820191906000526020600020905b8154815290600101906020018083116105b157829003601f168201915b505050505081565b60055481565b6105e58361292d565b600060078481548110610621577f4e487b7100000000000000000000000000000000000000000000000000000000600052603260045260246000fd5b90600052602060002090600b0201604051806101600160405290816000820154815260200160018201548152602001600282015481526020016003820160009054906101000a900473ffffffffffffffffffffffffffffffffffffffff1673ffffffffffffffffffffffffffffffffffffffff1673ffffffffffffffffffffffffffffffffffffffff1681526020016004820180546106bf90613503565b80601f01602080910402602001604051908101604052809291908181526020018280546106eb90613503565b80156107385780601f1061070d57610100808354040283529160200191610738565b820191906000526020600020905b81548152906001019060200180831161071b57829003601f168201915b5050505050815260200160058201805461075190613503565b80601f016020809104026020016040519081016040528092919081815260200182805461077d90613503565b80156107ca5780601f1061079f576101008083540402835291602001916107ca565b820191906000526020600020905b8154815290600101906020018083116107ad57829003601f168201915b505050505081526020016006820180546107e390613503565b80601f016020809104026020016040519081016040528092919081815260200182805461080f90613503565b801561085c5780601f106108315761010080835404028352916020019161085c565b820191906000526020600020905b81548152906001019060200180831161083f57829003601f168201915b5050505050815260200160078201805461087590613503565b80601f01602080910402602001604051908101604052809291908181526020018280546108a190613503565b80156108ee5780601f106108c3576101008083540402835291602001916108ee565b820191906000526020600020905b8154815290600101906020018083116108d157829003601f168201915b505050505081526020016008820154815260200160098201548152602001600a820160009054906101000a900460ff1660ff1660ff1681525050905060006103e84261093a91906133ea565b90508161010001518110610983576040517f08c379a000000000000000000000000000000000000000000000000000000000815260040161097a9061323d565b60405180910390fd5b600082610140015160ff16116109ce576040517f08c379a00000000000000000000000000000000000000000000000000000000081526004016109c59061327d565b60405180910390fd5b60006040518060e0016040528060045481526020018873ffffffffffffffffffffffffffffffffffffffff168152602001878152602001868152602001858152602001600015158152602001600060ff16815250905060098190806001815401808255809150506001900390600052602060002090600602016000909190919091506000820151816000015560208201518160010160006101000a81548173ffffffffffffffffffffffffffffffffffffffff021916908373ffffffffffffffffffffffffffffffffffffffff160217905550604082015181600201556060820151816003019080519060200190610ac7929190612981565b506080820151816004019080519060200190610ae4929190612981565b5060a08201518160050160006101000a81548160ff02191690831515021790555060c08201518160050160016101000a81548160ff021916908360ff1602179055505050600d6000878152602001908152602001600020600454908060018154018082558091505060019003906000526020600020016000909190919091505560046000815480929190610b7790613566565b919050555050505050505050565b6000610b908261292d565b6000805b600c600085815260200190815260200160002080549050811015610d11576000600c60008681526020019081526020016000208281548110610bff577f4e487b7100000000000000000000000000000000000000000000000000000000600052603260045260246000fd5b906000526020600020015490506000600a8281548110610c48577f4e487b7100000000000000000000000000000000000000000000000000000000600052603260045260246000fd5b9060005260206000209060040201604051806080016040529081600082015481526020016001820160009054906101000a900473ffffffffffffffffffffffffffffffffffffffff1673ffffffffffffffffffffffffffffffffffffffff1673ffffffffffffffffffffffffffffffffffffffff168152602001600282015481526020016003820160009054906101000a900460ff1660ff1660ff16815250509050806040015184610cfa9190613394565b935050508080610d0990613566565b915050610b94565b5080915050919050565b60606000600b60008473ffffffffffffffffffffffffffffffffffffffff1673ffffffffffffffffffffffffffffffffffffffff16815260200190815260200160002080549050905060008167ffffffffffffffff811115610da6577f4e487b7100000000000000000000000000000000000000000000000000000000600052604160045260246000fd5b604051908082528060200260200182016040528015610ddf57816020015b610dcc612a07565b815260200190600190039081610dc45790505b50905060005b8281101561120c576000600b60008773ffffffffffffffffffffffffffffffffffffffff1673ffffffffffffffffffffffffffffffffffffffff1681526020019081526020016000208281548110610e66577f4e487b7100000000000000000000000000000000000000000000000000000000600052603260045260246000fd5b9060005260206000200154905060078181548110610ead577f4e487b7100000000000000000000000000000000000000000000000000000000600052603260045260246000fd5b90600052602060002090600b0201604051806101600160405290816000820154815260200160018201548152602001600282015481526020016003820160009054906101000a900473ffffffffffffffffffffffffffffffffffffffff1673ffffffffffffffffffffffffffffffffffffffff1673ffffffffffffffffffffffffffffffffffffffff168152602001600482018054610f4b90613503565b80601f0160208091040260200160405190810160405280929190818152602001828054610f7790613503565b8015610fc45780601f10610f9957610100808354040283529160200191610fc4565b820191906000526020600020905b815481529060010190602001808311610fa757829003601f168201915b50505050508152602001600582018054610fdd90613503565b80601f016020809104026020016040519081016040528092919081815260200182805461100990613503565b80156110565780601f1061102b57610100808354040283529160200191611056565b820191906000526020600020905b81548152906001019060200180831161103957829003601f168201915b5050505050815260200160068201805461106f90613503565b80601f016020809104026020016040519081016040528092919081815260200182805461109b90613503565b80156110e85780601f106110bd576101008083540402835291602001916110e8565b820191906000526020600020905b8154815290600101906020018083116110cb57829003601f168201915b5050505050815260200160078201805461110190613503565b80601f016020809104026020016040519081016040528092919081815260200182805461112d90613503565b801561117a5780601f1061114f5761010080835404028352916020019161117a565b820191906000526020600020905b81548152906001019060200180831161115d57829003601f168201915b505050505081526020016008820154815260200160098201548152602001600a820160009054906101000a900460ff1660ff1660ff16815250508383815181106111ed577f4e487b7100000000000000000000000000000000000000000000000000000000600052603260045260246000fd5b602002602001018190525050808061120490613566565b915050610de5565b508092505050919050565b60035481565b6112268761292d565b600060078881548110611262577f4e487b7100000000000000000000000000000000000000000000000000000000600052603260045260246000fd5b90600052602060002090600b0201604051806101600160405290816000820154815260200160018201548152602001600282015481526020016003820160009054906101000a900473ffffffffffffffffffffffffffffffffffffffff1673ffffffffffffffffffffffffffffffffffffffff1673ffffffffffffffffffffffffffffffffffffffff16815260200160048201805461130090613503565b80601f016020809104026020016040519081016040528092919081815260200182805461132c90613503565b80156113795780601f1061134e57610100808354040283529160200191611379565b820191906000526020600020905b81548152906001019060200180831161135c57829003601f168201915b5050505050815260200160058201805461139290613503565b80601f01602080910402602001604051908101604052809291908181526020018280546113be90613503565b801561140b5780601f106113e05761010080835404028352916020019161140b565b820191906000526020600020905b8154815290600101906020018083116113ee57829003601f168201915b5050505050815260200160068201805461142490613503565b80601f016020809104026020016040519081016040528092919081815260200182805461145090613503565b801561149d5780601f106114725761010080835404028352916020019161149d565b820191906000526020600020905b81548152906001019060200180831161148057829003601f168201915b505050505081526020016007820180546114b690613503565b80601f01602080910402602001604051908101604052809291908181526020018280546114e290613503565b801561152f5780601f106115045761010080835404028352916020019161152f565b820191906000526020600020905b81548152906001019060200180831161151257829003601f168201915b505050505081526020016008820154815260200160098201548152602001600a820160009054906101000a900460ff1660ff1660ff168152505090506000816040015190506000811415611581578890505b600060405180610160016040528060035481526020018b81526020018381526020013373ffffffffffffffffffffffffffffffffffffffff1681526020018a8152602001898152602001888152602001878152602001868152602001858152602001600060ff16815250905060078190806001815401808255809150506001900390600052602060002090600b020160009091909190915060008201518160000155602082015181600101556040820151816002015560608201518160030160006101000a81548173ffffffffffffffffffffffffffffffffffffffff021916908373ffffffffffffffffffffffffffffffffffffffff160217905550608082015181600401908051906020019061169a929190612981565b5060a08201518160050190805190602001906116b7929190612981565b5060c08201518160060190805190602001906116d4929190612981565b5060e08201518160070190805190602001906116f1929190612981565b506101008201518160080155610120820151816009015561014082015181600a0160006101000a81548160ff021916908360ff1602179055505050600860008381526020019081526020016000206003549080600181540180825580915050600190039060005260206000200160009091909190915055600b60003373ffffffffffffffffffffffffffffffffffffffff1673ffffffffffffffffffffffffffffffffffffffff1681526020019081526020016000206003549080600181540180825580915050600190039060005260206000200160009091909190915055600360008154809291906117e390613566565b919050555050505050505050505050565b60606007805480602002602001604051908101604052809291908181526020016000905b82821015611b3857838290600052602060002090600b0201604051806101600160405290816000820154815260200160018201548152602001600282015481526020016003820160009054906101000a900473ffffffffffffffffffffffffffffffffffffffff1673ffffffffffffffffffffffffffffffffffffffff1673ffffffffffffffffffffffffffffffffffffffff1681526020016004820180546118c090613503565b80601f01602080910402602001604051908101604052809291908181526020018280546118ec90613503565b80156119395780601f1061190e57610100808354040283529160200191611939565b820191906000526020600020905b81548152906001019060200180831161191c57829003601f168201915b5050505050815260200160058201805461195290613503565b80601f016020809104026020016040519081016040528092919081815260200182805461197e90613503565b80156119cb5780601f106119a0576101008083540402835291602001916119cb565b820191906000526020600020905b8154815290600101906020018083116119ae57829003601f168201915b505050505081526020016006820180546119e490613503565b80601f0160208091040260200160405190810160405280929190818152602001828054611a1090613503565b8015611a5d5780601f10611a3257610100808354040283529160200191611a5d565b820191906000526020600020905b815481529060010190602001808311611a4057829003601f168201915b50505050508152602001600782018054611a7690613503565b80601f0160208091040260200160405190810160405280929190818152602001828054611aa290613503565b8015611aef5780601f10611ac457610100808354040283529160200191611aef565b820191906000526020600020905b815481529060010190602001808311611ad257829003601f168201915b505050505081526020016008820154815260200160098201548152602001600a820160009054906101000a900460ff1660ff1660ff168152505081526020019060010190611818565b50505050905090565b60045481565b600660009054906101000a900473ffffffffffffffffffffffffffffffffffffffff1681565b611b768361292d565b600060078481548110611bb2577f4e487b7100000000000000000000000000000000000000000000000000000000600052603260045260246000fd5b90600052602060002090600b0201604051806101600160405290816000820154815260200160018201548152602001600282015481526020016003820160009054906101000a900473ffffffffffffffffffffffffffffffffffffffff1673ffffffffffffffffffffffffffffffffffffffff1673ffffffffffffffffffffffffffffffffffffffff168152602001600482018054611c5090613503565b80601f0160208091040260200160405190810160405280929190818152602001828054611c7c90613503565b8015611cc95780601f10611c9e57610100808354040283529160200191611cc9565b820191906000526020600020905b815481529060010190602001808311611cac57829003601f168201915b50505050508152602001600582018054611ce290613503565b80601f0160208091040260200160405190810160405280929190818152602001828054611d0e90613503565b8015611d5b5780601f10611d3057610100808354040283529160200191611d5b565b820191906000526020600020905b815481529060010190602001808311611d3e57829003601f168201915b50505050508152602001600682018054611d7490613503565b80601f0160208091040260200160405190810160405280929190818152602001828054611da090613503565b8015611ded5780601f10611dc257610100808354040283529160200191611ded565b820191906000526020600020905b815481529060010190602001808311611dd057829003601f168201915b50505050508152602001600782018054611e0690613503565b80601f0160208091040260200160405190810160405280929190818152602001828054611e3290613503565b8015611e7f5780601f10611e5457610100808354040283529160200191611e7f565b820191906000526020600020905b815481529060010190602001808311611e6257829003601f168201915b505050505081526020016008820154815260200160098201548152602001600a820160009054906101000a900460ff1660ff1660ff168152505090503373ffffffffffffffffffffffffffffffffffffffff16816060015173ffffffffffffffffffffffffffffffffffffffff1614611f2d576040517f08c379a0000000000000000000000000000000000000000000000000000000008152600401611f24906131fd565b60405180910390fd5b60003073ffffffffffffffffffffffffffffffffffffffff166320fcd0dd866040518263ffffffff1660e01b8152600401611f6891906132bd565b60206040518083038186803b158015611f8057600080fd5b505afa158015611f94573d6000803e3d6000fd5b505050506040513d601f19601f82011682018060405250810190611fb89190612d0c565b90508161012001518382611fcc9190613394565b111561200d576040517f08c379a00000000000000000000000000000000000000000000000000000000081526004016120049061329d565b60405180910390fd5b6000604051806080016040528060055481526020018673ffffffffffffffffffffffffffffffffffffffff168152602001858152602001600060ff168152509050600a8190806001815401808255809150506001900390600052602060002090600402016000909190919091506000820151816000015560208201518160010160006101000a81548173ffffffffffffffffffffffffffffffffffffffff021916908373ffffffffffffffffffffffffffffffffffffffff1602179055506040820151816002015560608201518160030160006101000a81548160ff021916908360ff1602179055505050600c600087815260200190815260200160002060055490806001815401808255809150506001900390600052602060002001600090919091909150556005600081548092919061214790613566565b9190505550505050505050565b6001805461216190613503565b80601f016020809104026020016040519081016040528092919081815260200182805461218d90613503565b80156121da5780601f106121af576101008083540402835291602001916121da565b820191906000526020600020905b8154815290600101906020018083116121bd57829003601f168201915b505050505081565b60025481565b6121f18161292d565b60006007828154811061222d577f4e487b7100000000000000000000000000000000000000000000000000000000600052603260045260246000fd5b90600052602060002090600b020190503373ffffffffffffffffffffffffffffffffffffffff168160030160009054906101000a900473ffffffffffffffffffffffffffffffffffffffff1673ffffffffffffffffffffffffffffffffffffffff16146122cf576040517f08c379a00000000000000000000000000000000000000000000000000000000081526004016122c6906131fd565b60405180910390fd5b600181600a0160006101000a81548160ff021916908360ff1602179055505050565b33600660006101000a81548173ffffffffffffffffffffffffffffffffffffffff021916908373ffffffffffffffffffffffffffffffffffffffff1602179055506040518060400160405280600981526020017f44657620506970657300000000000000000000000000000000000000000000008152506000908051906020019061237d929190612981565b506040518060400160405280600581526020017f5049504553000000000000000000000000000000000000000000000000000000815250600190805190602001906123c9929190612981565b5060006002819055506007604051806101600160405280600081526020016000815260200160008152602001600073ffffffffffffffffffffffffffffffffffffffff1681526020016040518060200160405280600081525081526020016040518060200160405280600081525081526020016040518060200160405280600081525081526020016040518060200160405280600081525081526020016000815260200160008152602001600060ff1681525090806001815401808255809150506001900390600052602060002090600b020160009091909190915060008201518160000155602082015181600101556040820151816002015560608201518160030160006101000a81548173ffffffffffffffffffffffffffffffffffffffff021916908373ffffffffffffffffffffffffffffffffffffffff1602179055506080820151816004019080519060200190612526929190612981565b5060a0820151816005019080519060200190612543929190612981565b5060c0820151816006019080519060200190612560929190612981565b5060e082015181600701908051906020019061257d929190612981565b506101008201518160080155610120820151816009015561014082015181600a0160006101000a81548160ff021916908360ff1602179055505050600160038190555060096040518060e0016040528060008152602001600073ffffffffffffffffffffffffffffffffffffffff16815260200160008152602001604051806020016040528060008152508152602001604051806020016040528060008152508152602001600015158152602001600060ff1681525090806001815401808255809150506001900390600052602060002090600602016000909190919091506000820151816000015560208201518160010160006101000a81548173ffffffffffffffffffffffffffffffffffffffff021916908373ffffffffffffffffffffffffffffffffffffffff1602179055506040820151816002015560608201518160030190805190602001906126d3929190612981565b5060808201518160040190805190602001906126f0929190612981565b5060a08201518160050160006101000a81548160ff02191690831515021790555060c08201518160050160016101000a81548160ff021916908360ff16021790555050506001600481905550600a604051806080016040528060008152602001600073ffffffffffffffffffffffffffffffffffffffff16815260200160008152602001600060ff1681525090806001815401808255809150506001900390600052602060002090600402016000909190919091506000820151816000015560208201518160010160006101000a81548173ffffffffffffffffffffffffffffffffffffffff021916908373ffffffffffffffffffffffffffffffffffffffff1602179055506040820151816002015560608201518160030160006101000a81548160ff021916908360ff16021790555050506001600581905550565b600060098281548110612869577f4e487b7100000000000000000000000000000000000000000000000000000000600052603260045260246000fd5b906000526020600020906006020190503373ffffffffffffffffffffffffffffffffffffffff168160010160009054906101000a900473ffffffffffffffffffffffffffffffffffffffff1673ffffffffffffffffffffffffffffffffffffffff161461290b576040517f08c379a00000000000000000000000000000000000000000000000000000000081526004016129029061321d565b60405180910390fd5b60018160050160016101000a81548160ff021916908360ff1602179055505050565b600160035461293c9190613444565b81111561297e576040517f08c379a00000000000000000000000000000000000000000000000000000000081526004016129759061325d565b60405180910390fd5b50565b82805461298d90613503565b90600052602060002090601f0160209004810192826129af57600085556129f6565b82601f106129c857805160ff19168380011785556129f6565b828001600101855582156129f6579182015b828111156129f55782518255916020019190600101906129da565b5b509050612a039190612a7a565b5090565b604051806101600160405280600081526020016000815260200160008152602001600073ffffffffffffffffffffffffffffffffffffffff168152602001606081526020016060815260200160608152602001606081526020016000815260200160008152602001600060ff1681525090565b5b80821115612a93576000816000905550600101612a7b565b5090565b6000612aaa612aa5846132fd565b6132d8565b905082815260208101848484011115612ac257600080fd5b612acd8482856134c1565b509392505050565b600081359050612ae48161378f565b92915050565b600082601f830112612afb57600080fd5b8135612b0b848260208601612a97565b91505092915050565b600081359050612b23816137a6565b92915050565b600081519050612b38816137a6565b92915050565b600060208284031215612b5057600080fd5b6000612b5e84828501612ad5565b91505092915050565b60008060008060808587031215612b7d57600080fd5b6000612b8b87828801612ad5565b9450506020612b9c87828801612b14565b935050604085013567ffffffffffffffff811115612bb957600080fd5b612bc587828801612aea565b925050606085013567ffffffffffffffff811115612be257600080fd5b612bee87828801612aea565b91505092959194509250565b60008060008060008060c08789031215612c1357600080fd5b600087013567ffffffffffffffff811115612c2d57600080fd5b612c3989828a01612aea565b965050602087013567ffffffffffffffff811115612c5657600080fd5b612c6289828a01612aea565b955050604087013567ffffffffffffffff811115612c7f57600080fd5b612c8b89828a01612aea565b945050606087013567ffffffffffffffff811115612ca857600080fd5b612cb489828a01612aea565b9350506080612cc589828a01612b14565b92505060a0612cd689828a01612b14565b9150509295509295509295565b600060208284031215612cf557600080fd5b6000612d0384828501612b14565b91505092915050565b600060208284031215612d1e57600080fd5b6000612d2c84828501612b29565b91505092915050565b600080600060608486031215612d4a57600080fd5b6000612d5886828701612b14565b9350506020612d6986828701612ad5565b9250506040612d7a86828701612b14565b9150509250925092565b600080600080600080600060e0888a031215612d9f57600080fd5b6000612dad8a828b01612b14565b975050602088013567ffffffffffffffff811115612dca57600080fd5b612dd68a828b01612aea565b965050604088013567ffffffffffffffff811115612df357600080fd5b612dff8a828b01612aea565b955050606088013567ffffffffffffffff811115612e1c57600080fd5b612e288a828b01612aea565b945050608088013567ffffffffffffffff811115612e4557600080fd5b612e518a828b01612aea565b93505060a0612e628a828b01612b14565b92505060c0612e738a828b01612b14565b91505092959891949750929550565b6000612e8e838361306d565b905092915050565b612e9f81613478565b82525050565b612eae81613478565b82525050565b6000612ebf8261333e565b612ec98185613361565b935083602082028501612edb8561332e565b8060005b85811015612f175784840389528151612ef88582612e82565b9450612f0383613354565b925060208a01995050600181019050612edf565b50829750879550505050505092915050565b6000612f3482613349565b612f3e8185613372565b9350612f4e8185602086016134d0565b612f578161363c565b840191505092915050565b6000612f6d82613349565b612f778185613383565b9350612f878185602086016134d0565b612f908161363c565b840191505092915050565b6000612fa8602383613383565b9150612fb38261364d565b604082019050919050565b6000612fcb602783613383565b9150612fd68261369c565b604082019050919050565b6000612fee601583613383565b9150612ff9826136eb565b602082019050919050565b6000613011601c83613383565b915061301c82613714565b602082019050919050565b6000613034600083613383565b915061303f8261373d565b600082019050919050565b6000613057602683613383565b915061306282613740565b604082019050919050565b6000610160830160008301516130866000860182613171565b5060208301516130996020860182613171565b5060408301516130ac6040860182613171565b5060608301516130bf6060860182612e96565b50608083015184820360808601526130d78282612f29565b91505060a083015184820360a08601526130f18282612f29565b91505060c083015184820360c086015261310b8282612f29565b91505060e083015184820360e08601526131258282612f29565b91505061010083015161313c610100860182613171565b50610120830151613151610120860182613171565b5061014083015161316661014086018261318f565b508091505092915050565b61317a816134aa565b82525050565b613189816134aa565b82525050565b613198816134b4565b82525050565b60006020820190506131b36000830184612ea5565b92915050565b600060208201905081810360008301526131d38184612eb4565b905092915050565b600060208201905081810360008301526131f58184612f62565b905092915050565b6000602082019050818103600083015261321681612f9b565b9050919050565b6000602082019050818103600083015261323681612fbe565b9050919050565b6000602082019050818103600083015261325681612fe1565b9050919050565b6000602082019050818103600083015261327681613004565b9050919050565b6000602082019050818103600083015261329681613027565b9050919050565b600060208201905081810360008301526132b68161304a565b9050919050565b60006020820190506132d26000830184613180565b92915050565b60006132e26132f3565b90506132ee8282613535565b919050565b6000604051905090565b600067ffffffffffffffff8211156133185761331761360d565b5b6133218261363c565b9050602081019050919050565b6000819050602082019050919050565b600081519050919050565b600081519050919050565b6000602082019050919050565b600082825260208201905092915050565b600082825260208201905092915050565b600082825260208201905092915050565b600061339f826134aa565b91506133aa836134aa565b9250827fffffffffffffffffffffffffffffffffffffffffffffffffffffffffffffffff038211156133df576133de6135af565b5b828201905092915050565b60006133f5826134aa565b9150613400836134aa565b9250817fffffffffffffffffffffffffffffffffffffffffffffffffffffffffffffffff0483118215151615613439576134386135af565b5b828202905092915050565b600061344f826134aa565b915061345a836134aa565b92508282101561346d5761346c6135af565b5b828203905092915050565b60006134838261348a565b9050919050565b600073ffffffffffffffffffffffffffffffffffffffff82169050919050565b6000819050919050565b600060ff82169050919050565b82818337600083830152505050565b60005b838110156134ee5780820151818401526020810190506134d3565b838111156134fd576000848401525b50505050565b6000600282049050600182168061351b57607f821691505b6020821081141561352f5761352e6135de565b5b50919050565b61353e8261363c565b810181811067ffffffffffffffff8211171561355d5761355c61360d565b5b80604052505050565b6000613571826134aa565b91507fffffffffffffffffffffffffffffffffffffffffffffffffffffffffffffffff8214156135a4576135a36135af565b5b600182019050919050565b7f4e487b7100000000000000000000000000000000000000000000000000000000600052601160045260246000fd5b7f4e487b7100000000000000000000000000000000000000000000000000000000600052602260045260246000fd5b7f4e487b7100000000000000000000000000000000000000000000000000000000600052604160045260246000fd5b6000601f19601f8301169050919050565b7f6572726f725f6f6e6c795f70726f6a6563745f63726561746f725f63616e5f6560008201527f6469740000000000000000000000000000000000000000000000000000000000602082015250565b7f6572726f725f6f6e6c795f6170706c69636174696f6e5f63726561746f725f6360008201527f616e5f6564697400000000000000000000000000000000000000000000000000602082015250565b7f6572726f725f70726f6a6563745f657870697265640000000000000000000000600082015250565b7f6572726f725f70726f6a6563745f646f65735f6e6f745f657869737400000000600082015250565b50565b7f6572726f725f726f79616c746965735f6578636565645f746f74616c5f61766160008201527f696c61626c650000000000000000000000000000000000000000000000000000602082015250565b61379881613478565b81146137a357600080fd5b50565b6137af816134aa565b81146137ba57600080fd5b5056fea2646970667358221220089c21c17118d6e591aa73c792cf0573e4b1c17bdd41b56e1d7e051987b00bfa64736f6c63430008020033",
  "linkReferences": {},
  "deployedLinkReferences": {}
}