{
  "_format": "hh-sol-artifact-1",
  "contractName": "DevPipes",
  "sourceName": "contracts/DevPipes.sol",
  "abi": [
    {
      "inputs": [
        {
          "internalType": "uint256",
          "name": "projectId",
          "type": "uint256"
        },
        {
          "internalType": "address",
          "name": "user",
          "type": "address"
        },
        {
          "internalType": "uint256",
          "name": "amount",
          "type": "uint256"
        }
      ],
      "name": "addRoyalty",
      "outputs": [],
      "stateMutability": "nonpayable",
      "type": "function"
    },
    {
      "inputs": [],
      "name": "applicationIndex",
      "outputs": [
        {
          "internalType": "uint256",
          "name": "",
          "type": "uint256"
        }
      ],
      "stateMutability": "view",
      "type": "function"
    },
    {
      "inputs": [
        {
          "internalType": "address",
          "name": "applicant",
          "type": "address"
        },
        {
          "internalType": "uint256",
          "name": "projectId",
          "type": "uint256"
        },
        {
          "internalType": "string",
          "name": "details1",
          "type": "string"
        },
        {
          "internalType": "string",
          "name": "details2",
          "type": "string"
        }
      ],
      "name": "applyForProject",
      "outputs": [],
      "stateMutability": "nonpayable",
      "type": "function"
    },
    {
      "inputs": [],
      "name": "balance",
      "outputs": [
        {
          "internalType": "uint256",
          "name": "",
          "type": "uint256"
        }
      ],
      "stateMutability": "view",
      "type": "function"
    },
    {
      "inputs": [
        {
          "internalType": "string",
          "name": "projectName",
          "type": "string"
        },
        {
          "internalType": "string",
          "name": "description",
          "type": "string"
        },
        {
          "internalType": "string",
          "name": "uri",
          "type": "string"
        },
        {
          "internalType": "string",
          "name": "tags",
          "type": "string"
        },
        {
          "internalType": "uint256",
          "name": "dueDate",
          "type": "uint256"
        },
        {
          "internalType": "uint256",
          "name": "budget",
          "type": "uint256"
        }
      ],
      "name": "createProject",
      "outputs": [],
      "stateMutability": "nonpayable",
      "type": "function"
    },
    {
      "inputs": [
        {
          "internalType": "uint256",
          "name": "parentId",
          "type": "uint256"
        },
        {
          "internalType": "string",
          "name": "projectName",
          "type": "string"
        },
        {
          "internalType": "string",
          "name": "description",
          "type": "string"
        },
        {
          "internalType": "string",
          "name": "uri",
          "type": "string"
        },
        {
          "internalType": "string",
          "name": "tags",
          "type": "string"
        },
        {
          "internalType": "uint256",
          "name": "dueDate",
          "type": "uint256"
        },
        {
          "internalType": "uint256",
          "name": "budget",
          "type": "uint256"
        }
      ],
      "name": "createSubProject",
      "outputs": [],
      "stateMutability": "nonpayable",
      "type": "function"
    },
    {
      "inputs": [
        {
          "internalType": "address",
          "name": "user",
          "type": "address"
        }
      ],
      "name": "getProjectsForUser",
      "outputs": [
        {
          "components": [
            {
              "internalType": "uint256",
              "name": "id",
              "type": "uint256"
            },
            {
              "internalType": "uint256",
              "name": "parentId",
              "type": "uint256"
            },
            {
              "internalType": "uint256",
              "name": "rootId",
              "type": "uint256"
            },
            {
              "internalType": "address",
              "name": "creator",
              "type": "address"
            },
            {
              "internalType": "string",
              "name": "name",
              "type": "string"
            },
            {
              "internalType": "string",
              "name": "description",
              "type": "string"
            },
            {
              "internalType": "string",
              "name": "uri",
              "type": "string"
            },
            {
              "internalType": "string",
              "name": "tags",
              "type": "string"
            },
            {
              "internalType": "uint256",
              "name": "dueDate",
              "type": "uint256"
            },
            {
              "internalType": "uint256",
              "name": "budget",
              "type": "uint256"
            },
            {
              "internalType": "uint8",
              "name": "status",
              "type": "uint8"
            }
          ],
          "internalType": "struct DevPipes.Project[]",
          "name": "",
          "type": "tuple[]"
        }
      ],
      "stateMutability": "view",
      "type": "function"
    },
    {
      "inputs": [
        {
          "internalType": "uint256",
          "name": "projectId",
          "type": "uint256"
        }
      ],
      "name": "getRoyaltiesTotal",
      "outputs": [
        {
          "internalType": "uint256",
          "name": "",
          "type": "uint256"
        }
      ],
      "stateMutability": "view",
      "type": "function"
    },
    {
      "inputs": [],
      "name": "init",
      "outputs": [],
      "stateMutability": "nonpayable",
      "type": "function"
    },
    {
      "inputs": [],
      "name": "name",
      "outputs": [
        {
          "internalType": "string",
          "name": "",
          "type": "string"
        }
      ],
      "stateMutability": "view",
      "type": "function"
    },
    {
      "inputs": [],
      "name": "owner",
      "outputs": [
        {
          "internalType": "address",
          "name": "",
          "type": "address"
        }
      ],
      "stateMutability": "view",
      "type": "function"
    },
    {
      "inputs": [],
      "name": "paymentsIndex",
      "outputs": [
        {
          "internalType": "uint256",
          "name": "",
          "type": "uint256"
        }
      ],
      "stateMutability": "view",
      "type": "function"
    },
    {
      "inputs": [],
      "name": "projectIndex",
      "outputs": [
        {
          "internalType": "uint256",
          "name": "",
          "type": "uint256"
        }
      ],
      "stateMutability": "view",
      "type": "function"
    },
    {
      "inputs": [
        {
          "internalType": "uint256",
          "name": "projectId",
          "type": "uint256"
        }
      ],
      "name": "publish",
      "outputs": [],
      "stateMutability": "nonpayable",
      "type": "function"
    },
    {
      "inputs": [],
      "name": "symbol",
      "outputs": [
        {
          "internalType": "string",
          "name": "",
          "type": "string"
        }
      ],
      "stateMutability": "view",
      "type": "function"
    },
    {
      "inputs": [
        {
          "internalType": "uint256",
          "name": "applicationId",
          "type": "uint256"
        }
      ],
      "name": "withdrawApplication",
      "outputs": [],
      "stateMutability": "nonpayable",
      "type": "function"
    }
  ],
  "bytecode": "0x608060405234801561001057600080fd5b5061340f806100206000396000f3fe608060405234801561001057600080fd5b50600436106101005760003560e01c806386d1447611610097578063b69ef8a811610066578063b69ef8a814610289578063cc4ef119146102a7578063e1c7392a146102c3578063f1d5314a146102cd57610100565b806386d14476146102135780638da5cb5b1461023157806391b87f231461024f57806395d89b411461026b57610100565b806320fcd0dd116100d357806320fcd0dd14610179578063223153fa146101a957806363184726146101d957806371274734146101f757610100565b8063012865a41461010557806306fdde031461012157806315ecdbf31461013f57806316dcb2901461015d575b600080fd5b61011f600480360381019061011a9190612884565b6102e9565b005b61012961051f565b6040516101369190612f5f565b60405180910390f35b6101476105ad565b6040516101549190613041565b60405180910390f35b610177600480360381019061017291906127f1565b6105b3565b005b610193600480360381019061018e919061296d565b610b5c565b6040516101a09190613041565b60405180910390f35b6101c360048036038101906101be91906127c8565b610cf2565b6040516101d09190612f3d565b60405180910390f35b6101e16111ee565b6040516101ee9190613041565b60405180910390f35b610211600480360381019061020c9190612a0e565b6111f4565b005b61021b6117cb565b6040516102289190613041565b60405180910390f35b6102396117d1565b6040516102469190612f22565b60405180910390f35b610269600480360381019061026491906129bf565b6117f7565b005b610273611dde565b6040516102809190612f5f565b60405180910390f35b610291611e6c565b60405161029e9190613041565b60405180910390f35b6102c160048036038101906102bc919061296d565b611e72565b005b6102cb611f7b565b005b6102e760048036038101906102e2919061296d565b6124b7565b005b6000604051806101600160405280600354815260200160008152602001600081526020013373ffffffffffffffffffffffffffffffffffffffff168152602001888152602001878152602001868152602001858152602001848152602001838152602001600060ff16815250905060078190806001815401808255809150506001900390600052602060002090600b020160009091909190915060008201518160000155602082015181600101556040820151816002015560608201518160030160006101000a81548173ffffffffffffffffffffffffffffffffffffffff021916908373ffffffffffffffffffffffffffffffffffffffff160217905550608082015181600401908051906020019061040492919061260b565b5060a082015181600501908051906020019061042192919061260b565b5060c082015181600601908051906020019061043e92919061260b565b5060e082015181600701908051906020019061045b92919061260b565b506101008201518160080155610120820151816009015561014082015181600a0160006101000a81548160ff021916908360ff1602179055505050600b60003373ffffffffffffffffffffffffffffffffffffffff1673ffffffffffffffffffffffffffffffffffffffff168152602001908152602001600020600354908060018154018082558091505060019003906000526020600020016000909190919091505560036000815480929190610511906132c4565b919050555050505050505050565b6000805461052c90613292565b80601f016020809104026020016040519081016040528092919081815260200182805461055890613292565b80156105a55780601f1061057a576101008083540402835291602001916105a5565b820191906000526020600020905b81548152906001019060200180831161058857829003601f168201915b505050505081565b60055481565b6105bc836125b7565b6000600784815481106105f8577f4e487b7100000000000000000000000000000000000000000000000000000000600052603260045260246000fd5b90600052602060002090600b0201604051806101600160405290816000820154815260200160018201548152602001600282015481526020016003820160009054906101000a900473ffffffffffffffffffffffffffffffffffffffff1673ffffffffffffffffffffffffffffffffffffffff1673ffffffffffffffffffffffffffffffffffffffff16815260200160048201805461069690613292565b80601f01602080910402602001604051908101604052809291908181526020018280546106c290613292565b801561070f5780601f106106e45761010080835404028352916020019161070f565b820191906000526020600020905b8154815290600101906020018083116106f257829003601f168201915b5050505050815260200160058201805461072890613292565b80601f016020809104026020016040519081016040528092919081815260200182805461075490613292565b80156107a15780601f10610776576101008083540402835291602001916107a1565b820191906000526020600020905b81548152906001019060200180831161078457829003601f168201915b505050505081526020016006820180546107ba90613292565b80601f01602080910402602001604051908101604052809291908181526020018280546107e690613292565b80156108335780601f1061080857610100808354040283529160200191610833565b820191906000526020600020905b81548152906001019060200180831161081657829003601f168201915b5050505050815260200160078201805461084c90613292565b80601f016020809104026020016040519081016040528092919081815260200182805461087890613292565b80156108c55780601f1061089a576101008083540402835291602001916108c5565b820191906000526020600020905b8154815290600101906020018083116108a857829003601f168201915b505050505081526020016008820154815260200160098201548152602001600a820160009054906101000a900460ff1660ff1660ff1681525050905060006103e8426109119190613179565b9050816101000151811061095a576040517f08c379a000000000000000000000000000000000000000000000000000000000815260040161095190612fc1565b60405180910390fd5b600082610140015160ff16116109a5576040517f08c379a000000000000000000000000000000000000000000000000000000000815260040161099c90613001565b60405180910390fd5b60006040518060e0016040528060045481526020018873ffffffffffffffffffffffffffffffffffffffff168152602001878152602001868152602001858152602001600015158152602001600060ff16815250905060098190806001815401808255809150506001900390600052602060002090600602016000909190919091506000820151816000015560208201518160010160006101000a81548173ffffffffffffffffffffffffffffffffffffffff021916908373ffffffffffffffffffffffffffffffffffffffff160217905550604082015181600201556060820151816003019080519060200190610a9e92919061260b565b506080820151816004019080519060200190610abb92919061260b565b5060a08201518160050160006101000a81548160ff02191690831515021790555060c08201518160050160016101000a81548160ff021916908360ff1602179055505050600d6000878152602001908152602001600020600454908060018154018082558091505060019003906000526020600020016000909190919091505560046000815480929190610b4e906132c4565b919050555050505050505050565b6000610b67826125b7565b6000805b600c600085815260200190815260200160002080549050811015610ce8576000600c60008681526020019081526020016000208281548110610bd6577f4e487b7100000000000000000000000000000000000000000000000000000000600052603260045260246000fd5b906000526020600020015490506000600a8281548110610c1f577f4e487b7100000000000000000000000000000000000000000000000000000000600052603260045260246000fd5b9060005260206000209060040201604051806080016040529081600082015481526020016001820160009054906101000a900473ffffffffffffffffffffffffffffffffffffffff1673ffffffffffffffffffffffffffffffffffffffff1673ffffffffffffffffffffffffffffffffffffffff168152602001600282015481526020016003820160009054906101000a900460ff1660ff1660ff16815250509050806040015184610cd19190613123565b935050508080610ce0906132c4565b915050610b6b565b5080915050919050565b60606000600b60008473ffffffffffffffffffffffffffffffffffffffff1673ffffffffffffffffffffffffffffffffffffffff16815260200190815260200160002080549050905060008167ffffffffffffffff811115610d7d577f4e487b7100000000000000000000000000000000000000000000000000000000600052604160045260246000fd5b604051908082528060200260200182016040528015610db657816020015b610da3612691565b815260200190600190039081610d9b5790505b50905060005b828110156111e3576000600b60008773ffffffffffffffffffffffffffffffffffffffff1673ffffffffffffffffffffffffffffffffffffffff1681526020019081526020016000208281548110610e3d577f4e487b7100000000000000000000000000000000000000000000000000000000600052603260045260246000fd5b9060005260206000200154905060078181548110610e84577f4e487b7100000000000000000000000000000000000000000000000000000000600052603260045260246000fd5b90600052602060002090600b0201604051806101600160405290816000820154815260200160018201548152602001600282015481526020016003820160009054906101000a900473ffffffffffffffffffffffffffffffffffffffff1673ffffffffffffffffffffffffffffffffffffffff1673ffffffffffffffffffffffffffffffffffffffff168152602001600482018054610f2290613292565b80601f0160208091040260200160405190810160405280929190818152602001828054610f4e90613292565b8015610f9b5780601f10610f7057610100808354040283529160200191610f9b565b820191906000526020600020905b815481529060010190602001808311610f7e57829003601f168201915b50505050508152602001600582018054610fb490613292565b80601f0160208091040260200160405190810160405280929190818152602001828054610fe090613292565b801561102d5780601f106110025761010080835404028352916020019161102d565b820191906000526020600020905b81548152906001019060200180831161101057829003601f168201915b5050505050815260200160068201805461104690613292565b80601f016020809104026020016040519081016040528092919081815260200182805461107290613292565b80156110bf5780601f10611094576101008083540402835291602001916110bf565b820191906000526020600020905b8154815290600101906020018083116110a257829003601f168201915b505050505081526020016007820180546110d890613292565b80601f016020809104026020016040519081016040528092919081815260200182805461110490613292565b80156111515780601f1061112657610100808354040283529160200191611151565b820191906000526020600020905b81548152906001019060200180831161113457829003601f168201915b505050505081526020016008820154815260200160098201548152602001600a820160009054906101000a900460ff1660ff1660ff16815250508383815181106111c4577f4e487b7100000000000000000000000000000000000000000000000000000000600052603260045260246000fd5b60200260200101819052505080806111db906132c4565b915050610dbc565b508092505050919050565b60035481565b6111fd876125b7565b600060078881548110611239577f4e487b7100000000000000000000000000000000000000000000000000000000600052603260045260246000fd5b90600052602060002090600b0201604051806101600160405290816000820154815260200160018201548152602001600282015481526020016003820160009054906101000a900473ffffffffffffffffffffffffffffffffffffffff1673ffffffffffffffffffffffffffffffffffffffff1673ffffffffffffffffffffffffffffffffffffffff1681526020016004820180546112d790613292565b80601f016020809104026020016040519081016040528092919081815260200182805461130390613292565b80156113505780601f1061132557610100808354040283529160200191611350565b820191906000526020600020905b81548152906001019060200180831161133357829003601f168201915b5050505050815260200160058201805461136990613292565b80601f016020809104026020016040519081016040528092919081815260200182805461139590613292565b80156113e25780601f106113b7576101008083540402835291602001916113e2565b820191906000526020600020905b8154815290600101906020018083116113c557829003601f168201915b505050505081526020016006820180546113fb90613292565b80601f016020809104026020016040519081016040528092919081815260200182805461142790613292565b80156114745780601f1061144957610100808354040283529160200191611474565b820191906000526020600020905b81548152906001019060200180831161145757829003601f168201915b5050505050815260200160078201805461148d90613292565b80601f01602080910402602001604051908101604052809291908181526020018280546114b990613292565b80156115065780601f106114db57610100808354040283529160200191611506565b820191906000526020600020905b8154815290600101906020018083116114e957829003601f168201915b505050505081526020016008820154815260200160098201548152602001600a820160009054906101000a900460ff1660ff1660ff168152505090506000816040015190506000811415611558578890505b600060405180610160016040528060035481526020018b81526020018381526020013373ffffffffffffffffffffffffffffffffffffffff1681526020018a8152602001898152602001888152602001878152602001868152602001858152602001600060ff16815250905060078190806001815401808255809150506001900390600052602060002090600b020160009091909190915060008201518160000155602082015181600101556040820151816002015560608201518160030160006101000a81548173ffffffffffffffffffffffffffffffffffffffff021916908373ffffffffffffffffffffffffffffffffffffffff160217905550608082015181600401908051906020019061167192919061260b565b5060a082015181600501908051906020019061168e92919061260b565b5060c08201518160060190805190602001906116ab92919061260b565b5060e08201518160070190805190602001906116c892919061260b565b506101008201518160080155610120820151816009015561014082015181600a0160006101000a81548160ff021916908360ff1602179055505050600860008381526020019081526020016000206003549080600181540180825580915050600190039060005260206000200160009091909190915055600b60003373ffffffffffffffffffffffffffffffffffffffff1673ffffffffffffffffffffffffffffffffffffffff1681526020019081526020016000206003549080600181540180825580915050600190039060005260206000200160009091909190915055600360008154809291906117ba906132c4565b919050555050505050505050505050565b60045481565b600660009054906101000a900473ffffffffffffffffffffffffffffffffffffffff1681565b611800836125b7565b60006007848154811061183c577f4e487b7100000000000000000000000000000000000000000000000000000000600052603260045260246000fd5b90600052602060002090600b0201604051806101600160405290816000820154815260200160018201548152602001600282015481526020016003820160009054906101000a900473ffffffffffffffffffffffffffffffffffffffff1673ffffffffffffffffffffffffffffffffffffffff1673ffffffffffffffffffffffffffffffffffffffff1681526020016004820180546118da90613292565b80601f016020809104026020016040519081016040528092919081815260200182805461190690613292565b80156119535780601f1061192857610100808354040283529160200191611953565b820191906000526020600020905b81548152906001019060200180831161193657829003601f168201915b5050505050815260200160058201805461196c90613292565b80601f016020809104026020016040519081016040528092919081815260200182805461199890613292565b80156119e55780601f106119ba576101008083540402835291602001916119e5565b820191906000526020600020905b8154815290600101906020018083116119c857829003601f168201915b505050505081526020016006820180546119fe90613292565b80601f0160208091040260200160405190810160405280929190818152602001828054611a2a90613292565b8015611a775780601f10611a4c57610100808354040283529160200191611a77565b820191906000526020600020905b815481529060010190602001808311611a5a57829003601f168201915b50505050508152602001600782018054611a9090613292565b80601f0160208091040260200160405190810160405280929190818152602001828054611abc90613292565b8015611b095780601f10611ade57610100808354040283529160200191611b09565b820191906000526020600020905b815481529060010190602001808311611aec57829003601f168201915b505050505081526020016008820154815260200160098201548152602001600a820160009054906101000a900460ff1660ff1660ff168152505090503373ffffffffffffffffffffffffffffffffffffffff16816060015173ffffffffffffffffffffffffffffffffffffffff1614611bb7576040517f08c379a0000000000000000000000000000000000000000000000000000000008152600401611bae90612f81565b60405180910390fd5b60003073ffffffffffffffffffffffffffffffffffffffff166320fcd0dd866040518263ffffffff1660e01b8152600401611bf29190613041565b60206040518083038186803b158015611c0a57600080fd5b505afa158015611c1e573d6000803e3d6000fd5b505050506040513d601f19601f82011682018060405250810190611c429190612996565b90508161012001518382611c569190613123565b1115611c97576040517f08c379a0000000000000000000000000000000000000000000000000000000008152600401611c8e90613021565b60405180910390fd5b6000604051806080016040528060055481526020018673ffffffffffffffffffffffffffffffffffffffff168152602001858152602001600060ff168152509050600a8190806001815401808255809150506001900390600052602060002090600402016000909190919091506000820151816000015560208201518160010160006101000a81548173ffffffffffffffffffffffffffffffffffffffff021916908373ffffffffffffffffffffffffffffffffffffffff1602179055506040820151816002015560608201518160030160006101000a81548160ff021916908360ff1602179055505050600c6000878152602001908152602001600020600554908060018154018082558091505060019003906000526020600020016000909190919091505560056000815480929190611dd1906132c4565b9190505550505050505050565b60018054611deb90613292565b80601f0160208091040260200160405190810160405280929190818152602001828054611e1790613292565b8015611e645780601f10611e3957610100808354040283529160200191611e64565b820191906000526020600020905b815481529060010190602001808311611e4757829003601f168201915b505050505081565b60025481565b611e7b816125b7565b600060078281548110611eb7577f4e487b7100000000000000000000000000000000000000000000000000000000600052603260045260246000fd5b90600052602060002090600b020190503373ffffffffffffffffffffffffffffffffffffffff168160030160009054906101000a900473ffffffffffffffffffffffffffffffffffffffff1673ffffffffffffffffffffffffffffffffffffffff1614611f59576040517f08c379a0000000000000000000000000000000000000000000000000000000008152600401611f5090612f81565b60405180910390fd5b600181600a0160006101000a81548160ff021916908360ff1602179055505050565b33600660006101000a81548173ffffffffffffffffffffffffffffffffffffffff021916908373ffffffffffffffffffffffffffffffffffffffff1602179055506040518060400160405280600981526020017f44657620506970657300000000000000000000000000000000000000000000008152506000908051906020019061200792919061260b565b506040518060400160405280600581526020017f50495045530000000000000000000000000000000000000000000000000000008152506001908051906020019061205392919061260b565b5060006002819055506007604051806101600160405280600081526020016000815260200160008152602001600073ffffffffffffffffffffffffffffffffffffffff1681526020016040518060200160405280600081525081526020016040518060200160405280600081525081526020016040518060200160405280600081525081526020016040518060200160405280600081525081526020016000815260200160008152602001600060ff1681525090806001815401808255809150506001900390600052602060002090600b020160009091909190915060008201518160000155602082015181600101556040820151816002015560608201518160030160006101000a81548173ffffffffffffffffffffffffffffffffffffffff021916908373ffffffffffffffffffffffffffffffffffffffff16021790555060808201518160040190805190602001906121b092919061260b565b5060a08201518160050190805190602001906121cd92919061260b565b5060c08201518160060190805190602001906121ea92919061260b565b5060e082015181600701908051906020019061220792919061260b565b506101008201518160080155610120820151816009015561014082015181600a0160006101000a81548160ff021916908360ff1602179055505050600160038190555060096040518060e0016040528060008152602001600073ffffffffffffffffffffffffffffffffffffffff16815260200160008152602001604051806020016040528060008152508152602001604051806020016040528060008152508152602001600015158152602001600060ff1681525090806001815401808255809150506001900390600052602060002090600602016000909190919091506000820151816000015560208201518160010160006101000a81548173ffffffffffffffffffffffffffffffffffffffff021916908373ffffffffffffffffffffffffffffffffffffffff16021790555060408201518160020155606082015181600301908051906020019061235d92919061260b565b50608082015181600401908051906020019061237a92919061260b565b5060a08201518160050160006101000a81548160ff02191690831515021790555060c08201518160050160016101000a81548160ff021916908360ff16021790555050506001600481905550600a604051806080016040528060008152602001600073ffffffffffffffffffffffffffffffffffffffff16815260200160008152602001600060ff1681525090806001815401808255809150506001900390600052602060002090600402016000909190919091506000820151816000015560208201518160010160006101000a81548173ffffffffffffffffffffffffffffffffffffffff021916908373ffffffffffffffffffffffffffffffffffffffff1602179055506040820151816002015560608201518160030160006101000a81548160ff021916908360ff16021790555050506001600581905550565b6000600982815481106124f3577f4e487b7100000000000000000000000000000000000000000000000000000000600052603260045260246000fd5b906000526020600020906006020190503373ffffffffffffffffffffffffffffffffffffffff168160010160009054906101000a900473ffffffffffffffffffffffffffffffffffffffff1673ffffffffffffffffffffffffffffffffffffffff1614612595576040517f08c379a000000000000000000000000000000000000000000000000000000000815260040161258c90612fa1565b60405180910390fd5b60018160050160016101000a81548160ff021916908360ff1602179055505050565b60016003546125c691906131d3565b811115612608576040517f08c379a00000000000000000000000000000000000000000000000000000000081526004016125ff90612fe1565b60405180910390fd5b50565b82805461261790613292565b90600052602060002090601f0160209004810192826126395760008555612680565b82601f1061265257805160ff1916838001178555612680565b82800160010185558215612680579182015b8281111561267f578251825591602001919060010190612664565b5b50905061268d9190612704565b5090565b604051806101600160405280600081526020016000815260200160008152602001600073ffffffffffffffffffffffffffffffffffffffff168152602001606081526020016060815260200160608152602001606081526020016000815260200160008152602001600060ff1681525090565b5b8082111561271d576000816000905550600101612705565b5090565b600061273461272f8461308d565b61305c565b90508281526020810184848401111561274c57600080fd5b612757848285613250565b509392505050565b60008135905061276e816133ab565b92915050565b600082601f83011261278557600080fd5b8135612795848260208601612721565b91505092915050565b6000813590506127ad816133c2565b92915050565b6000815190506127c2816133c2565b92915050565b6000602082840312156127da57600080fd5b60006127e88482850161275f565b91505092915050565b6000806000806080858703121561280757600080fd5b60006128158782880161275f565b94505060206128268782880161279e565b935050604085013567ffffffffffffffff81111561284357600080fd5b61284f87828801612774565b925050606085013567ffffffffffffffff81111561286c57600080fd5b61287887828801612774565b91505092959194509250565b60008060008060008060c0878903121561289d57600080fd5b600087013567ffffffffffffffff8111156128b757600080fd5b6128c389828a01612774565b965050602087013567ffffffffffffffff8111156128e057600080fd5b6128ec89828a01612774565b955050604087013567ffffffffffffffff81111561290957600080fd5b61291589828a01612774565b945050606087013567ffffffffffffffff81111561293257600080fd5b61293e89828a01612774565b935050608061294f89828a0161279e565b92505060a061296089828a0161279e565b9150509295509295509295565b60006020828403121561297f57600080fd5b600061298d8482850161279e565b91505092915050565b6000602082840312156129a857600080fd5b60006129b6848285016127b3565b91505092915050565b6000806000606084860312156129d457600080fd5b60006129e28682870161279e565b93505060206129f38682870161275f565b9250506040612a048682870161279e565b9150509250925092565b600080600080600080600060e0888a031215612a2957600080fd5b6000612a378a828b0161279e565b975050602088013567ffffffffffffffff811115612a5457600080fd5b612a608a828b01612774565b965050604088013567ffffffffffffffff811115612a7d57600080fd5b612a898a828b01612774565b955050606088013567ffffffffffffffff811115612aa657600080fd5b612ab28a828b01612774565b945050608088013567ffffffffffffffff811115612acf57600080fd5b612adb8a828b01612774565b93505060a0612aec8a828b0161279e565b92505060c0612afd8a828b0161279e565b91505092959891949750929550565b6000612b188383612df1565b905092915050565b612b2981613207565b82525050565b612b3881613207565b82525050565b6000612b49826130cd565b612b5381856130f0565b935083602082028501612b65856130bd565b8060005b85811015612ba15784840389528151612b828582612b0c565b9450612b8d836130e3565b925060208a01995050600181019050612b69565b50829750879550505050505092915050565b6000612bbe826130d8565b612bc88185613101565b9350612bd881856020860161325f565b612be18161339a565b840191505092915050565b6000612bf7826130d8565b612c018185613112565b9350612c1181856020860161325f565b612c1a8161339a565b840191505092915050565b6000612c32602383613112565b91507f6572726f725f6f6e6c795f70726f6a6563745f63726561746f725f63616e5f6560008301527f64697400000000000000000000000000000000000000000000000000000000006020830152604082019050919050565b6000612c98602783613112565b91507f6572726f725f6f6e6c795f6170706c69636174696f6e5f63726561746f725f6360008301527f616e5f65646974000000000000000000000000000000000000000000000000006020830152604082019050919050565b6000612cfe601583613112565b91507f6572726f725f70726f6a6563745f6578706972656400000000000000000000006000830152602082019050919050565b6000612d3e601c83613112565b91507f6572726f725f70726f6a6563745f646f65735f6e6f745f6578697374000000006000830152602082019050919050565b6000612d7e600083613112565b9150600082019050919050565b6000612d98602683613112565b91507f6572726f725f726f79616c746965735f6578636565645f746f74616c5f61766160008301527f696c61626c6500000000000000000000000000000000000000000000000000006020830152604082019050919050565b600061016083016000830151612e0a6000860182612ef5565b506020830151612e1d6020860182612ef5565b506040830151612e306040860182612ef5565b506060830151612e436060860182612b20565b5060808301518482036080860152612e5b8282612bb3565b91505060a083015184820360a0860152612e758282612bb3565b91505060c083015184820360c0860152612e8f8282612bb3565b91505060e083015184820360e0860152612ea98282612bb3565b915050610100830151612ec0610100860182612ef5565b50610120830151612ed5610120860182612ef5565b50610140830151612eea610140860182612f13565b508091505092915050565b612efe81613239565b82525050565b612f0d81613239565b82525050565b612f1c81613243565b82525050565b6000602082019050612f376000830184612b2f565b92915050565b60006020820190508181036000830152612f578184612b3e565b905092915050565b60006020820190508181036000830152612f798184612bec565b905092915050565b60006020820190508181036000830152612f9a81612c25565b9050919050565b60006020820190508181036000830152612fba81612c8b565b9050919050565b60006020820190508181036000830152612fda81612cf1565b9050919050565b60006020820190508181036000830152612ffa81612d31565b9050919050565b6000602082019050818103600083015261301a81612d71565b9050919050565b6000602082019050818103600083015261303a81612d8b565b9050919050565b60006020820190506130566000830184612f04565b92915050565b6000604051905081810181811067ffffffffffffffff821117156130835761308261336b565b5b8060405250919050565b600067ffffffffffffffff8211156130a8576130a761336b565b5b601f19601f8301169050602081019050919050565b6000819050602082019050919050565b600081519050919050565b600081519050919050565b6000602082019050919050565b600082825260208201905092915050565b600082825260208201905092915050565b600082825260208201905092915050565b600061312e82613239565b915061313983613239565b9250827fffffffffffffffffffffffffffffffffffffffffffffffffffffffffffffffff0382111561316e5761316d61330d565b5b828201905092915050565b600061318482613239565b915061318f83613239565b9250817fffffffffffffffffffffffffffffffffffffffffffffffffffffffffffffffff04831182151516156131c8576131c761330d565b5b828202905092915050565b60006131de82613239565b91506131e983613239565b9250828210156131fc576131fb61330d565b5b828203905092915050565b600061321282613219565b9050919050565b600073ffffffffffffffffffffffffffffffffffffffff82169050919050565b6000819050919050565b600060ff82169050919050565b82818337600083830152505050565b60005b8381101561327d578082015181840152602081019050613262565b8381111561328c576000848401525b50505050565b600060028204905060018216806132aa57607f821691505b602082108114156132be576132bd61333c565b5b50919050565b60006132cf82613239565b91507fffffffffffffffffffffffffffffffffffffffffffffffffffffffffffffffff8214156133025761330161330d565b5b600182019050919050565b7f4e487b7100000000000000000000000000000000000000000000000000000000600052601160045260246000fd5b7f4e487b7100000000000000000000000000000000000000000000000000000000600052602260045260246000fd5b7f4e487b7100000000000000000000000000000000000000000000000000000000600052604160045260246000fd5b6000601f19601f8301169050919050565b6133b481613207565b81146133bf57600080fd5b50565b6133cb81613239565b81146133d657600080fd5b5056fea26469706673582212203a8a1761d3554843a69e88df1712c7a2c59db54fb7f3165bc03b06f05101dec564736f6c63430008000033",
  "linkReferences": {},
  "deployedLinkReferences": {}
}