{
  "_format": "hh-sol-artifact-1",
  "contractName": "DevPipes",
  "sourceName": "contracts/DevPipes.sol",
  "abi": [
    {
      "anonymous": false,
      "inputs": [
        {
          "indexed": true,
          "internalType": "address",
          "name": "_creator",
          "type": "address"
        },
        {
          "indexed": false,
          "internalType": "uint256",
          "name": "_id",
          "type": "uint256"
        }
      ],
      "name": "ProjectCreated",
      "type": "event"
    },
    {
      "anonymous": false,
      "inputs": [
        {
          "indexed": true,
          "internalType": "address",
          "name": "_editor",
          "type": "address"
        },
        {
          "indexed": true,
          "internalType": "uint256",
          "name": "_id",
          "type": "uint256"
        }
      ],
      "name": "ProjectEdited",
      "type": "event"
    },
    {
      "anonymous": false,
      "inputs": [
        {
          "indexed": true,
          "internalType": "uint256",
          "name": "_id",
          "type": "uint256"
        }
      ],
      "name": "ProjectPublished",
      "type": "event"
    },
    {
      "anonymous": false,
      "inputs": [
        {
          "indexed": true,
          "internalType": "address",
          "name": "_creator",
          "type": "address"
        },
        {
          "indexed": true,
          "internalType": "uint256",
          "name": "_id",
          "type": "uint256"
        },
        {
          "indexed": true,
          "internalType": "uint256",
          "name": "rootId",
          "type": "uint256"
        },
        {
          "indexed": false,
          "internalType": "uint256",
          "name": "parentId",
          "type": "uint256"
        }
      ],
      "name": "SubProjectCreated",
      "type": "event"
    },
    {
      "inputs": [
        {
          "internalType": "uint256",
          "name": "projectId",
          "type": "uint256"
        },
        {
          "internalType": "address",
          "name": "user",
          "type": "address"
        },
        {
          "internalType": "uint256",
          "name": "amount",
          "type": "uint256"
        }
      ],
      "name": "addRoyalty",
      "outputs": [],
      "stateMutability": "nonpayable",
      "type": "function"
    },
    {
      "inputs": [],
      "name": "applicationIndex",
      "outputs": [
        {
          "internalType": "uint256",
          "name": "",
          "type": "uint256"
        }
      ],
      "stateMutability": "view",
      "type": "function"
    },
    {
      "inputs": [
        {
          "internalType": "uint256",
          "name": "",
          "type": "uint256"
        }
      ],
      "name": "applications",
      "outputs": [
        {
          "internalType": "uint256",
          "name": "id",
          "type": "uint256"
        },
        {
          "internalType": "address",
          "name": "applicant",
          "type": "address"
        },
        {
          "internalType": "uint256",
          "name": "projectID",
          "type": "uint256"
        },
        {
          "internalType": "string",
          "name": "details1",
          "type": "string"
        },
        {
          "internalType": "string",
          "name": "details2",
          "type": "string"
        },
        {
          "internalType": "bool",
          "name": "accepted",
          "type": "bool"
        },
        {
          "internalType": "uint8",
          "name": "status",
          "type": "uint8"
        }
      ],
      "stateMutability": "view",
      "type": "function"
    },
    {
      "inputs": [
        {
          "internalType": "address",
          "name": "applicant",
          "type": "address"
        },
        {
          "internalType": "uint256",
          "name": "projectId",
          "type": "uint256"
        },
        {
          "internalType": "string",
          "name": "details1",
          "type": "string"
        },
        {
          "internalType": "string",
          "name": "details2",
          "type": "string"
        }
      ],
      "name": "applyForProject",
      "outputs": [],
      "stateMutability": "nonpayable",
      "type": "function"
    },
    {
      "inputs": [],
      "name": "balance",
      "outputs": [
        {
          "internalType": "uint256",
          "name": "",
          "type": "uint256"
        }
      ],
      "stateMutability": "view",
      "type": "function"
    },
    {
      "inputs": [
        {
          "internalType": "string",
          "name": "projectName",
          "type": "string"
        },
        {
          "internalType": "string",
          "name": "description",
          "type": "string"
        },
        {
          "internalType": "string",
          "name": "uri",
          "type": "string"
        },
        {
          "internalType": "string",
          "name": "tags",
          "type": "string"
        },
        {
          "internalType": "uint256",
          "name": "dueDate",
          "type": "uint256"
        },
        {
          "internalType": "uint256",
          "name": "budget",
          "type": "uint256"
        }
      ],
      "name": "createProject",
      "outputs": [],
      "stateMutability": "nonpayable",
      "type": "function"
    },
    {
      "inputs": [
        {
          "internalType": "uint256",
          "name": "parentId",
          "type": "uint256"
        },
        {
          "internalType": "string",
          "name": "projectName",
          "type": "string"
        },
        {
          "internalType": "string",
          "name": "description",
          "type": "string"
        },
        {
          "internalType": "string",
          "name": "uri",
          "type": "string"
        },
        {
          "internalType": "string",
          "name": "tags",
          "type": "string"
        },
        {
          "internalType": "uint256",
          "name": "dueDate",
          "type": "uint256"
        },
        {
          "internalType": "uint256",
          "name": "budget",
          "type": "uint256"
        }
      ],
      "name": "createSubProject",
      "outputs": [],
      "stateMutability": "nonpayable",
      "type": "function"
    },
    {
      "inputs": [
        {
          "internalType": "uint256",
          "name": "projectId",
          "type": "uint256"
        },
        {
          "internalType": "string",
          "name": "projectName",
          "type": "string"
        },
        {
          "internalType": "string",
          "name": "description",
          "type": "string"
        },
        {
          "internalType": "string",
          "name": "uri",
          "type": "string"
        },
        {
          "internalType": "string",
          "name": "tags",
          "type": "string"
        },
        {
          "internalType": "uint256",
          "name": "dueDate",
          "type": "uint256"
        },
        {
          "internalType": "uint256",
          "name": "budget",
          "type": "uint256"
        }
      ],
      "name": "editProject",
      "outputs": [],
      "stateMutability": "nonpayable",
      "type": "function"
    },
    {
      "inputs": [],
      "name": "getAllProjects",
      "outputs": [
        {
          "components": [
            {
              "internalType": "uint256",
              "name": "id",
              "type": "uint256"
            },
            {
              "internalType": "uint256",
              "name": "parentId",
              "type": "uint256"
            },
            {
              "internalType": "uint256",
              "name": "rootId",
              "type": "uint256"
            },
            {
              "internalType": "address",
              "name": "creator",
              "type": "address"
            },
            {
              "internalType": "string",
              "name": "name",
              "type": "string"
            },
            {
              "internalType": "string",
              "name": "description",
              "type": "string"
            },
            {
              "internalType": "string",
              "name": "uri",
              "type": "string"
            },
            {
              "internalType": "string",
              "name": "tags",
              "type": "string"
            },
            {
              "internalType": "uint256",
              "name": "dueDate",
              "type": "uint256"
            },
            {
              "internalType": "uint256",
              "name": "budget",
              "type": "uint256"
            },
            {
              "internalType": "uint8",
              "name": "status",
              "type": "uint8"
            }
          ],
          "internalType": "struct DevPipes.Project[]",
          "name": "",
          "type": "tuple[]"
        }
      ],
      "stateMutability": "view",
      "type": "function"
    },
    {
      "inputs": [
        {
          "internalType": "address",
          "name": "user",
          "type": "address"
        }
      ],
      "name": "getProjectIdsForUser",
      "outputs": [
        {
          "internalType": "uint256[]",
          "name": "",
          "type": "uint256[]"
        }
      ],
      "stateMutability": "view",
      "type": "function"
    },
    {
      "inputs": [
        {
          "internalType": "address",
          "name": "user",
          "type": "address"
        }
      ],
      "name": "getProjectsForUser",
      "outputs": [
        {
          "components": [
            {
              "internalType": "uint256",
              "name": "id",
              "type": "uint256"
            },
            {
              "internalType": "uint256",
              "name": "parentId",
              "type": "uint256"
            },
            {
              "internalType": "uint256",
              "name": "rootId",
              "type": "uint256"
            },
            {
              "internalType": "address",
              "name": "creator",
              "type": "address"
            },
            {
              "internalType": "string",
              "name": "name",
              "type": "string"
            },
            {
              "internalType": "string",
              "name": "description",
              "type": "string"
            },
            {
              "internalType": "string",
              "name": "uri",
              "type": "string"
            },
            {
              "internalType": "string",
              "name": "tags",
              "type": "string"
            },
            {
              "internalType": "uint256",
              "name": "dueDate",
              "type": "uint256"
            },
            {
              "internalType": "uint256",
              "name": "budget",
              "type": "uint256"
            },
            {
              "internalType": "uint8",
              "name": "status",
              "type": "uint8"
            }
          ],
          "internalType": "struct DevPipes.Project[]",
          "name": "",
          "type": "tuple[]"
        }
      ],
      "stateMutability": "view",
      "type": "function"
    },
    {
      "inputs": [
        {
          "internalType": "uint256",
          "name": "projectId",
          "type": "uint256"
        }
      ],
      "name": "getRoyaltiesTotal",
      "outputs": [
        {
          "internalType": "uint256",
          "name": "",
          "type": "uint256"
        }
      ],
      "stateMutability": "view",
      "type": "function"
    },
    {
      "inputs": [
        {
          "internalType": "address",
          "name": "_trustedForwarder",
          "type": "address"
        }
      ],
      "name": "init",
      "outputs": [],
      "stateMutability": "nonpayable",
      "type": "function"
    },
    {
      "inputs": [
        {
          "internalType": "address",
          "name": "forwarder",
          "type": "address"
        }
      ],
      "name": "isTrustedForwarder",
      "outputs": [
        {
          "internalType": "bool",
          "name": "",
          "type": "bool"
        }
      ],
      "stateMutability": "view",
      "type": "function"
    },
    {
      "inputs": [],
      "name": "name",
      "outputs": [
        {
          "internalType": "string",
          "name": "",
          "type": "string"
        }
      ],
      "stateMutability": "view",
      "type": "function"
    },
    {
      "inputs": [],
      "name": "owner",
      "outputs": [
        {
          "internalType": "address",
          "name": "",
          "type": "address"
        }
      ],
      "stateMutability": "view",
      "type": "function"
    },
    {
      "inputs": [],
      "name": "paymentsIndex",
      "outputs": [
        {
          "internalType": "uint256",
          "name": "",
          "type": "uint256"
        }
      ],
      "stateMutability": "view",
      "type": "function"
    },
    {
      "inputs": [
        {
          "internalType": "uint256",
          "name": "",
          "type": "uint256"
        },
        {
          "internalType": "uint256",
          "name": "",
          "type": "uint256"
        }
      ],
      "name": "projectApplications",
      "outputs": [
        {
          "internalType": "uint256",
          "name": "",
          "type": "uint256"
        }
      ],
      "stateMutability": "view",
      "type": "function"
    },
    {
      "inputs": [],
      "name": "projectIndex",
      "outputs": [
        {
          "internalType": "uint256",
          "name": "",
          "type": "uint256"
        }
      ],
      "stateMutability": "view",
      "type": "function"
    },
    {
      "inputs": [
        {
          "internalType": "uint256",
          "name": "",
          "type": "uint256"
        },
        {
          "internalType": "uint256",
          "name": "",
          "type": "uint256"
        }
      ],
      "name": "projectRoyalties",
      "outputs": [
        {
          "internalType": "uint256",
          "name": "",
          "type": "uint256"
        }
      ],
      "stateMutability": "view",
      "type": "function"
    },
    {
      "inputs": [
        {
          "internalType": "uint256",
          "name": "",
          "type": "uint256"
        }
      ],
      "name": "projects",
      "outputs": [
        {
          "internalType": "uint256",
          "name": "id",
          "type": "uint256"
        },
        {
          "internalType": "uint256",
          "name": "parentId",
          "type": "uint256"
        },
        {
          "internalType": "uint256",
          "name": "rootId",
          "type": "uint256"
        },
        {
          "internalType": "address",
          "name": "creator",
          "type": "address"
        },
        {
          "internalType": "string",
          "name": "name",
          "type": "string"
        },
        {
          "internalType": "string",
          "name": "description",
          "type": "string"
        },
        {
          "internalType": "string",
          "name": "uri",
          "type": "string"
        },
        {
          "internalType": "string",
          "name": "tags",
          "type": "string"
        },
        {
          "internalType": "uint256",
          "name": "dueDate",
          "type": "uint256"
        },
        {
          "internalType": "uint256",
          "name": "budget",
          "type": "uint256"
        },
        {
          "internalType": "uint8",
          "name": "status",
          "type": "uint8"
        }
      ],
      "stateMutability": "view",
      "type": "function"
    },
    {
      "inputs": [
        {
          "internalType": "uint256",
          "name": "projectId",
          "type": "uint256"
        }
      ],
      "name": "publish",
      "outputs": [],
      "stateMutability": "nonpayable",
      "type": "function"
    },
    {
      "inputs": [
        {
          "internalType": "uint256",
          "name": "",
          "type": "uint256"
        }
      ],
      "name": "royalties",
      "outputs": [
        {
          "internalType": "uint256",
          "name": "id",
          "type": "uint256"
        },
        {
          "internalType": "address",
          "name": "user",
          "type": "address"
        },
        {
          "internalType": "uint256",
          "name": "amount",
          "type": "uint256"
        },
        {
          "internalType": "uint8",
          "name": "status",
          "type": "uint8"
        }
      ],
      "stateMutability": "view",
      "type": "function"
    },
    {
      "inputs": [
        {
          "internalType": "uint256",
          "name": "",
          "type": "uint256"
        },
        {
          "internalType": "uint256",
          "name": "",
          "type": "uint256"
        }
      ],
      "name": "subProjects",
      "outputs": [
        {
          "internalType": "uint256",
          "name": "",
          "type": "uint256"
        }
      ],
      "stateMutability": "view",
      "type": "function"
    },
    {
      "inputs": [],
      "name": "symbol",
      "outputs": [
        {
          "internalType": "string",
          "name": "",
          "type": "string"
        }
      ],
      "stateMutability": "view",
      "type": "function"
    },
    {
      "inputs": [],
      "name": "trustedForwarder",
      "outputs": [
        {
          "internalType": "address",
          "name": "",
          "type": "address"
        }
      ],
      "stateMutability": "view",
      "type": "function"
    },
    {
      "inputs": [
        {
          "internalType": "address",
          "name": "",
          "type": "address"
        },
        {
          "internalType": "uint256",
          "name": "",
          "type": "uint256"
        }
      ],
      "name": "userProjects",
      "outputs": [
        {
          "internalType": "uint256",
          "name": "",
          "type": "uint256"
        }
      ],
      "stateMutability": "view",
      "type": "function"
    },
    {
      "inputs": [],
      "name": "versionRecipient",
      "outputs": [
        {
          "internalType": "string",
          "name": "",
          "type": "string"
        }
      ],
      "stateMutability": "view",
      "type": "function"
    },
    {
      "inputs": [
        {
          "internalType": "uint256",
          "name": "applicationId",
          "type": "uint256"
        }
      ],
      "name": "withdrawApplication",
      "outputs": [],
      "stateMutability": "nonpayable",
      "type": "function"
    }
  ],
  "bytecode": "0x608060405234801561001057600080fd5b5061474f806100206000396000f3fe608060405234801561001057600080fd5b50600436106101cf5760003560e01c8063712747341161010457806391b87f23116100a2578063cc4ef11911610071578063cc4ef11914610579578063dfefadff14610595578063ea26d237146105cb578063f1d5314a146105e7576101cf565b806391b87f23146104f157806395d89b411461050d578063b34e8bf51461052b578063b69ef8a81461055b576101cf565b80637f77f574116100de5780637f77f5741461046457806380d038291461049757806386d14476146104b55780638da5cb5b146104d3576101cf565b806371274734146103fa57806374411d52146104165780637da0a87714610446576101cf565b806320fcd0dd116101715780632fa9c0071161014b5780632fa9c0071461035e578063486ff0cd1461038e578063572b6c05146103ac57806363184726146103dc576101cf565b806320fcd0dd146102ce578063223153fa146102fe5780632b168ee41461032e576101cf565b8063107046bd116101ad578063107046bd1461023e57806315ecdbf31461027857806316dcb2901461029657806319ab453c146102b2576101cf565b8063012865a4146101d457806306fdde03146101f05780630792ce3f1461020e575b600080fd5b6101ee60048036038101906101e99190613800565b610603565b005b6101f8610896565b6040516102059190613f26565b60405180910390f35b61022860048036038101906102239190613abc565b610924565b6040516102359190614008565b60405180910390f35b610258600480360381019061025391906138fd565b610955565b60405161026f9b9a999897969594939291906140e5565b60405180910390f35b610280610c0c565b60405161028d9190614008565b60405180910390f35b6102b060048036038101906102ab9190613761565b610c12565b005b6102cc60048036038101906102c791906136f4565b611195565b005b6102e860048036038101906102e391906138fd565b61173a565b6040516102f59190614008565b60405180910390f35b610318600480360381019061031391906136f4565b611884565b6040516103259190613ec7565b60405180910390f35b61034860048036038101906103439190613abc565b611ce8565b6040516103559190614008565b60405180910390f35b61037860048036038101906103739190613721565b611d19565b6040516103859190614008565b60405180910390f35b610396611d4a565b6040516103a39190613f26565b60405180910390f35b6103c660048036038101906103c191906136f4565b611d87565b6040516103d39190613f0b565b60405180910390f35b6103e4611de0565b6040516103f19190614008565b60405180910390f35b610414600480360381019061040f91906139aa565b611de6565b005b610430600480360381019061042b9190613abc565b6123f6565b60405161043d9190614008565b60405180910390f35b61044e612427565b60405161045b9190613eac565b60405180910390f35b61047e600480360381019061047991906138fd565b612450565b60405161048e94939291906140a0565b60405180910390f35b61049f6124bd565b6040516104ac9190613ec7565b60405180910390f35b6104bd61280a565b6040516104ca9190614008565b60405180910390f35b6104db612810565b6040516104e89190613eac565b60405180910390f35b61050b60048036038101906105069190613957565b612836565b005b610515612e04565b6040516105229190613f26565b60405180910390f35b610545600480360381019061054091906136f4565b612e92565b6040516105529190613ee9565b60405180910390f35b610563612f29565b6040516105709190614008565b60405180910390f35b610593600480360381019061058e91906138fd565b612f2f565b005b6105af60048036038101906105aa91906138fd565b61304c565b6040516105c29796959493929190614023565b60405180910390f35b6105e560048036038101906105e091906139aa565b6131e8565b005b61060160048036038101906105fc91906138fd565b61337a565b005b600061060d613461565b90506000604051806101600160405280600454815260200160008152602001600081526020018373ffffffffffffffffffffffffffffffffffffffff168152602001898152602001888152602001878152602001868152602001858152602001848152602001600060ff16815250905060088190806001815401808255809150506001900390600052602060002090600b020160009091909190915060008201518160000155602082015181600101556040820151816002015560608201518160030160006101000a81548173ffffffffffffffffffffffffffffffffffffffff021916908373ffffffffffffffffffffffffffffffffffffffff160217905550608082015181600401908051906020019061072a92919061352f565b5060a082015181600501908051906020019061074792919061352f565b5060c082015181600601908051906020019061076492919061352f565b5060e082015181600701908051906020019061078192919061352f565b506101008201518160080155610120820151816009015561014082015181600a0160006101000a81548160ff021916908360ff1602179055505050600c60008373ffffffffffffffffffffffffffffffffffffffff1673ffffffffffffffffffffffffffffffffffffffff16815260200190815260200160002060045490806001815401808255809150506001900390600052602060002001600090919091909150558173ffffffffffffffffffffffffffffffffffffffff167f20bfd29f3d906f96fc35742fac45a554b19cbd4e21f8c4c1d84cb58fdfc32c8960045460405161086c9190614008565b60405180910390a2600460008154809291906108879061447f565b91905055505050505050505050565b600180546108a39061441c565b80601f01602080910402602001604051908101604052809291908181526020018280546108cf9061441c565b801561091c5780601f106108f15761010080835404028352916020019161091c565b820191906000526020600020905b8154815290600101906020018083116108ff57829003601f168201915b505050505081565b6009602052816000526040600020818154811061094057600080fd5b90600052602060002001600091509150505481565b6008818154811061096557600080fd5b90600052602060002090600b02016000915090508060000154908060010154908060020154908060030160009054906101000a900473ffffffffffffffffffffffffffffffffffffffff16908060040180546109c09061441c565b80601f01602080910402602001604051908101604052809291908181526020018280546109ec9061441c565b8015610a395780601f10610a0e57610100808354040283529160200191610a39565b820191906000526020600020905b815481529060010190602001808311610a1c57829003601f168201915b505050505090806005018054610a4e9061441c565b80601f0160208091040260200160405190810160405280929190818152602001828054610a7a9061441c565b8015610ac75780601f10610a9c57610100808354040283529160200191610ac7565b820191906000526020600020905b815481529060010190602001808311610aaa57829003601f168201915b505050505090806006018054610adc9061441c565b80601f0160208091040260200160405190810160405280929190818152602001828054610b089061441c565b8015610b555780601f10610b2a57610100808354040283529160200191610b55565b820191906000526020600020905b815481529060010190602001808311610b3857829003601f168201915b505050505090806007018054610b6a9061441c565b80601f0160208091040260200160405190810160405280929190818152602001828054610b969061441c565b8015610be35780601f10610bb857610100808354040283529160200191610be3565b820191906000526020600020905b815481529060010190602001808311610bc657829003601f168201915b50505050509080600801549080600901549080600a0160009054906101000a900460ff1690508b565b60065481565b610c1b83613498565b600060088481548110610c3157610c30614526565b5b90600052602060002090600b0201604051806101600160405290816000820154815260200160018201548152602001600282015481526020016003820160009054906101000a900473ffffffffffffffffffffffffffffffffffffffff1673ffffffffffffffffffffffffffffffffffffffff1673ffffffffffffffffffffffffffffffffffffffff168152602001600482018054610ccf9061441c565b80601f0160208091040260200160405190810160405280929190818152602001828054610cfb9061441c565b8015610d485780601f10610d1d57610100808354040283529160200191610d48565b820191906000526020600020905b815481529060010190602001808311610d2b57829003601f168201915b50505050508152602001600582018054610d619061441c565b80601f0160208091040260200160405190810160405280929190818152602001828054610d8d9061441c565b8015610dda5780601f10610daf57610100808354040283529160200191610dda565b820191906000526020600020905b815481529060010190602001808311610dbd57829003601f168201915b50505050508152602001600682018054610df39061441c565b80601f0160208091040260200160405190810160405280929190818152602001828054610e1f9061441c565b8015610e6c5780601f10610e4157610100808354040283529160200191610e6c565b820191906000526020600020905b815481529060010190602001808311610e4f57829003601f168201915b50505050508152602001600782018054610e859061441c565b80601f0160208091040260200160405190810160405280929190818152602001828054610eb19061441c565b8015610efe5780601f10610ed357610100808354040283529160200191610efe565b820191906000526020600020905b815481529060010190602001808311610ee157829003601f168201915b505050505081526020016008820154815260200160098201548152602001600a820160009054906101000a900460ff1660ff1660ff1681525050905060006103e842610f4a91906142f7565b90508161010001518110610f93576040517f08c379a0000000000000000000000000000000000000000000000000000000008152600401610f8a90613f88565b60405180910390fd5b600082610140015160ff1611610fde576040517f08c379a0000000000000000000000000000000000000000000000000000000008152600401610fd590613fc8565b60405180910390fd5b60006040518060e0016040528060055481526020018873ffffffffffffffffffffffffffffffffffffffff168152602001878152602001868152602001858152602001600015158152602001600060ff168152509050600a8190806001815401808255809150506001900390600052602060002090600602016000909190919091506000820151816000015560208201518160010160006101000a81548173ffffffffffffffffffffffffffffffffffffffff021916908373ffffffffffffffffffffffffffffffffffffffff1602179055506040820151816002015560608201518160030190805190602001906110d792919061352f565b5060808201518160040190805190602001906110f492919061352f565b5060a08201518160050160006101000a81548160ff02191690831515021790555060c08201518160050160016101000a81548160ff021916908360ff1602179055505050600e60008781526020019081526020016000206005549080600181540180825580915050600190039060005260206000200160009091909190915055600560008154809291906111879061447f565b919050555050505050505050565b600073ffffffffffffffffffffffffffffffffffffffff16600760009054906101000a900473ffffffffffffffffffffffffffffffffffffffff1673ffffffffffffffffffffffffffffffffffffffff161415611737576111f5816134ec565b6111fd613461565b600760006101000a81548173ffffffffffffffffffffffffffffffffffffffff021916908373ffffffffffffffffffffffffffffffffffffffff1602179055506040518060400160405280600981526020017f44657620506970657300000000000000000000000000000000000000000000008152506001908051906020019061128892919061352f565b506040518060400160405280600581526020017f5049504553000000000000000000000000000000000000000000000000000000815250600290805190602001906112d492919061352f565b5060006003819055506008604051806101600160405280600081526020016000815260200160008152602001600073ffffffffffffffffffffffffffffffffffffffff1681526020016040518060200160405280600081525081526020016040518060200160405280600081525081526020016040518060200160405280600081525081526020016040518060200160405280600081525081526020016000815260200160008152602001600060ff1681525090806001815401808255809150506001900390600052602060002090600b020160009091909190915060008201518160000155602082015181600101556040820151816002015560608201518160030160006101000a81548173ffffffffffffffffffffffffffffffffffffffff021916908373ffffffffffffffffffffffffffffffffffffffff160217905550608082015181600401908051906020019061143192919061352f565b5060a082015181600501908051906020019061144e92919061352f565b5060c082015181600601908051906020019061146b92919061352f565b5060e082015181600701908051906020019061148892919061352f565b506101008201518160080155610120820151816009015561014082015181600a0160006101000a81548160ff021916908360ff16021790555050506001600481905550600a6040518060e0016040528060008152602001600073ffffffffffffffffffffffffffffffffffffffff16815260200160008152602001604051806020016040528060008152508152602001604051806020016040528060008152508152602001600015158152602001600060ff1681525090806001815401808255809150506001900390600052602060002090600602016000909190919091506000820151816000015560208201518160010160006101000a81548173ffffffffffffffffffffffffffffffffffffffff021916908373ffffffffffffffffffffffffffffffffffffffff1602179055506040820151816002015560608201518160030190805190602001906115de92919061352f565b5060808201518160040190805190602001906115fb92919061352f565b5060a08201518160050160006101000a81548160ff02191690831515021790555060c08201518160050160016101000a81548160ff021916908360ff16021790555050506001600581905550600b604051806080016040528060008152602001600073ffffffffffffffffffffffffffffffffffffffff16815260200160008152602001600060ff1681525090806001815401808255809150506001900390600052602060002090600402016000909190919091506000820151816000015560208201518160010160006101000a81548173ffffffffffffffffffffffffffffffffffffffff021916908373ffffffffffffffffffffffffffffffffffffffff1602179055506040820151816002015560608201518160030160006101000a81548160ff021916908360ff160217905550505060016006819055505b50565b600061174582613498565b6000805b600d60008581526020019081526020016000208054905081101561187a576000600d6000868152602001908152602001600020828154811061178e5761178d614526565b5b906000526020600020015490506000600b82815481106117b1576117b0614526565b5b9060005260206000209060040201604051806080016040529081600082015481526020016001820160009054906101000a900473ffffffffffffffffffffffffffffffffffffffff1673ffffffffffffffffffffffffffffffffffffffff1673ffffffffffffffffffffffffffffffffffffffff168152602001600282015481526020016003820160009054906101000a900460ff1660ff1660ff1681525050905080604001518461186391906142a1565b9350505080806118729061447f565b915050611749565b5080915050919050565b60606000600c60008473ffffffffffffffffffffffffffffffffffffffff1673ffffffffffffffffffffffffffffffffffffffff16815260200190815260200160002080549050905060008167ffffffffffffffff8111156118e9576118e8614555565b5b60405190808252806020026020018201604052801561192257816020015b61190f6135b5565b8152602001906001900390816119075790505b50905060005b82811015611cdd576000600c60008773ffffffffffffffffffffffffffffffffffffffff1673ffffffffffffffffffffffffffffffffffffffff168152602001908152602001600020828154811061198357611982614526565b5b90600052602060002001549050600881815481106119a4576119a3614526565b5b90600052602060002090600b0201604051806101600160405290816000820154815260200160018201548152602001600282015481526020016003820160009054906101000a900473ffffffffffffffffffffffffffffffffffffffff1673ffffffffffffffffffffffffffffffffffffffff1673ffffffffffffffffffffffffffffffffffffffff168152602001600482018054611a429061441c565b80601f0160208091040260200160405190810160405280929190818152602001828054611a6e9061441c565b8015611abb5780601f10611a9057610100808354040283529160200191611abb565b820191906000526020600020905b815481529060010190602001808311611a9e57829003601f168201915b50505050508152602001600582018054611ad49061441c565b80601f0160208091040260200160405190810160405280929190818152602001828054611b009061441c565b8015611b4d5780601f10611b2257610100808354040283529160200191611b4d565b820191906000526020600020905b815481529060010190602001808311611b3057829003601f168201915b50505050508152602001600682018054611b669061441c565b80601f0160208091040260200160405190810160405280929190818152602001828054611b929061441c565b8015611bdf5780601f10611bb457610100808354040283529160200191611bdf565b820191906000526020600020905b815481529060010190602001808311611bc257829003601f168201915b50505050508152602001600782018054611bf89061441c565b80601f0160208091040260200160405190810160405280929190818152602001828054611c249061441c565b8015611c715780601f10611c4657610100808354040283529160200191611c71565b820191906000526020600020905b815481529060010190602001808311611c5457829003601f168201915b505050505081526020016008820154815260200160098201548152602001600a820160009054906101000a900460ff1660ff1660ff1681525050838381518110611cbe57611cbd614526565b5b6020026020010181905250508080611cd59061447f565b915050611928565b508092505050919050565b600e6020528160005260406000208181548110611d0457600080fd5b90600052602060002001600091509150505481565b600c6020528160005260406000208181548110611d3557600080fd5b90600052602060002001600091509150505481565b60606040518060400160405280600181526020017f3100000000000000000000000000000000000000000000000000000000000000815250905090565b60008060009054906101000a900473ffffffffffffffffffffffffffffffffffffffff1673ffffffffffffffffffffffffffffffffffffffff168273ffffffffffffffffffffffffffffffffffffffff16149050919050565b60045481565b6000611df0613461565b9050611dfb88613498565b600060088981548110611e1157611e10614526565b5b90600052602060002090600b0201604051806101600160405290816000820154815260200160018201548152602001600282015481526020016003820160009054906101000a900473ffffffffffffffffffffffffffffffffffffffff1673ffffffffffffffffffffffffffffffffffffffff1673ffffffffffffffffffffffffffffffffffffffff168152602001600482018054611eaf9061441c565b80601f0160208091040260200160405190810160405280929190818152602001828054611edb9061441c565b8015611f285780601f10611efd57610100808354040283529160200191611f28565b820191906000526020600020905b815481529060010190602001808311611f0b57829003601f168201915b50505050508152602001600582018054611f419061441c565b80601f0160208091040260200160405190810160405280929190818152602001828054611f6d9061441c565b8015611fba5780601f10611f8f57610100808354040283529160200191611fba565b820191906000526020600020905b815481529060010190602001808311611f9d57829003601f168201915b50505050508152602001600682018054611fd39061441c565b80601f0160208091040260200160405190810160405280929190818152602001828054611fff9061441c565b801561204c5780601f106120215761010080835404028352916020019161204c565b820191906000526020600020905b81548152906001019060200180831161202f57829003601f168201915b505050505081526020016007820180546120659061441c565b80601f01602080910402602001604051908101604052809291908181526020018280546120919061441c565b80156120de5780601f106120b3576101008083540402835291602001916120de565b820191906000526020600020905b8154815290600101906020018083116120c157829003601f168201915b505050505081526020016008820154815260200160098201548152602001600a820160009054906101000a900460ff1660ff1660ff168152505090506000816040015190506000811415612130578990505b600060405180610160016040528060045481526020018c81526020018381526020018573ffffffffffffffffffffffffffffffffffffffff1681526020018b81526020018a8152602001898152602001888152602001878152602001868152602001600060ff16815250905060088190806001815401808255809150506001900390600052602060002090600b020160009091909190915060008201518160000155602082015181600101556040820151816002015560608201518160030160006101000a81548173ffffffffffffffffffffffffffffffffffffffff021916908373ffffffffffffffffffffffffffffffffffffffff160217905550608082015181600401908051906020019061224992919061352f565b5060a082015181600501908051906020019061226692919061352f565b5060c082015181600601908051906020019061228392919061352f565b5060e08201518160070190805190602001906122a092919061352f565b506101008201518160080155610120820151816009015561014082015181600a0160006101000a81548160ff021916908360ff1602179055505050600960008381526020019081526020016000206004549080600181540180825580915050600190039060005260206000200160009091909190915055600c60008573ffffffffffffffffffffffffffffffffffffffff1673ffffffffffffffffffffffffffffffffffffffff1681526020019081526020016000206004549080600181540180825580915050600190039060005260206000200160009091909190915055816004548573ffffffffffffffffffffffffffffffffffffffff167f4d40d1fb28affc753199879d1cc354044eb4beea112f2c29382d5eb966ca06c08e6040516123c99190614008565b60405180910390a4600460008154809291906123e49061447f565b91905055505050505050505050505050565b600d602052816000526040600020818154811061241257600080fd5b90600052602060002001600091509150505481565b60008060009054906101000a900473ffffffffffffffffffffffffffffffffffffffff16905090565b600b818154811061246057600080fd5b90600052602060002090600402016000915090508060000154908060010160009054906101000a900473ffffffffffffffffffffffffffffffffffffffff16908060020154908060030160009054906101000a900460ff16905084565b60606008805480602002602001604051908101604052809291908181526020016000905b8282101561280157838290600052602060002090600b0201604051806101600160405290816000820154815260200160018201548152602001600282015481526020016003820160009054906101000a900473ffffffffffffffffffffffffffffffffffffffff1673ffffffffffffffffffffffffffffffffffffffff1673ffffffffffffffffffffffffffffffffffffffff1681526020016004820180546125899061441c565b80601f01602080910402602001604051908101604052809291908181526020018280546125b59061441c565b80156126025780601f106125d757610100808354040283529160200191612602565b820191906000526020600020905b8154815290600101906020018083116125e557829003601f168201915b5050505050815260200160058201805461261b9061441c565b80601f01602080910402602001604051908101604052809291908181526020018280546126479061441c565b80156126945780601f1061266957610100808354040283529160200191612694565b820191906000526020600020905b81548152906001019060200180831161267757829003601f168201915b505050505081526020016006820180546126ad9061441c565b80601f01602080910402602001604051908101604052809291908181526020018280546126d99061441c565b80156127265780601f106126fb57610100808354040283529160200191612726565b820191906000526020600020905b81548152906001019060200180831161270957829003601f168201915b5050505050815260200160078201805461273f9061441c565b80601f016020809104026020016040519081016040528092919081815260200182805461276b9061441c565b80156127b85780601f1061278d576101008083540402835291602001916127b8565b820191906000526020600020905b81548152906001019060200180831161279b57829003601f168201915b505050505081526020016008820154815260200160098201548152602001600a820160009054906101000a900460ff1660ff1660ff1681525050815260200190600101906124e1565b50505050905090565b60055481565b600760009054906101000a900473ffffffffffffffffffffffffffffffffffffffff1681565b6000612840613461565b905061284b84613498565b60006008858154811061286157612860614526565b5b90600052602060002090600b0201604051806101600160405290816000820154815260200160018201548152602001600282015481526020016003820160009054906101000a900473ffffffffffffffffffffffffffffffffffffffff1673ffffffffffffffffffffffffffffffffffffffff1673ffffffffffffffffffffffffffffffffffffffff1681526020016004820180546128ff9061441c565b80601f016020809104026020016040519081016040528092919081815260200182805461292b9061441c565b80156129785780601f1061294d57610100808354040283529160200191612978565b820191906000526020600020905b81548152906001019060200180831161295b57829003601f168201915b505050505081526020016005820180546129919061441c565b80601f01602080910402602001604051908101604052809291908181526020018280546129bd9061441c565b8015612a0a5780601f106129df57610100808354040283529160200191612a0a565b820191906000526020600020905b8154815290600101906020018083116129ed57829003601f168201915b50505050508152602001600682018054612a239061441c565b80601f0160208091040260200160405190810160405280929190818152602001828054612a4f9061441c565b8015612a9c5780601f10612a7157610100808354040283529160200191612a9c565b820191906000526020600020905b815481529060010190602001808311612a7f57829003601f168201915b50505050508152602001600782018054612ab59061441c565b80601f0160208091040260200160405190810160405280929190818152602001828054612ae19061441c565b8015612b2e5780601f10612b0357610100808354040283529160200191612b2e565b820191906000526020600020905b815481529060010190602001808311612b1157829003601f168201915b505050505081526020016008820154815260200160098201548152602001600a820160009054906101000a900460ff1660ff1660ff168152505090508173ffffffffffffffffffffffffffffffffffffffff16816060015173ffffffffffffffffffffffffffffffffffffffff1614612bdc576040517f08c379a0000000000000000000000000000000000000000000000000000000008152600401612bd390613f48565b60405180910390fd5b60003073ffffffffffffffffffffffffffffffffffffffff166320fcd0dd876040518263ffffffff1660e01b8152600401612c179190614008565b60206040518083038186803b158015612c2f57600080fd5b505afa158015612c43573d6000803e3d6000fd5b505050506040513d601f19601f82011682018060405250810190612c67919061392a565b90508161012001518482612c7b91906142a1565b1115612cbc576040517f08c379a0000000000000000000000000000000000000000000000000000000008152600401612cb390613fe8565b60405180910390fd5b6000604051806080016040528060065481526020018773ffffffffffffffffffffffffffffffffffffffff168152602001868152602001600060ff168152509050600b8190806001815401808255809150506001900390600052602060002090600402016000909190919091506000820151816000015560208201518160010160006101000a81548173ffffffffffffffffffffffffffffffffffffffff021916908373ffffffffffffffffffffffffffffffffffffffff1602179055506040820151816002015560608201518160030160006101000a81548160ff021916908360ff1602179055505050600d6000888152602001908152602001600020600654908060018154018082558091505060019003906000526020600020016000909190919091505560066000815480929190612df69061447f565b919050555050505050505050565b60028054612e119061441c565b80601f0160208091040260200160405190810160405280929190818152602001828054612e3d9061441c565b8015612e8a5780601f10612e5f57610100808354040283529160200191612e8a565b820191906000526020600020905b815481529060010190602001808311612e6d57829003601f168201915b505050505081565b6060600c60008373ffffffffffffffffffffffffffffffffffffffff1673ffffffffffffffffffffffffffffffffffffffff168152602001908152602001600020805480602002602001604051908101604052809291908181526020018280548015612f1d57602002820191906000526020600020905b815481526020019060010190808311612f09575b50505050509050919050565b60035481565b6000612f39613461565b9050612f4482613498565b600060088381548110612f5a57612f59614526565b5b90600052602060002090600b020190508173ffffffffffffffffffffffffffffffffffffffff168160030160009054906101000a900473ffffffffffffffffffffffffffffffffffffffff1673ffffffffffffffffffffffffffffffffffffffff1614612ffc576040517f08c379a0000000000000000000000000000000000000000000000000000000008152600401612ff390613f48565b60405180910390fd5b600181600a0160006101000a81548160ff021916908360ff160217905550827f0e83bc4c065a1d7b632641d89c0f0c4df1a0ea9a90cf0f783675a94eb8be491760405160405180910390a2505050565b600a818154811061305c57600080fd5b90600052602060002090600602016000915090508060000154908060010160009054906101000a900473ffffffffffffffffffffffffffffffffffffffff16908060020154908060030180546130b19061441c565b80601f01602080910402602001604051908101604052809291908181526020018280546130dd9061441c565b801561312a5780601f106130ff5761010080835404028352916020019161312a565b820191906000526020600020905b81548152906001019060200180831161310d57829003601f168201915b50505050509080600401805461313f9061441c565b80601f016020809104026020016040519081016040528092919081815260200182805461316b9061441c565b80156131b85780601f1061318d576101008083540402835291602001916131b8565b820191906000526020600020905b81548152906001019060200180831161319b57829003601f168201915b5050505050908060050160009054906101000a900460ff16908060050160019054906101000a900460ff16905087565b60006131f2613461565b90506131fd88613498565b60006008898154811061321357613212614526565b5b90600052602060002090600b020190508173ffffffffffffffffffffffffffffffffffffffff168160030160009054906101000a900473ffffffffffffffffffffffffffffffffffffffff1673ffffffffffffffffffffffffffffffffffffffff16146132b5576040517f08c379a00000000000000000000000000000000000000000000000000000000081526004016132ac90613f48565b60405180910390fd5b878160040190805190602001906132cd92919061352f565b50868160050190805190602001906132e692919061352f565b50858160060190805190602001906132ff92919061352f565b508481600701908051906020019061331892919061352f565b50838160080181905550828160090181905550888273ffffffffffffffffffffffffffffffffffffffff167f9dbd7202143d010384bba75f933592d8cea5111fc92cfcf3f2888a358a4de98460405160405180910390a3505050505050505050565b6000613384613461565b90506000600a838154811061339c5761339b614526565b5b906000526020600020906006020190508173ffffffffffffffffffffffffffffffffffffffff168160010160009054906101000a900473ffffffffffffffffffffffffffffffffffffffff1673ffffffffffffffffffffffffffffffffffffffff161461343e576040517f08c379a000000000000000000000000000000000000000000000000000000000815260040161343590613f68565b60405180910390fd5b60018160050160016101000a81548160ff021916908360ff160217905550505050565b6000601460003690501015801561347d575061347c33611d87565b5b1561349157601436033560601c9050613495565b3390505b90565b60016004546134a79190614351565b8111156134e9576040517f08c379a00000000000000000000000000000000000000000000000000000000081526004016134e090613fa8565b60405180910390fd5b50565b806000806101000a81548173ffffffffffffffffffffffffffffffffffffffff021916908373ffffffffffffffffffffffffffffffffffffffff16021790555050565b82805461353b9061441c565b90600052602060002090601f01602090048101928261355d57600085556135a4565b82601f1061357657805160ff19168380011785556135a4565b828001600101855582156135a4579182015b828111156135a3578251825591602001919060010190613588565b5b5090506135b19190613628565b5090565b604051806101600160405280600081526020016000815260200160008152602001600073ffffffffffffffffffffffffffffffffffffffff168152602001606081526020016060815260200160608152602001606081526020016000815260200160008152602001600060ff1681525090565b5b80821115613641576000816000905550600101613629565b5090565b6000613658613653846141d1565b6141ac565b90508281526020810184848401111561367457613673614589565b5b61367f8482856143da565b509392505050565b600081359050613696816146eb565b92915050565b600082601f8301126136b1576136b0614584565b5b81356136c1848260208601613645565b91505092915050565b6000813590506136d981614702565b92915050565b6000815190506136ee81614702565b92915050565b60006020828403121561370a57613709614593565b5b600061371884828501613687565b91505092915050565b6000806040838503121561373857613737614593565b5b600061374685828601613687565b9250506020613757858286016136ca565b9150509250929050565b6000806000806080858703121561377b5761377a614593565b5b600061378987828801613687565b945050602061379a878288016136ca565b935050604085013567ffffffffffffffff8111156137bb576137ba61458e565b5b6137c78782880161369c565b925050606085013567ffffffffffffffff8111156137e8576137e761458e565b5b6137f48782880161369c565b91505092959194509250565b60008060008060008060c0878903121561381d5761381c614593565b5b600087013567ffffffffffffffff81111561383b5761383a61458e565b5b61384789828a0161369c565b965050602087013567ffffffffffffffff8111156138685761386761458e565b5b61387489828a0161369c565b955050604087013567ffffffffffffffff8111156138955761389461458e565b5b6138a189828a0161369c565b945050606087013567ffffffffffffffff8111156138c2576138c161458e565b5b6138ce89828a0161369c565b93505060806138df89828a016136ca565b92505060a06138f089828a016136ca565b9150509295509295509295565b60006020828403121561391357613912614593565b5b6000613921848285016136ca565b91505092915050565b6000602082840312156139405761393f614593565b5b600061394e848285016136df565b91505092915050565b6000806000606084860312156139705761396f614593565b5b600061397e868287016136ca565b935050602061398f86828701613687565b92505060406139a0868287016136ca565b9150509250925092565b600080600080600080600060e0888a0312156139c9576139c8614593565b5b60006139d78a828b016136ca565b975050602088013567ffffffffffffffff8111156139f8576139f761458e565b5b613a048a828b0161369c565b965050604088013567ffffffffffffffff811115613a2557613a2461458e565b5b613a318a828b0161369c565b955050606088013567ffffffffffffffff811115613a5257613a5161458e565b5b613a5e8a828b0161369c565b945050608088013567ffffffffffffffff811115613a7f57613a7e61458e565b5b613a8b8a828b0161369c565b93505060a0613a9c8a828b016136ca565b92505060c0613aad8a828b016136ca565b91505092959891949750929550565b60008060408385031215613ad357613ad2614593565b5b6000613ae1858286016136ca565b9250506020613af2858286016136ca565b9150509250929050565b6000613b088383613d6c565b905092915050565b6000613b1c8383613e70565b60208301905092915050565b613b3181614385565b82525050565b613b4081614385565b82525050565b6000613b5182614222565b613b5b818561425d565b935083602082028501613b6d85614202565b8060005b85811015613ba95784840389528151613b8a8582613afc565b9450613b9583614243565b925060208a01995050600181019050613b71565b50829750879550505050505092915050565b6000613bc68261422d565b613bd0818561426e565b9350613bdb83614212565b8060005b83811015613c0c578151613bf38882613b10565b9750613bfe83614250565b925050600181019050613bdf565b5085935050505092915050565b613c2281614397565b82525050565b6000613c3382614238565b613c3d818561427f565b9350613c4d8185602086016143e9565b613c5681614598565b840191505092915050565b6000613c6c82614238565b613c768185614290565b9350613c868185602086016143e9565b613c8f81614598565b840191505092915050565b6000613ca7602383614290565b9150613cb2826145a9565b604082019050919050565b6000613cca602783614290565b9150613cd5826145f8565b604082019050919050565b6000613ced601583614290565b9150613cf882614647565b602082019050919050565b6000613d10601c83614290565b9150613d1b82614670565b602082019050919050565b6000613d33600083614290565b9150613d3e82614699565b600082019050919050565b6000613d56602683614290565b9150613d618261469c565b604082019050919050565b600061016083016000830151613d856000860182613e70565b506020830151613d986020860182613e70565b506040830151613dab6040860182613e70565b506060830151613dbe6060860182613b28565b5060808301518482036080860152613dd68282613c28565b91505060a083015184820360a0860152613df08282613c28565b91505060c083015184820360c0860152613e0a8282613c28565b91505060e083015184820360e0860152613e248282613c28565b915050610100830151613e3b610100860182613e70565b50610120830151613e50610120860182613e70565b50610140830151613e65610140860182613e8e565b508091505092915050565b613e79816143c3565b82525050565b613e88816143c3565b82525050565b613e97816143cd565b82525050565b613ea6816143cd565b82525050565b6000602082019050613ec16000830184613b37565b92915050565b60006020820190508181036000830152613ee18184613b46565b905092915050565b60006020820190508181036000830152613f038184613bbb565b905092915050565b6000602082019050613f206000830184613c19565b92915050565b60006020820190508181036000830152613f408184613c61565b905092915050565b60006020820190508181036000830152613f6181613c9a565b9050919050565b60006020820190508181036000830152613f8181613cbd565b9050919050565b60006020820190508181036000830152613fa181613ce0565b9050919050565b60006020820190508181036000830152613fc181613d03565b9050919050565b60006020820190508181036000830152613fe181613d26565b9050919050565b6000602082019050818103600083015261400181613d49565b9050919050565b600060208201905061401d6000830184613e7f565b92915050565b600060e082019050614038600083018a613e7f565b6140456020830189613b37565b6140526040830188613e7f565b81810360608301526140648187613c61565b905081810360808301526140788186613c61565b905061408760a0830185613c19565b61409460c0830184613e9d565b98975050505050505050565b60006080820190506140b56000830187613e7f565b6140c26020830186613b37565b6140cf6040830185613e7f565b6140dc6060830184613e9d565b95945050505050565b6000610160820190506140fb600083018e613e7f565b614108602083018d613e7f565b614115604083018c613e7f565b614122606083018b613b37565b8181036080830152614134818a613c61565b905081810360a08301526141488189613c61565b905081810360c083015261415c8188613c61565b905081810360e08301526141708187613c61565b9050614180610100830186613e7f565b61418e610120830185613e7f565b61419c610140830184613e9d565b9c9b505050505050505050505050565b60006141b66141c7565b90506141c2828261444e565b919050565b6000604051905090565b600067ffffffffffffffff8211156141ec576141eb614555565b5b6141f582614598565b9050602081019050919050565b6000819050602082019050919050565b6000819050602082019050919050565b600081519050919050565b600081519050919050565b600081519050919050565b6000602082019050919050565b6000602082019050919050565b600082825260208201905092915050565b600082825260208201905092915050565b600082825260208201905092915050565b600082825260208201905092915050565b60006142ac826143c3565b91506142b7836143c3565b9250827fffffffffffffffffffffffffffffffffffffffffffffffffffffffffffffffff038211156142ec576142eb6144c8565b5b828201905092915050565b6000614302826143c3565b915061430d836143c3565b9250817fffffffffffffffffffffffffffffffffffffffffffffffffffffffffffffffff0483118215151615614346576143456144c8565b5b828202905092915050565b600061435c826143c3565b9150614367836143c3565b92508282101561437a576143796144c8565b5b828203905092915050565b6000614390826143a3565b9050919050565b60008115159050919050565b600073ffffffffffffffffffffffffffffffffffffffff82169050919050565b6000819050919050565b600060ff82169050919050565b82818337600083830152505050565b60005b838110156144075780820151818401526020810190506143ec565b83811115614416576000848401525b50505050565b6000600282049050600182168061443457607f821691505b60208210811415614448576144476144f7565b5b50919050565b61445782614598565b810181811067ffffffffffffffff8211171561447657614475614555565b5b80604052505050565b600061448a826143c3565b91507fffffffffffffffffffffffffffffffffffffffffffffffffffffffffffffffff8214156144bd576144bc6144c8565b5b600182019050919050565b7f4e487b7100000000000000000000000000000000000000000000000000000000600052601160045260246000fd5b7f4e487b7100000000000000000000000000000000000000000000000000000000600052602260045260246000fd5b7f4e487b7100000000000000000000000000000000000000000000000000000000600052603260045260246000fd5b7f4e487b7100000000000000000000000000000000000000000000000000000000600052604160045260246000fd5b600080fd5b600080fd5b600080fd5b600080fd5b6000601f19601f8301169050919050565b7f6572726f725f6f6e6c795f70726f6a6563745f63726561746f725f63616e5f6560008201527f6469740000000000000000000000000000000000000000000000000000000000602082015250565b7f6572726f725f6f6e6c795f6170706c69636174696f6e5f63726561746f725f6360008201527f616e5f6564697400000000000000000000000000000000000000000000000000602082015250565b7f6572726f725f70726f6a6563745f657870697265640000000000000000000000600082015250565b7f6572726f725f70726f6a6563745f646f65735f6e6f745f657869737400000000600082015250565b50565b7f6572726f725f726f79616c746965735f6578636565645f746f74616c5f61766160008201527f696c61626c650000000000000000000000000000000000000000000000000000602082015250565b6146f481614385565b81146146ff57600080fd5b50565b61470b816143c3565b811461471657600080fd5b5056fea26469706673582212204dc794f08cb603d2a0b8704170e21b55cf51cfec91d282f58a75863f23e0663c64736f6c63430008060033",
  "linkReferences": {},
  "deployedLinkReferences": {}
}