{
  "_format": "hh-sol-artifact-1",
  "contractName": "DevPipes",
  "sourceName": "contracts/DevPipes.sol",
  "abi": [
    {
      "inputs": [],
      "stateMutability": "nonpayable",
      "type": "constructor"
    },
    {
      "inputs": [
        {
          "internalType": "uint256",
          "name": "projectId",
          "type": "uint256"
        },
        {
          "internalType": "address",
          "name": "user",
          "type": "address"
        },
        {
          "internalType": "uint256",
          "name": "amount",
          "type": "uint256"
        }
      ],
      "name": "addRoyalty",
      "outputs": [],
      "stateMutability": "nonpayable",
      "type": "function"
    },
    {
      "inputs": [
        {
          "internalType": "address",
          "name": "applicant",
          "type": "address"
        },
        {
          "internalType": "uint256",
          "name": "projectId",
          "type": "uint256"
        },
        {
          "internalType": "string",
          "name": "details1",
          "type": "string"
        },
        {
          "internalType": "string",
          "name": "details2",
          "type": "string"
        }
      ],
      "name": "applyForProject",
      "outputs": [],
      "stateMutability": "nonpayable",
      "type": "function"
    },
    {
      "inputs": [],
      "name": "balance",
      "outputs": [
        {
          "internalType": "uint256",
          "name": "",
          "type": "uint256"
        }
      ],
      "stateMutability": "view",
      "type": "function"
    },
    {
      "inputs": [
        {
          "internalType": "string",
          "name": "projectName",
          "type": "string"
        },
        {
          "internalType": "string",
          "name": "description",
          "type": "string"
        },
        {
          "internalType": "string",
          "name": "uri",
          "type": "string"
        },
        {
          "internalType": "string",
          "name": "tags",
          "type": "string"
        },
        {
          "internalType": "uint256",
          "name": "dueDate",
          "type": "uint256"
        },
        {
          "internalType": "uint256",
          "name": "budget",
          "type": "uint256"
        }
      ],
      "name": "createProject",
      "outputs": [],
      "stateMutability": "nonpayable",
      "type": "function"
    },
    {
      "inputs": [
        {
          "internalType": "uint256",
          "name": "parentId",
          "type": "uint256"
        },
        {
          "internalType": "string",
          "name": "projectName",
          "type": "string"
        },
        {
          "internalType": "string",
          "name": "description",
          "type": "string"
        },
        {
          "internalType": "string",
          "name": "uri",
          "type": "string"
        },
        {
          "internalType": "string",
          "name": "tags",
          "type": "string"
        },
        {
          "internalType": "uint256",
          "name": "dueDate",
          "type": "uint256"
        },
        {
          "internalType": "uint256",
          "name": "budget",
          "type": "uint256"
        }
      ],
      "name": "createSubProject",
      "outputs": [],
      "stateMutability": "nonpayable",
      "type": "function"
    },
    {
      "inputs": [
        {
          "internalType": "address",
          "name": "user",
          "type": "address"
        }
      ],
      "name": "getProjectsForUser",
      "outputs": [
        {
          "components": [
            {
              "internalType": "uint256",
              "name": "id",
              "type": "uint256"
            },
            {
              "internalType": "uint256",
              "name": "parentId",
              "type": "uint256"
            },
            {
              "internalType": "address",
              "name": "creator",
              "type": "address"
            },
            {
              "internalType": "string",
              "name": "name",
              "type": "string"
            },
            {
              "internalType": "string",
              "name": "description",
              "type": "string"
            },
            {
              "internalType": "string",
              "name": "uri",
              "type": "string"
            },
            {
              "internalType": "string",
              "name": "tags",
              "type": "string"
            },
            {
              "internalType": "uint256",
              "name": "dueDate",
              "type": "uint256"
            },
            {
              "internalType": "uint256",
              "name": "budget",
              "type": "uint256"
            },
            {
              "internalType": "uint8",
              "name": "status",
              "type": "uint8"
            }
          ],
          "internalType": "struct DevPipes.Project[]",
          "name": "",
          "type": "tuple[]"
        }
      ],
      "stateMutability": "view",
      "type": "function"
    },
    {
      "inputs": [
        {
          "internalType": "uint256",
          "name": "projectId",
          "type": "uint256"
        }
      ],
      "name": "getRoyaltiesTotal",
      "outputs": [
        {
          "internalType": "uint256",
          "name": "",
          "type": "uint256"
        }
      ],
      "stateMutability": "view",
      "type": "function"
    },
    {
      "inputs": [],
      "name": "name",
      "outputs": [
        {
          "internalType": "string",
          "name": "",
          "type": "string"
        }
      ],
      "stateMutability": "view",
      "type": "function"
    },
    {
      "inputs": [],
      "name": "numApplications",
      "outputs": [
        {
          "internalType": "uint256",
          "name": "",
          "type": "uint256"
        }
      ],
      "stateMutability": "view",
      "type": "function"
    },
    {
      "inputs": [],
      "name": "numPayments",
      "outputs": [
        {
          "internalType": "uint256",
          "name": "",
          "type": "uint256"
        }
      ],
      "stateMutability": "view",
      "type": "function"
    },
    {
      "inputs": [],
      "name": "numProjects",
      "outputs": [
        {
          "internalType": "uint256",
          "name": "",
          "type": "uint256"
        }
      ],
      "stateMutability": "view",
      "type": "function"
    },
    {
      "inputs": [],
      "name": "numSubProjects",
      "outputs": [
        {
          "internalType": "uint256",
          "name": "",
          "type": "uint256"
        }
      ],
      "stateMutability": "view",
      "type": "function"
    },
    {
      "inputs": [],
      "name": "owner",
      "outputs": [
        {
          "internalType": "address",
          "name": "",
          "type": "address"
        }
      ],
      "stateMutability": "view",
      "type": "function"
    },
    {
      "inputs": [
        {
          "internalType": "uint256",
          "name": "projectId",
          "type": "uint256"
        }
      ],
      "name": "publish",
      "outputs": [],
      "stateMutability": "nonpayable",
      "type": "function"
    },
    {
      "inputs": [],
      "name": "symbol",
      "outputs": [
        {
          "internalType": "string",
          "name": "",
          "type": "string"
        }
      ],
      "stateMutability": "view",
      "type": "function"
    },
    {
      "inputs": [
        {
          "internalType": "uint256",
          "name": "applicationId",
          "type": "uint256"
        }
      ],
      "name": "withdrawApplication",
      "outputs": [],
      "stateMutability": "nonpayable",
      "type": "function"
    }
  ],
  "bytecode": "0x60806040526040518060400160405280600981526020017f446576205069706573000000000000000000000000000000000000000000000081525060009080519060200190620000519291906200010e565b506040518060400160405280600581526020017f5049504553000000000000000000000000000000000000000000000000000000815250600190805190602001906200009f9291906200010e565b5060006002556000600355600060045560006005556000600655348015620000c657600080fd5b5033600760006101000a81548173ffffffffffffffffffffffffffffffffffffffff021916908373ffffffffffffffffffffffffffffffffffffffff16021790555062000223565b8280546200011c90620001be565b90600052602060002090601f0160209004810192826200014057600085556200018c565b82601f106200015b57805160ff19168380011785556200018c565b828001600101855582156200018c579182015b828111156200018b5782518255916020019190600101906200016e565b5b5090506200019b91906200019f565b5090565b5b80821115620001ba576000816000905550600101620001a0565b5090565b60006002820490506001821680620001d757607f821691505b60208210811415620001ee57620001ed620001f4565b5b50919050565b7f4e487b7100000000000000000000000000000000000000000000000000000000600052602260045260246000fd5b612c7b80620002336000396000f3fe608060405234801561001057600080fd5b50600436106101005760003560e01c8063712747341161009757806395d89b411161006657806395d89b4114610289578063b69ef8a8146102a7578063cc4ef119146102c5578063f1d5314a146102e157610100565b8063712747341461021557806381d3a83a146102315780638da5cb5b1461024f57806391b87f231461026d57610100565b806320fcd0dd116100d357806320fcd0dd14610179578063223153fa146101a95780632279fa4c146101d95780635a067baa146101f757610100565b8063012865a41461010557806306fdde031461012157806316dcb2901461013f57806318fad1351461015b575b600080fd5b61011f600480360381019061011a9190612139565b6102fd565b005b61012961062a565b60405161013691906127ff565b60405180910390f35b610159600480360381019061015491906120a6565b6106b8565b005b610163610d6b565b60405161017091906128e1565b60405180910390f35b610193600480360381019061018e9190612222565b610d71565b6040516101a091906128e1565b60405180910390f35b6101c360048036038101906101be919061207d565b610e20565b6040516101d091906127dd565b60405180910390f35b6101e16111a2565b6040516101ee91906128e1565b60405180910390f35b6101ff6111a8565b60405161020c91906128e1565b60405180910390f35b61022f600480360381019061022a91906122c3565b6111ae565b005b610239611620565b60405161024691906128e1565b60405180910390f35b610257611626565b60405161026491906127c2565b60405180910390f35b61028760048036038101906102829190612274565b61164c565b005b610291611c9f565b60405161029e91906127ff565b60405180910390f35b6102af611d2d565b6040516102bc91906128e1565b60405180910390f35b6102df60048036038101906102da9190612222565b611d33565b005b6102fb60048036038101906102f69190612222565b611e33565b005b60006040518061014001604052806003548152602001600081526020013373ffffffffffffffffffffffffffffffffffffffff168152602001888152602001878152602001868152602001858152602001848152602001838152602001600060ff16815250905060088190806001815401808255809150506001900390600052602060002090600a0201600090919091909150600082015181600001556020820151816001015560408201518160020160006101000a81548173ffffffffffffffffffffffffffffffffffffffff021916908373ffffffffffffffffffffffffffffffffffffffff1602179055506060820151816003019080519060200190610407929190611f33565b506080820151816004019080519060200190610424929190611f33565b5060a0820151816005019080519060200190610441929190611f33565b5060c082015181600601908051906020019061045e929190611f33565b5060e0820151816007015561010082015181600801556101208201518160090160006101000a81548160ff021916908360ff1602179055505050600b60003373ffffffffffffffffffffffffffffffffffffffff1673ffffffffffffffffffffffffffffffffffffffff1681526020019081526020016000208190806001815401808255809150506001900390600052602060002090600a0201600090919091909150600082015181600001556020820151816001015560408201518160020160006101000a81548173ffffffffffffffffffffffffffffffffffffffff021916908373ffffffffffffffffffffffffffffffffffffffff1602179055506060820151816003019080519060200190610578929190611f33565b506080820151816004019080519060200190610595929190611f33565b5060a08201518160050190805190602001906105b2929190611f33565b5060c08201518160060190805190602001906105cf929190611f33565b5060e0820151816007015561010082015181600801556101208201518160090160006101000a81548160ff021916908360ff16021790555050506003600081548092919061061c90612b30565b919050555050505050505050565b6000805461063790612afe565b80601f016020809104026020016040519081016040528092919081815260200182805461066390612afe565b80156106b05780601f10610685576101008083540402835291602001916106b0565b820191906000526020600020905b81548152906001019060200180831161069357829003601f168201915b505050505081565b6003548311156106fd576040517f08c379a00000000000000000000000000000000000000000000000000000000081526004016106f490612881565b60405180910390fd5b600060088481548110610739577f4e487b7100000000000000000000000000000000000000000000000000000000600052603260045260246000fd5b90600052602060002090600a02016040518061014001604052908160008201548152602001600182015481526020016002820160009054906101000a900473ffffffffffffffffffffffffffffffffffffffff1673ffffffffffffffffffffffffffffffffffffffff1673ffffffffffffffffffffffffffffffffffffffff1681526020016003820180546107cd90612afe565b80601f01602080910402602001604051908101604052809291908181526020018280546107f990612afe565b80156108465780601f1061081b57610100808354040283529160200191610846565b820191906000526020600020905b81548152906001019060200180831161082957829003601f168201915b5050505050815260200160048201805461085f90612afe565b80601f016020809104026020016040519081016040528092919081815260200182805461088b90612afe565b80156108d85780601f106108ad576101008083540402835291602001916108d8565b820191906000526020600020905b8154815290600101906020018083116108bb57829003601f168201915b505050505081526020016005820180546108f190612afe565b80601f016020809104026020016040519081016040528092919081815260200182805461091d90612afe565b801561096a5780601f1061093f5761010080835404028352916020019161096a565b820191906000526020600020905b81548152906001019060200180831161094d57829003601f168201915b5050505050815260200160068201805461098390612afe565b80601f01602080910402602001604051908101604052809291908181526020018280546109af90612afe565b80156109fc5780601f106109d1576101008083540402835291602001916109fc565b820191906000526020600020905b8154815290600101906020018083116109df57829003601f168201915b5050505050815260200160078201548152602001600882015481526020016009820160009054906101000a900460ff1660ff1660ff1681525050905060006103e842610a489190612a19565b90508160e001518110610a90576040517f08c379a0000000000000000000000000000000000000000000000000000000008152600401610a8790612861565b60405180910390fd5b600082610120015160ff1611610adb576040517f08c379a0000000000000000000000000000000000000000000000000000000008152600401610ad2906128a1565b60405180910390fd5b60006040518060e0016040528060055481526020018873ffffffffffffffffffffffffffffffffffffffff168152602001878152602001868152602001858152602001600015158152602001600060ff16815250905060098190806001815401808255809150506001900390600052602060002090600602016000909190919091506000820151816000015560208201518160010160006101000a81548173ffffffffffffffffffffffffffffffffffffffff021916908373ffffffffffffffffffffffffffffffffffffffff160217905550604082015181600201556060820151816003019080519060200190610bd4929190611f33565b506080820151816004019080519060200190610bf1929190611f33565b5060a08201518160050160006101000a81548160ff02191690831515021790555060c08201518160050160016101000a81548160ff021916908360ff1602179055505050600e60008781526020019081526020016000208190806001815401808255809150506001900390600052602060002090600602016000909190919091506000820151816000015560208201518160010160006101000a81548173ffffffffffffffffffffffffffffffffffffffff021916908373ffffffffffffffffffffffffffffffffffffffff160217905550604082015181600201556060820151816003019080519060200190610ce9929190611f33565b506080820151816004019080519060200190610d06929190611f33565b5060a08201518160050160006101000a81548160ff02191690831515021790555060c08201518160050160016101000a81548160ff021916908360ff160217905550505060056000815480929190610d5d90612b30565b919050555050505050505050565b60055481565b6000806000905060005b600d600085815260200190815260200160002080549050811015610e1657600d60008581526020019081526020016000208181548110610de4577f4e487b7100000000000000000000000000000000000000000000000000000000600052603260045260246000fd5b90600052602060002090600402016002015482610e0191906129c3565b91508080610e0e90612b30565b915050610d7b565b5080915050919050565b6060600b60008373ffffffffffffffffffffffffffffffffffffffff1673ffffffffffffffffffffffffffffffffffffffff168152602001908152602001600020805480602002602001604051908101604052809291908181526020016000905b8282101561119757838290600052602060002090600a02016040518061014001604052908160008201548152602001600182015481526020016002820160009054906101000a900473ffffffffffffffffffffffffffffffffffffffff1673ffffffffffffffffffffffffffffffffffffffff1673ffffffffffffffffffffffffffffffffffffffff168152602001600382018054610f1f90612afe565b80601f0160208091040260200160405190810160405280929190818152602001828054610f4b90612afe565b8015610f985780601f10610f6d57610100808354040283529160200191610f98565b820191906000526020600020905b815481529060010190602001808311610f7b57829003601f168201915b50505050508152602001600482018054610fb190612afe565b80601f0160208091040260200160405190810160405280929190818152602001828054610fdd90612afe565b801561102a5780601f10610fff5761010080835404028352916020019161102a565b820191906000526020600020905b81548152906001019060200180831161100d57829003601f168201915b5050505050815260200160058201805461104390612afe565b80601f016020809104026020016040519081016040528092919081815260200182805461106f90612afe565b80156110bc5780601f10611091576101008083540402835291602001916110bc565b820191906000526020600020905b81548152906001019060200180831161109f57829003601f168201915b505050505081526020016006820180546110d590612afe565b80601f016020809104026020016040519081016040528092919081815260200182805461110190612afe565b801561114e5780601f106111235761010080835404028352916020019161114e565b820191906000526020600020905b81548152906001019060200180831161113157829003601f168201915b5050505050815260200160078201548152602001600882015481526020016009820160009054906101000a900460ff1660ff1660ff168152505081526020019060010190610e81565b505050509050919050565b60065481565b60035481565b600060405180610140016040528060035481526020018981526020013373ffffffffffffffffffffffffffffffffffffffff168152602001888152602001878152602001868152602001858152602001848152602001838152602001600060ff16815250905060088190806001815401808255809150506001900390600052602060002090600a0201600090919091909150600082015181600001556020820151816001015560408201518160020160006101000a81548173ffffffffffffffffffffffffffffffffffffffff021916908373ffffffffffffffffffffffffffffffffffffffff16021790555060608201518160030190805190602001906112b7929190611f33565b5060808201518160040190805190602001906112d4929190611f33565b5060a08201518160050190805190602001906112f1929190611f33565b5060c082015181600601908051906020019061130e929190611f33565b5060e0820151816007015561010082015181600801556101208201518160090160006101000a81548160ff021916908360ff1602179055505050600c60008981526020019081526020016000208190806001815401808255809150506001900390600052602060002090600a0201600090919091909150600082015181600001556020820151816001015560408201518160020160006101000a81548173ffffffffffffffffffffffffffffffffffffffff021916908373ffffffffffffffffffffffffffffffffffffffff16021790555060608201518160030190805190602001906113fc929190611f33565b506080820151816004019080519060200190611419929190611f33565b5060a0820151816005019080519060200190611436929190611f33565b5060c0820151816006019080519060200190611453929190611f33565b5060e0820151816007015561010082015181600801556101208201518160090160006101000a81548160ff021916908360ff1602179055505050600b60003373ffffffffffffffffffffffffffffffffffffffff1673ffffffffffffffffffffffffffffffffffffffff1681526020019081526020016000208190806001815401808255809150506001900390600052602060002090600a0201600090919091909150600082015181600001556020820151816001015560408201518160020160006101000a81548173ffffffffffffffffffffffffffffffffffffffff021916908373ffffffffffffffffffffffffffffffffffffffff160217905550606082015181600301908051906020019061156d929190611f33565b50608082015181600401908051906020019061158a929190611f33565b5060a08201518160050190805190602001906115a7929190611f33565b5060c08201518160060190805190602001906115c4929190611f33565b5060e0820151816007015561010082015181600801556101208201518160090160006101000a81548160ff021916908360ff16021790555050506003600081548092919061161190612b30565b91905055505050505050505050565b60045481565b600760009054906101000a900473ffffffffffffffffffffffffffffffffffffffff1681565b600060088481548110611688577f4e487b7100000000000000000000000000000000000000000000000000000000600052603260045260246000fd5b90600052602060002090600a02016040518061014001604052908160008201548152602001600182015481526020016002820160009054906101000a900473ffffffffffffffffffffffffffffffffffffffff1673ffffffffffffffffffffffffffffffffffffffff1673ffffffffffffffffffffffffffffffffffffffff16815260200160038201805461171c90612afe565b80601f016020809104026020016040519081016040528092919081815260200182805461174890612afe565b80156117955780601f1061176a57610100808354040283529160200191611795565b820191906000526020600020905b81548152906001019060200180831161177857829003601f168201915b505050505081526020016004820180546117ae90612afe565b80601f01602080910402602001604051908101604052809291908181526020018280546117da90612afe565b80156118275780601f106117fc57610100808354040283529160200191611827565b820191906000526020600020905b81548152906001019060200180831161180a57829003601f168201915b5050505050815260200160058201805461184090612afe565b80601f016020809104026020016040519081016040528092919081815260200182805461186c90612afe565b80156118b95780601f1061188e576101008083540402835291602001916118b9565b820191906000526020600020905b81548152906001019060200180831161189c57829003601f168201915b505050505081526020016006820180546118d290612afe565b80601f01602080910402602001604051908101604052809291908181526020018280546118fe90612afe565b801561194b5780601f106119205761010080835404028352916020019161194b565b820191906000526020600020905b81548152906001019060200180831161192e57829003601f168201915b5050505050815260200160078201548152602001600882015481526020016009820160009054906101000a900460ff1660ff1660ff168152505090503373ffffffffffffffffffffffffffffffffffffffff16816040015173ffffffffffffffffffffffffffffffffffffffff16146119f9576040517f08c379a00000000000000000000000000000000000000000000000000000000081526004016119f090612821565b60405180910390fd5b60003073ffffffffffffffffffffffffffffffffffffffff166320fcd0dd866040518263ffffffff1660e01b8152600401611a3491906128e1565b60206040518083038186803b158015611a4c57600080fd5b505afa158015611a60573d6000803e3d6000fd5b505050506040513d601f19601f82011682018060405250810190611a84919061224b565b90508161010001518382611a9891906129c3565b1115611ad9576040517f08c379a0000000000000000000000000000000000000000000000000000000008152600401611ad0906128c1565b60405180910390fd5b6000604051806080016040528060065481526020018673ffffffffffffffffffffffffffffffffffffffff168152602001858152602001600060ff168152509050600a8190806001815401808255809150506001900390600052602060002090600402016000909190919091506000820151816000015560208201518160010160006101000a81548173ffffffffffffffffffffffffffffffffffffffff021916908373ffffffffffffffffffffffffffffffffffffffff1602179055506040820151816002015560608201518160030160006101000a81548160ff021916908360ff1602179055505050600d60008781526020019081526020016000208190806001815401808255809150506001900390600052602060002090600402016000909190919091506000820151816000015560208201518160010160006101000a81548173ffffffffffffffffffffffffffffffffffffffff021916908373ffffffffffffffffffffffffffffffffffffffff1602179055506040820151816002015560608201518160030160006101000a81548160ff021916908360ff160217905550505060066000815480929190611c9290612b30565b9190505550505050505050565b60018054611cac90612afe565b80601f0160208091040260200160405190810160405280929190818152602001828054611cd890612afe565b8015611d255780601f10611cfa57610100808354040283529160200191611d25565b820191906000526020600020905b815481529060010190602001808311611d0857829003601f168201915b505050505081565b60025481565b600060088281548110611d6f577f4e487b7100000000000000000000000000000000000000000000000000000000600052603260045260246000fd5b90600052602060002090600a020190503373ffffffffffffffffffffffffffffffffffffffff168160020160009054906101000a900473ffffffffffffffffffffffffffffffffffffffff1673ffffffffffffffffffffffffffffffffffffffff1614611e11576040517f08c379a0000000000000000000000000000000000000000000000000000000008152600401611e0890612821565b60405180910390fd5b60018160090160006101000a81548160ff021916908360ff1602179055505050565b600060098281548110611e6f577f4e487b7100000000000000000000000000000000000000000000000000000000600052603260045260246000fd5b906000526020600020906006020190503373ffffffffffffffffffffffffffffffffffffffff168160010160009054906101000a900473ffffffffffffffffffffffffffffffffffffffff1673ffffffffffffffffffffffffffffffffffffffff1614611f11576040517f08c379a0000000000000000000000000000000000000000000000000000000008152600401611f0890612841565b60405180910390fd5b60018160050160016101000a81548160ff021916908360ff1602179055505050565b828054611f3f90612afe565b90600052602060002090601f016020900481019282611f615760008555611fa8565b82601f10611f7a57805160ff1916838001178555611fa8565b82800160010185558215611fa8579182015b82811115611fa7578251825591602001919060010190611f8c565b5b509050611fb59190611fb9565b5090565b5b80821115611fd2576000816000905550600101611fba565b5090565b6000611fe9611fe48461292d565b6128fc565b90508281526020810184848401111561200157600080fd5b61200c848285612abc565b509392505050565b60008135905061202381612c17565b92915050565b600082601f83011261203a57600080fd5b813561204a848260208601611fd6565b91505092915050565b60008135905061206281612c2e565b92915050565b60008151905061207781612c2e565b92915050565b60006020828403121561208f57600080fd5b600061209d84828501612014565b91505092915050565b600080600080608085870312156120bc57600080fd5b60006120ca87828801612014565b94505060206120db87828801612053565b935050604085013567ffffffffffffffff8111156120f857600080fd5b61210487828801612029565b925050606085013567ffffffffffffffff81111561212157600080fd5b61212d87828801612029565b91505092959194509250565b60008060008060008060c0878903121561215257600080fd5b600087013567ffffffffffffffff81111561216c57600080fd5b61217889828a01612029565b965050602087013567ffffffffffffffff81111561219557600080fd5b6121a189828a01612029565b955050604087013567ffffffffffffffff8111156121be57600080fd5b6121ca89828a01612029565b945050606087013567ffffffffffffffff8111156121e757600080fd5b6121f389828a01612029565b935050608061220489828a01612053565b92505060a061221589828a01612053565b9150509295509295509295565b60006020828403121561223457600080fd5b600061224284828501612053565b91505092915050565b60006020828403121561225d57600080fd5b600061226b84828501612068565b91505092915050565b60008060006060848603121561228957600080fd5b600061229786828701612053565b93505060206122a886828701612014565b92505060406122b986828701612053565b9150509250925092565b600080600080600080600060e0888a0312156122de57600080fd5b60006122ec8a828b01612053565b975050602088013567ffffffffffffffff81111561230957600080fd5b6123158a828b01612029565b965050604088013567ffffffffffffffff81111561233257600080fd5b61233e8a828b01612029565b955050606088013567ffffffffffffffff81111561235b57600080fd5b6123678a828b01612029565b945050608088013567ffffffffffffffff81111561238457600080fd5b6123908a828b01612029565b93505060a06123a18a828b01612053565b92505060c06123b28a828b01612053565b91505092959891949750929550565b60006123cd83836126a6565b905092915050565b6123de81612a73565b82525050565b6123ed81612a73565b82525050565b60006123fe8261296d565b6124088185612990565b93508360208202850161241a8561295d565b8060005b85811015612456578484038952815161243785826123c1565b945061244283612983565b925060208a0199505060018101905061241e565b50829750879550505050505092915050565b600061247382612978565b61247d81856129a1565b935061248d818560208601612acb565b61249681612c06565b840191505092915050565b60006124ac82612978565b6124b681856129b2565b93506124c6818560208601612acb565b6124cf81612c06565b840191505092915050565b60006124e76023836129b2565b91507f6572726f725f6f6e6c795f70726f6a6563745f63726561746f725f63616e5f6560008301527f64697400000000000000000000000000000000000000000000000000000000006020830152604082019050919050565b600061254d6027836129b2565b91507f6572726f725f6f6e6c795f6170706c69636174696f6e5f63726561746f725f6360008301527f616e5f65646974000000000000000000000000000000000000000000000000006020830152604082019050919050565b60006125b36015836129b2565b91507f6572726f725f70726f6a6563745f6578706972656400000000000000000000006000830152602082019050919050565b60006125f3601c836129b2565b91507f6572726f725f70726f6a6563745f646f65735f6e6f745f6578697374000000006000830152602082019050919050565b60006126336000836129b2565b9150600082019050919050565b600061264d6026836129b2565b91507f6572726f725f726f79616c746965735f6578636565645f746f74616c5f61766160008301527f696c61626c6500000000000000000000000000000000000000000000000000006020830152604082019050919050565b6000610140830160008301516126bf6000860182612795565b5060208301516126d26020860182612795565b5060408301516126e560408601826123d5565b50606083015184820360608601526126fd8282612468565b915050608083015184820360808601526127178282612468565b91505060a083015184820360a08601526127318282612468565b91505060c083015184820360c086015261274b8282612468565b91505060e083015161276060e0860182612795565b50610100830151612775610100860182612795565b5061012083015161278a6101208601826127b3565b508091505092915050565b61279e81612aa5565b82525050565b6127ad81612aa5565b82525050565b6127bc81612aaf565b82525050565b60006020820190506127d760008301846123e4565b92915050565b600060208201905081810360008301526127f781846123f3565b905092915050565b6000602082019050818103600083015261281981846124a1565b905092915050565b6000602082019050818103600083015261283a816124da565b9050919050565b6000602082019050818103600083015261285a81612540565b9050919050565b6000602082019050818103600083015261287a816125a6565b9050919050565b6000602082019050818103600083015261289a816125e6565b9050919050565b600060208201905081810360008301526128ba81612626565b9050919050565b600060208201905081810360008301526128da81612640565b9050919050565b60006020820190506128f660008301846127a4565b92915050565b6000604051905081810181811067ffffffffffffffff8211171561292357612922612bd7565b5b8060405250919050565b600067ffffffffffffffff82111561294857612947612bd7565b5b601f19601f8301169050602081019050919050565b6000819050602082019050919050565b600081519050919050565b600081519050919050565b6000602082019050919050565b600082825260208201905092915050565b600082825260208201905092915050565b600082825260208201905092915050565b60006129ce82612aa5565b91506129d983612aa5565b9250827fffffffffffffffffffffffffffffffffffffffffffffffffffffffffffffffff03821115612a0e57612a0d612b79565b5b828201905092915050565b6000612a2482612aa5565b9150612a2f83612aa5565b9250817fffffffffffffffffffffffffffffffffffffffffffffffffffffffffffffffff0483118215151615612a6857612a67612b79565b5b828202905092915050565b6000612a7e82612a85565b9050919050565b600073ffffffffffffffffffffffffffffffffffffffff82169050919050565b6000819050919050565b600060ff82169050919050565b82818337600083830152505050565b60005b83811015612ae9578082015181840152602081019050612ace565b83811115612af8576000848401525b50505050565b60006002820490506001821680612b1657607f821691505b60208210811415612b2a57612b29612ba8565b5b50919050565b6000612b3b82612aa5565b91507fffffffffffffffffffffffffffffffffffffffffffffffffffffffffffffffff821415612b6e57612b6d612b79565b5b600182019050919050565b7f4e487b7100000000000000000000000000000000000000000000000000000000600052601160045260246000fd5b7f4e487b7100000000000000000000000000000000000000000000000000000000600052602260045260246000fd5b7f4e487b7100000000000000000000000000000000000000000000000000000000600052604160045260246000fd5b6000601f19601f8301169050919050565b612c2081612a73565b8114612c2b57600080fd5b50565b612c3781612aa5565b8114612c4257600080fd5b5056fea2646970667358221220299d8e60b70da846f9913382e6ca46825c8ca5c6d0735eb6414ba6ce59ce459564736f6c63430008000033",
  "linkReferences": {},
  "deployedLinkReferences": {}
}