{
  "_format": "hh-sol-artifact-1",
  "contractName": "DevPipes",
  "sourceName": "contracts/DevPipes.sol",
  "abi": [
    {
      "inputs": [],
      "stateMutability": "nonpayable",
      "type": "constructor"
    },
    {
      "inputs": [],
      "name": "balance",
      "outputs": [
        {
          "internalType": "uint256",
          "name": "",
          "type": "uint256"
        }
      ],
      "stateMutability": "view",
      "type": "function"
    },
    {
      "inputs": [
        {
          "internalType": "string",
          "name": "projectName",
          "type": "string"
        },
        {
          "internalType": "string",
          "name": "description",
          "type": "string"
        },
        {
          "internalType": "string",
          "name": "uri",
          "type": "string"
        },
        {
          "internalType": "uint256",
          "name": "dueDate",
          "type": "uint256"
        },
        {
          "internalType": "uint256",
          "name": "payment",
          "type": "uint256"
        }
      ],
      "name": "createProject",
      "outputs": [],
      "stateMutability": "nonpayable",
      "type": "function"
    },
    {
      "inputs": [
        {
          "internalType": "address",
          "name": "user",
          "type": "address"
        }
      ],
      "name": "getProjectsForUser",
      "outputs": [
        {
          "components": [
            {
              "internalType": "uint256",
              "name": "id",
              "type": "uint256"
            },
            {
              "internalType": "uint256",
              "name": "parentID",
              "type": "uint256"
            },
            {
              "internalType": "address",
              "name": "creator",
              "type": "address"
            },
            {
              "internalType": "string",
              "name": "name",
              "type": "string"
            },
            {
              "internalType": "string",
              "name": "description",
              "type": "string"
            },
            {
              "internalType": "string",
              "name": "uri",
              "type": "string"
            },
            {
              "internalType": "uint256",
              "name": "dueDate",
              "type": "uint256"
            },
            {
              "internalType": "uint256",
              "name": "payment",
              "type": "uint256"
            }
          ],
          "internalType": "struct DevPipes.Project[]",
          "name": "",
          "type": "tuple[]"
        }
      ],
      "stateMutability": "view",
      "type": "function"
    },
    {
      "inputs": [],
      "name": "name",
      "outputs": [
        {
          "internalType": "string",
          "name": "",
          "type": "string"
        }
      ],
      "stateMutability": "view",
      "type": "function"
    },
    {
      "inputs": [],
      "name": "owner",
      "outputs": [
        {
          "internalType": "address",
          "name": "",
          "type": "address"
        }
      ],
      "stateMutability": "view",
      "type": "function"
    },
    {
      "inputs": [],
      "name": "symbol",
      "outputs": [
        {
          "internalType": "string",
          "name": "",
          "type": "string"
        }
      ],
      "stateMutability": "view",
      "type": "function"
    }
  ],
  "bytecode": "0x60806040526040518060400160405280600981526020017f44657620506970657300000000000000000000000000000000000000000000008152506000908051906020019062000051929190620000ff565b506040518060400160405280600581526020017f5049504553000000000000000000000000000000000000000000000000000000815250600190805190602001906200009f929190620000ff565b5060006002556001600355348015620000b757600080fd5b5033600460006101000a81548173ffffffffffffffffffffffffffffffffffffffff021916908373ffffffffffffffffffffffffffffffffffffffff16021790555062000214565b8280546200010d90620001af565b90600052602060002090601f0160209004810192826200013157600085556200017d565b82601f106200014c57805160ff19168380011785556200017d565b828001600101855582156200017d579182015b828111156200017c5782518255916020019190600101906200015f565b5b5090506200018c919062000190565b5090565b5b80821115620001ab57600081600090555060010162000191565b5090565b60006002820490506001821680620001c857607f821691505b60208210811415620001df57620001de620001e5565b5b50919050565b7f4e487b7100000000000000000000000000000000000000000000000000000000600052602260045260246000fd5b610ea080620002246000396000f3fe608060405234801561001057600080fd5b50600436106100625760003560e01c8063056c29ee1461006757806306fdde0314610083578063223153fa146100a15780638da5cb5b146100d157806395d89b41146100ef578063b69ef8a81461010d575b600080fd5b610081600480360381019061007c9190610928565b61012b565b005b61008b6103af565b6040516100989190610c19565b60405180910390f35b6100bb60048036038101906100b691906108ff565b61043d565b6040516100c89190610bf7565b60405180910390f35b6100d9610710565b6040516100e69190610bdc565b60405180910390f35b6100f7610736565b6040516101049190610c19565b60405180910390f35b6101156107c4565b6040516101229190610c3b565b60405180910390f35b60006040518061010001604052806003548152602001600081526020013373ffffffffffffffffffffffffffffffffffffffff1681526020018781526020018681526020018581526020018481526020018381525090506005819080600181540180825580915050600190039060005260206000209060080201600090919091909150600082015181600001556020820151816001015560408201518160020160006101000a81548173ffffffffffffffffffffffffffffffffffffffff021916908373ffffffffffffffffffffffffffffffffffffffff16021790555060608201518160030190805190602001906102259291906107ca565b5060808201518160040190805190602001906102429291906107ca565b5060a082015181600501908051906020019061025f9291906107ca565b5060c0820151816006015560e082015181600701555050600660003373ffffffffffffffffffffffffffffffffffffffff1673ffffffffffffffffffffffffffffffffffffffff168152602001908152602001600020819080600181540180825580915050600190039060005260206000209060080201600090919091909150600082015181600001556020820151816001015560408201518160020160006101000a81548173ffffffffffffffffffffffffffffffffffffffff021916908373ffffffffffffffffffffffffffffffffffffffff16021790555060608201518160030190805190602001906103569291906107ca565b5060808201518160040190805190602001906103739291906107ca565b5060a08201518160050190805190602001906103909291906107ca565b5060c0820151816006015560e082015181600701555050505050505050565b600080546103bc90610d9b565b80601f01602080910402602001604051908101604052809291908181526020018280546103e890610d9b565b80156104355780601f1061040a57610100808354040283529160200191610435565b820191906000526020600020905b81548152906001019060200180831161041857829003601f168201915b505050505081565b6060600660008373ffffffffffffffffffffffffffffffffffffffff1673ffffffffffffffffffffffffffffffffffffffff168152602001908152602001600020805480602002602001604051908101604052809291908181526020016000905b8282101561070557838290600052602060002090600802016040518061010001604052908160008201548152602001600182015481526020016002820160009054906101000a900473ffffffffffffffffffffffffffffffffffffffff1673ffffffffffffffffffffffffffffffffffffffff1673ffffffffffffffffffffffffffffffffffffffff16815260200160038201805461053c90610d9b565b80601f016020809104026020016040519081016040528092919081815260200182805461056890610d9b565b80156105b55780601f1061058a576101008083540402835291602001916105b5565b820191906000526020600020905b81548152906001019060200180831161059857829003601f168201915b505050505081526020016004820180546105ce90610d9b565b80601f01602080910402602001604051908101604052809291908181526020018280546105fa90610d9b565b80156106475780601f1061061c57610100808354040283529160200191610647565b820191906000526020600020905b81548152906001019060200180831161062a57829003601f168201915b5050505050815260200160058201805461066090610d9b565b80601f016020809104026020016040519081016040528092919081815260200182805461068c90610d9b565b80156106d95780601f106106ae576101008083540402835291602001916106d9565b820191906000526020600020905b8154815290600101906020018083116106bc57829003601f168201915b50505050508152602001600682015481526020016007820154815250508152602001906001019061049e565b505050509050919050565b600460009054906101000a900473ffffffffffffffffffffffffffffffffffffffff1681565b6001805461074390610d9b565b80601f016020809104026020016040519081016040528092919081815260200182805461076f90610d9b565b80156107bc5780601f10610791576101008083540402835291602001916107bc565b820191906000526020600020905b81548152906001019060200180831161079f57829003601f168201915b505050505081565b60025481565b8280546107d690610d9b565b90600052602060002090601f0160209004810192826107f8576000855561083f565b82601f1061081157805160ff191683800117855561083f565b8280016001018555821561083f579182015b8281111561083e578251825591602001919060010190610823565b5b50905061084c9190610850565b5090565b5b80821115610869576000816000905550600101610851565b5090565b600061088061087b84610c87565b610c56565b90508281526020810184848401111561089857600080fd5b6108a3848285610d59565b509392505050565b6000813590506108ba81610e3c565b92915050565b600082601f8301126108d157600080fd5b81356108e184826020860161086d565b91505092915050565b6000813590506108f981610e53565b92915050565b60006020828403121561091157600080fd5b600061091f848285016108ab565b91505092915050565b600080600080600060a0868803121561094057600080fd5b600086013567ffffffffffffffff81111561095a57600080fd5b610966888289016108c0565b955050602086013567ffffffffffffffff81111561098357600080fd5b61098f888289016108c0565b945050604086013567ffffffffffffffff8111156109ac57600080fd5b6109b8888289016108c0565b93505060606109c9888289016108ea565b92505060806109da888289016108ea565b9150509295509295909350565b60006109f38383610b00565b905092915050565b610a0481610d1d565b82525050565b610a1381610d1d565b82525050565b6000610a2482610cc7565b610a2e8185610cea565b935083602082028501610a4085610cb7565b8060005b85811015610a7c5784840389528151610a5d85826109e7565b9450610a6883610cdd565b925060208a01995050600181019050610a44565b50829750879550505050505092915050565b6000610a9982610cd2565b610aa38185610cfb565b9350610ab3818560208601610d68565b610abc81610e2b565b840191505092915050565b6000610ad282610cd2565b610adc8185610d0c565b9350610aec818560208601610d68565b610af581610e2b565b840191505092915050565b600061010083016000830151610b196000860182610bbe565b506020830151610b2c6020860182610bbe565b506040830151610b3f60408601826109fb565b5060608301518482036060860152610b578282610a8e565b91505060808301518482036080860152610b718282610a8e565b91505060a083015184820360a0860152610b8b8282610a8e565b91505060c0830151610ba060c0860182610bbe565b5060e0830151610bb360e0860182610bbe565b508091505092915050565b610bc781610d4f565b82525050565b610bd681610d4f565b82525050565b6000602082019050610bf16000830184610a0a565b92915050565b60006020820190508181036000830152610c118184610a19565b905092915050565b60006020820190508181036000830152610c338184610ac7565b905092915050565b6000602082019050610c506000830184610bcd565b92915050565b6000604051905081810181811067ffffffffffffffff82111715610c7d57610c7c610dfc565b5b8060405250919050565b600067ffffffffffffffff821115610ca257610ca1610dfc565b5b601f19601f8301169050602081019050919050565b6000819050602082019050919050565b600081519050919050565b600081519050919050565b6000602082019050919050565b600082825260208201905092915050565b600082825260208201905092915050565b600082825260208201905092915050565b6000610d2882610d2f565b9050919050565b600073ffffffffffffffffffffffffffffffffffffffff82169050919050565b6000819050919050565b82818337600083830152505050565b60005b83811015610d86578082015181840152602081019050610d6b565b83811115610d95576000848401525b50505050565b60006002820490506001821680610db357607f821691505b60208210811415610dc757610dc6610dcd565b5b50919050565b7f4e487b7100000000000000000000000000000000000000000000000000000000600052602260045260246000fd5b7f4e487b7100000000000000000000000000000000000000000000000000000000600052604160045260246000fd5b6000601f19601f8301169050919050565b610e4581610d1d565b8114610e5057600080fd5b50565b610e5c81610d4f565b8114610e6757600080fd5b5056fea2646970667358221220891304e76ab1f4d743c5fdae7b3b3630472b7e2b453c95eb6d17c88f9e02d91564736f6c63430008000033",
  "linkReferences": {},
  "deployedLinkReferences": {}
}