{
  "_format": "hh-sol-artifact-1",
  "contractName": "DevPipes",
  "sourceName": "contracts/DevPipes.sol",
  "abi": [
    {
      "inputs": [
        {
          "internalType": "uint256",
          "name": "projectId",
          "type": "uint256"
        },
        {
          "internalType": "address",
          "name": "user",
          "type": "address"
        },
        {
          "internalType": "uint256",
          "name": "amount",
          "type": "uint256"
        }
      ],
      "name": "addRoyalty",
      "outputs": [],
      "stateMutability": "nonpayable",
      "type": "function"
    },
    {
      "inputs": [
        {
          "internalType": "address",
          "name": "applicant",
          "type": "address"
        },
        {
          "internalType": "uint256",
          "name": "projectId",
          "type": "uint256"
        },
        {
          "internalType": "string",
          "name": "details1",
          "type": "string"
        },
        {
          "internalType": "string",
          "name": "details2",
          "type": "string"
        }
      ],
      "name": "applyForProject",
      "outputs": [],
      "stateMutability": "nonpayable",
      "type": "function"
    },
    {
      "inputs": [],
      "name": "balance",
      "outputs": [
        {
          "internalType": "uint256",
          "name": "",
          "type": "uint256"
        }
      ],
      "stateMutability": "view",
      "type": "function"
    },
    {
      "inputs": [
        {
          "internalType": "string",
          "name": "projectName",
          "type": "string"
        },
        {
          "internalType": "string",
          "name": "description",
          "type": "string"
        },
        {
          "internalType": "string",
          "name": "uri",
          "type": "string"
        },
        {
          "internalType": "string",
          "name": "tags",
          "type": "string"
        },
        {
          "internalType": "uint256",
          "name": "dueDate",
          "type": "uint256"
        },
        {
          "internalType": "uint256",
          "name": "budget",
          "type": "uint256"
        }
      ],
      "name": "createProject",
      "outputs": [],
      "stateMutability": "nonpayable",
      "type": "function"
    },
    {
      "inputs": [
        {
          "internalType": "uint256",
          "name": "parentId",
          "type": "uint256"
        },
        {
          "internalType": "string",
          "name": "projectName",
          "type": "string"
        },
        {
          "internalType": "string",
          "name": "description",
          "type": "string"
        },
        {
          "internalType": "string",
          "name": "uri",
          "type": "string"
        },
        {
          "internalType": "string",
          "name": "tags",
          "type": "string"
        },
        {
          "internalType": "uint256",
          "name": "dueDate",
          "type": "uint256"
        },
        {
          "internalType": "uint256",
          "name": "budget",
          "type": "uint256"
        }
      ],
      "name": "createSubProject",
      "outputs": [],
      "stateMutability": "nonpayable",
      "type": "function"
    },
    {
      "inputs": [
        {
          "internalType": "address",
          "name": "user",
          "type": "address"
        }
      ],
      "name": "getProjectsForUser",
      "outputs": [
        {
          "components": [
            {
              "internalType": "uint256",
              "name": "id",
              "type": "uint256"
            },
            {
              "internalType": "uint256",
              "name": "parentId",
              "type": "uint256"
            },
            {
              "internalType": "address",
              "name": "creator",
              "type": "address"
            },
            {
              "internalType": "string",
              "name": "name",
              "type": "string"
            },
            {
              "internalType": "string",
              "name": "description",
              "type": "string"
            },
            {
              "internalType": "string",
              "name": "uri",
              "type": "string"
            },
            {
              "internalType": "string",
              "name": "tags",
              "type": "string"
            },
            {
              "internalType": "uint256",
              "name": "dueDate",
              "type": "uint256"
            },
            {
              "internalType": "uint256",
              "name": "budget",
              "type": "uint256"
            },
            {
              "internalType": "uint8",
              "name": "status",
              "type": "uint8"
            }
          ],
          "internalType": "struct DevPipes.Project[]",
          "name": "",
          "type": "tuple[]"
        }
      ],
      "stateMutability": "view",
      "type": "function"
    },
    {
      "inputs": [
        {
          "internalType": "uint256",
          "name": "projectId",
          "type": "uint256"
        }
      ],
      "name": "getRoyaltiesTotal",
      "outputs": [
        {
          "internalType": "uint256",
          "name": "",
          "type": "uint256"
        }
      ],
      "stateMutability": "view",
      "type": "function"
    },
    {
      "inputs": [],
      "name": "init",
      "outputs": [],
      "stateMutability": "nonpayable",
      "type": "function"
    },
    {
      "inputs": [],
      "name": "name",
      "outputs": [
        {
          "internalType": "string",
          "name": "",
          "type": "string"
        }
      ],
      "stateMutability": "view",
      "type": "function"
    },
    {
      "inputs": [],
      "name": "numApplications",
      "outputs": [
        {
          "internalType": "uint256",
          "name": "",
          "type": "uint256"
        }
      ],
      "stateMutability": "view",
      "type": "function"
    },
    {
      "inputs": [],
      "name": "numPayments",
      "outputs": [
        {
          "internalType": "uint256",
          "name": "",
          "type": "uint256"
        }
      ],
      "stateMutability": "view",
      "type": "function"
    },
    {
      "inputs": [],
      "name": "numProjects",
      "outputs": [
        {
          "internalType": "uint256",
          "name": "",
          "type": "uint256"
        }
      ],
      "stateMutability": "view",
      "type": "function"
    },
    {
      "inputs": [],
      "name": "numSubProjects",
      "outputs": [
        {
          "internalType": "uint256",
          "name": "",
          "type": "uint256"
        }
      ],
      "stateMutability": "view",
      "type": "function"
    },
    {
      "inputs": [],
      "name": "owner",
      "outputs": [
        {
          "internalType": "address",
          "name": "",
          "type": "address"
        }
      ],
      "stateMutability": "view",
      "type": "function"
    },
    {
      "inputs": [
        {
          "internalType": "uint256",
          "name": "projectId",
          "type": "uint256"
        }
      ],
      "name": "publish",
      "outputs": [],
      "stateMutability": "nonpayable",
      "type": "function"
    },
    {
      "inputs": [],
      "name": "symbol",
      "outputs": [
        {
          "internalType": "string",
          "name": "",
          "type": "string"
        }
      ],
      "stateMutability": "view",
      "type": "function"
    },
    {
      "inputs": [
        {
          "internalType": "uint256",
          "name": "applicationId",
          "type": "uint256"
        }
      ],
      "name": "withdrawApplication",
      "outputs": [],
      "stateMutability": "nonpayable",
      "type": "function"
    }
  ],
  "bytecode": "0x608060405234801561001057600080fd5b50612f38806100206000396000f3fe608060405234801561001057600080fd5b506004361061010b5760003560e01c806371274734116100a257806395d89b411161007157806395d89b4114610294578063b69ef8a8146102b2578063cc4ef119146102d0578063e1c7392a146102ec578063f1d5314a146102f65761010b565b8063712747341461022057806381d3a83a1461023c5780638da5cb5b1461025a57806391b87f23146102785761010b565b806320fcd0dd116100de57806320fcd0dd14610184578063223153fa146101b45780632279fa4c146101e45780635a067baa146102025761010b565b8063012865a41461011057806306fdde031461012c57806316dcb2901461014a57806318fad13514610166575b600080fd5b61012a600480360381019061012591906123f6565b610312565b005b61013461063f565b6040516101419190612abc565b60405180910390f35b610164600480360381019061015f9190612363565b6106cd565b005b61016e610d80565b60405161017b9190612b9e565b60405180910390f35b61019e600480360381019061019991906124df565b610d86565b6040516101ab9190612b9e565b60405180910390f35b6101ce60048036038101906101c9919061233a565b610e35565b6040516101db9190612a9a565b60405180910390f35b6101ec6111b7565b6040516101f99190612b9e565b60405180910390f35b61020a6111bd565b6040516102179190612b9e565b60405180910390f35b61023a60048036038101906102359190612580565b6111c3565b005b610244611635565b6040516102519190612b9e565b60405180910390f35b61026261163b565b60405161026f9190612a7f565b60405180910390f35b610292600480360381019061028d9190612531565b611661565b005b61029c611cf9565b6040516102a99190612abc565b60405180910390f35b6102ba611d87565b6040516102c79190612b9e565b60405180910390f35b6102ea60048036038101906102e591906124df565b611d8d565b005b6102f4611fed565b005b610310600480360381019061030b91906124df565b6120f0565b005b60006040518061014001604052806003548152602001600081526020013373ffffffffffffffffffffffffffffffffffffffff168152602001888152602001878152602001868152602001858152602001848152602001838152602001600060ff16815250905060088190806001815401808255809150506001900390600052602060002090600a0201600090919091909150600082015181600001556020820151816001015560408201518160020160006101000a81548173ffffffffffffffffffffffffffffffffffffffff021916908373ffffffffffffffffffffffffffffffffffffffff160217905550606082015181600301908051906020019061041c9291906121f0565b5060808201518160040190805190602001906104399291906121f0565b5060a08201518160050190805190602001906104569291906121f0565b5060c08201518160060190805190602001906104739291906121f0565b5060e0820151816007015561010082015181600801556101208201518160090160006101000a81548160ff021916908360ff1602179055505050600b60003373ffffffffffffffffffffffffffffffffffffffff1673ffffffffffffffffffffffffffffffffffffffff1681526020019081526020016000208190806001815401808255809150506001900390600052602060002090600a0201600090919091909150600082015181600001556020820151816001015560408201518160020160006101000a81548173ffffffffffffffffffffffffffffffffffffffff021916908373ffffffffffffffffffffffffffffffffffffffff160217905550606082015181600301908051906020019061058d9291906121f0565b5060808201518160040190805190602001906105aa9291906121f0565b5060a08201518160050190805190602001906105c79291906121f0565b5060c08201518160060190805190602001906105e49291906121f0565b5060e0820151816007015561010082015181600801556101208201518160090160006101000a81548160ff021916908360ff16021790555050506003600081548092919061063190612ded565b919050555050505050505050565b6000805461064c90612dbb565b80601f016020809104026020016040519081016040528092919081815260200182805461067890612dbb565b80156106c55780601f1061069a576101008083540402835291602001916106c5565b820191906000526020600020905b8154815290600101906020018083116106a857829003601f168201915b505050505081565b600354831115610712576040517f08c379a000000000000000000000000000000000000000000000000000000000815260040161070990612b3e565b60405180910390fd5b60006008848154811061074e577f4e487b7100000000000000000000000000000000000000000000000000000000600052603260045260246000fd5b90600052602060002090600a02016040518061014001604052908160008201548152602001600182015481526020016002820160009054906101000a900473ffffffffffffffffffffffffffffffffffffffff1673ffffffffffffffffffffffffffffffffffffffff1673ffffffffffffffffffffffffffffffffffffffff1681526020016003820180546107e290612dbb565b80601f016020809104026020016040519081016040528092919081815260200182805461080e90612dbb565b801561085b5780601f106108305761010080835404028352916020019161085b565b820191906000526020600020905b81548152906001019060200180831161083e57829003601f168201915b5050505050815260200160048201805461087490612dbb565b80601f01602080910402602001604051908101604052809291908181526020018280546108a090612dbb565b80156108ed5780601f106108c2576101008083540402835291602001916108ed565b820191906000526020600020905b8154815290600101906020018083116108d057829003601f168201915b5050505050815260200160058201805461090690612dbb565b80601f016020809104026020016040519081016040528092919081815260200182805461093290612dbb565b801561097f5780601f106109545761010080835404028352916020019161097f565b820191906000526020600020905b81548152906001019060200180831161096257829003601f168201915b5050505050815260200160068201805461099890612dbb565b80601f01602080910402602001604051908101604052809291908181526020018280546109c490612dbb565b8015610a115780601f106109e657610100808354040283529160200191610a11565b820191906000526020600020905b8154815290600101906020018083116109f457829003601f168201915b5050505050815260200160078201548152602001600882015481526020016009820160009054906101000a900460ff1660ff1660ff1681525050905060006103e842610a5d9190612cd6565b90508160e001518110610aa5576040517f08c379a0000000000000000000000000000000000000000000000000000000008152600401610a9c90612b1e565b60405180910390fd5b600082610120015160ff1611610af0576040517f08c379a0000000000000000000000000000000000000000000000000000000008152600401610ae790612b5e565b60405180910390fd5b60006040518060e0016040528060055481526020018873ffffffffffffffffffffffffffffffffffffffff168152602001878152602001868152602001858152602001600015158152602001600060ff16815250905060098190806001815401808255809150506001900390600052602060002090600602016000909190919091506000820151816000015560208201518160010160006101000a81548173ffffffffffffffffffffffffffffffffffffffff021916908373ffffffffffffffffffffffffffffffffffffffff160217905550604082015181600201556060820151816003019080519060200190610be99291906121f0565b506080820151816004019080519060200190610c069291906121f0565b5060a08201518160050160006101000a81548160ff02191690831515021790555060c08201518160050160016101000a81548160ff021916908360ff1602179055505050600e60008781526020019081526020016000208190806001815401808255809150506001900390600052602060002090600602016000909190919091506000820151816000015560208201518160010160006101000a81548173ffffffffffffffffffffffffffffffffffffffff021916908373ffffffffffffffffffffffffffffffffffffffff160217905550604082015181600201556060820151816003019080519060200190610cfe9291906121f0565b506080820151816004019080519060200190610d1b9291906121f0565b5060a08201518160050160006101000a81548160ff02191690831515021790555060c08201518160050160016101000a81548160ff021916908360ff160217905550505060056000815480929190610d7290612ded565b919050555050505050505050565b60055481565b6000806000905060005b600d600085815260200190815260200160002080549050811015610e2b57600d60008581526020019081526020016000208181548110610df9577f4e487b7100000000000000000000000000000000000000000000000000000000600052603260045260246000fd5b90600052602060002090600402016002015482610e169190612c80565b91508080610e2390612ded565b915050610d90565b5080915050919050565b6060600b60008373ffffffffffffffffffffffffffffffffffffffff1673ffffffffffffffffffffffffffffffffffffffff168152602001908152602001600020805480602002602001604051908101604052809291908181526020016000905b828210156111ac57838290600052602060002090600a02016040518061014001604052908160008201548152602001600182015481526020016002820160009054906101000a900473ffffffffffffffffffffffffffffffffffffffff1673ffffffffffffffffffffffffffffffffffffffff1673ffffffffffffffffffffffffffffffffffffffff168152602001600382018054610f3490612dbb565b80601f0160208091040260200160405190810160405280929190818152602001828054610f6090612dbb565b8015610fad5780601f10610f8257610100808354040283529160200191610fad565b820191906000526020600020905b815481529060010190602001808311610f9057829003601f168201915b50505050508152602001600482018054610fc690612dbb565b80601f0160208091040260200160405190810160405280929190818152602001828054610ff290612dbb565b801561103f5780601f106110145761010080835404028352916020019161103f565b820191906000526020600020905b81548152906001019060200180831161102257829003601f168201915b5050505050815260200160058201805461105890612dbb565b80601f016020809104026020016040519081016040528092919081815260200182805461108490612dbb565b80156110d15780601f106110a6576101008083540402835291602001916110d1565b820191906000526020600020905b8154815290600101906020018083116110b457829003601f168201915b505050505081526020016006820180546110ea90612dbb565b80601f016020809104026020016040519081016040528092919081815260200182805461111690612dbb565b80156111635780601f1061113857610100808354040283529160200191611163565b820191906000526020600020905b81548152906001019060200180831161114657829003601f168201915b5050505050815260200160078201548152602001600882015481526020016009820160009054906101000a900460ff1660ff1660ff168152505081526020019060010190610e96565b505050509050919050565b60065481565b60035481565b600060405180610140016040528060035481526020018981526020013373ffffffffffffffffffffffffffffffffffffffff168152602001888152602001878152602001868152602001858152602001848152602001838152602001600060ff16815250905060088190806001815401808255809150506001900390600052602060002090600a0201600090919091909150600082015181600001556020820151816001015560408201518160020160006101000a81548173ffffffffffffffffffffffffffffffffffffffff021916908373ffffffffffffffffffffffffffffffffffffffff16021790555060608201518160030190805190602001906112cc9291906121f0565b5060808201518160040190805190602001906112e99291906121f0565b5060a08201518160050190805190602001906113069291906121f0565b5060c08201518160060190805190602001906113239291906121f0565b5060e0820151816007015561010082015181600801556101208201518160090160006101000a81548160ff021916908360ff1602179055505050600c60008981526020019081526020016000208190806001815401808255809150506001900390600052602060002090600a0201600090919091909150600082015181600001556020820151816001015560408201518160020160006101000a81548173ffffffffffffffffffffffffffffffffffffffff021916908373ffffffffffffffffffffffffffffffffffffffff16021790555060608201518160030190805190602001906114119291906121f0565b50608082015181600401908051906020019061142e9291906121f0565b5060a082015181600501908051906020019061144b9291906121f0565b5060c08201518160060190805190602001906114689291906121f0565b5060e0820151816007015561010082015181600801556101208201518160090160006101000a81548160ff021916908360ff1602179055505050600b60003373ffffffffffffffffffffffffffffffffffffffff1673ffffffffffffffffffffffffffffffffffffffff1681526020019081526020016000208190806001815401808255809150506001900390600052602060002090600a0201600090919091909150600082015181600001556020820151816001015560408201518160020160006101000a81548173ffffffffffffffffffffffffffffffffffffffff021916908373ffffffffffffffffffffffffffffffffffffffff16021790555060608201518160030190805190602001906115829291906121f0565b50608082015181600401908051906020019061159f9291906121f0565b5060a08201518160050190805190602001906115bc9291906121f0565b5060c08201518160060190805190602001906115d99291906121f0565b5060e0820151816007015561010082015181600801556101208201518160090160006101000a81548160ff021916908360ff16021790555050506003600081548092919061162690612ded565b91905055505050505050505050565b60045481565b600760009054906101000a900473ffffffffffffffffffffffffffffffffffffffff1681565b6003548311156116a6576040517f08c379a000000000000000000000000000000000000000000000000000000000815260040161169d90612b3e565b60405180910390fd5b6000600884815481106116e2577f4e487b7100000000000000000000000000000000000000000000000000000000600052603260045260246000fd5b90600052602060002090600a02016040518061014001604052908160008201548152602001600182015481526020016002820160009054906101000a900473ffffffffffffffffffffffffffffffffffffffff1673ffffffffffffffffffffffffffffffffffffffff1673ffffffffffffffffffffffffffffffffffffffff16815260200160038201805461177690612dbb565b80601f01602080910402602001604051908101604052809291908181526020018280546117a290612dbb565b80156117ef5780601f106117c4576101008083540402835291602001916117ef565b820191906000526020600020905b8154815290600101906020018083116117d257829003601f168201915b5050505050815260200160048201805461180890612dbb565b80601f016020809104026020016040519081016040528092919081815260200182805461183490612dbb565b80156118815780601f1061185657610100808354040283529160200191611881565b820191906000526020600020905b81548152906001019060200180831161186457829003601f168201915b5050505050815260200160058201805461189a90612dbb565b80601f01602080910402602001604051908101604052809291908181526020018280546118c690612dbb565b80156119135780601f106118e857610100808354040283529160200191611913565b820191906000526020600020905b8154815290600101906020018083116118f657829003601f168201915b5050505050815260200160068201805461192c90612dbb565b80601f016020809104026020016040519081016040528092919081815260200182805461195890612dbb565b80156119a55780601f1061197a576101008083540402835291602001916119a5565b820191906000526020600020905b81548152906001019060200180831161198857829003601f168201915b5050505050815260200160078201548152602001600882015481526020016009820160009054906101000a900460ff1660ff1660ff168152505090503373ffffffffffffffffffffffffffffffffffffffff16816040015173ffffffffffffffffffffffffffffffffffffffff1614611a53576040517f08c379a0000000000000000000000000000000000000000000000000000000008152600401611a4a90612ade565b60405180910390fd5b60003073ffffffffffffffffffffffffffffffffffffffff166320fcd0dd866040518263ffffffff1660e01b8152600401611a8e9190612b9e565b60206040518083038186803b158015611aa657600080fd5b505afa158015611aba573d6000803e3d6000fd5b505050506040513d601f19601f82011682018060405250810190611ade9190612508565b90508161010001518382611af29190612c80565b1115611b33576040517f08c379a0000000000000000000000000000000000000000000000000000000008152600401611b2a90612b7e565b60405180910390fd5b6000604051806080016040528060065481526020018673ffffffffffffffffffffffffffffffffffffffff168152602001858152602001600060ff168152509050600a8190806001815401808255809150506001900390600052602060002090600402016000909190919091506000820151816000015560208201518160010160006101000a81548173ffffffffffffffffffffffffffffffffffffffff021916908373ffffffffffffffffffffffffffffffffffffffff1602179055506040820151816002015560608201518160030160006101000a81548160ff021916908360ff1602179055505050600d60008781526020019081526020016000208190806001815401808255809150506001900390600052602060002090600402016000909190919091506000820151816000015560208201518160010160006101000a81548173ffffffffffffffffffffffffffffffffffffffff021916908373ffffffffffffffffffffffffffffffffffffffff1602179055506040820151816002015560608201518160030160006101000a81548160ff021916908360ff160217905550505060066000815480929190611cec90612ded565b9190505550505050505050565b60018054611d0690612dbb565b80601f0160208091040260200160405190810160405280929190818152602001828054611d3290612dbb565b8015611d7f5780601f10611d5457610100808354040283529160200191611d7f565b820191906000526020600020905b815481529060010190602001808311611d6257829003601f168201915b505050505081565b60025481565b600354811115611dd2576040517f08c379a0000000000000000000000000000000000000000000000000000000008152600401611dc990612b3e565b60405180910390fd5b600060088281548110611e0e577f4e487b7100000000000000000000000000000000000000000000000000000000600052603260045260246000fd5b90600052602060002090600a020190503373ffffffffffffffffffffffffffffffffffffffff168160020160009054906101000a900473ffffffffffffffffffffffffffffffffffffffff1673ffffffffffffffffffffffffffffffffffffffff1614611eb0576040517f08c379a0000000000000000000000000000000000000000000000000000000008152600401611ea790612ade565b60405180910390fd5b60018160090160006101000a81548160ff021916908360ff16021790555060005b600b60003373ffffffffffffffffffffffffffffffffffffffff1673ffffffffffffffffffffffffffffffffffffffff16815260200190815260200160002080549050811015611fe8576000600b60003373ffffffffffffffffffffffffffffffffffffffff1673ffffffffffffffffffffffffffffffffffffffff1681526020019081526020016000208281548110611f94577f4e487b7100000000000000000000000000000000000000000000000000000000600052603260045260246000fd5b90600052602060002090600a020190508381600001541415611fd45760018160090160006101000a81548160ff021916908360ff16021790555050611fe8565b508080611fe090612ded565b915050611ed1565b505050565b33600760006101000a81548173ffffffffffffffffffffffffffffffffffffffff021916908373ffffffffffffffffffffffffffffffffffffffff1602179055506040518060400160405280600981526020017f4465762050697065730000000000000000000000000000000000000000000000815250600090805190602001906120799291906121f0565b506040518060400160405280600581526020017f5049504553000000000000000000000000000000000000000000000000000000815250600190805190602001906120c59291906121f0565b5060006002819055506000600381905550600060048190555060006005819055506000600681905550565b60006009828154811061212c577f4e487b7100000000000000000000000000000000000000000000000000000000600052603260045260246000fd5b906000526020600020906006020190503373ffffffffffffffffffffffffffffffffffffffff168160010160009054906101000a900473ffffffffffffffffffffffffffffffffffffffff1673ffffffffffffffffffffffffffffffffffffffff16146121ce576040517f08c379a00000000000000000000000000000000000000000000000000000000081526004016121c590612afe565b60405180910390fd5b60018160050160016101000a81548160ff021916908360ff1602179055505050565b8280546121fc90612dbb565b90600052602060002090601f01602090048101928261221e5760008555612265565b82601f1061223757805160ff1916838001178555612265565b82800160010185558215612265579182015b82811115612264578251825591602001919060010190612249565b5b5090506122729190612276565b5090565b5b8082111561228f576000816000905550600101612277565b5090565b60006122a66122a184612bea565b612bb9565b9050828152602081018484840111156122be57600080fd5b6122c9848285612d79565b509392505050565b6000813590506122e081612ed4565b92915050565b600082601f8301126122f757600080fd5b8135612307848260208601612293565b91505092915050565b60008135905061231f81612eeb565b92915050565b60008151905061233481612eeb565b92915050565b60006020828403121561234c57600080fd5b600061235a848285016122d1565b91505092915050565b6000806000806080858703121561237957600080fd5b6000612387878288016122d1565b945050602061239887828801612310565b935050604085013567ffffffffffffffff8111156123b557600080fd5b6123c1878288016122e6565b925050606085013567ffffffffffffffff8111156123de57600080fd5b6123ea878288016122e6565b91505092959194509250565b60008060008060008060c0878903121561240f57600080fd5b600087013567ffffffffffffffff81111561242957600080fd5b61243589828a016122e6565b965050602087013567ffffffffffffffff81111561245257600080fd5b61245e89828a016122e6565b955050604087013567ffffffffffffffff81111561247b57600080fd5b61248789828a016122e6565b945050606087013567ffffffffffffffff8111156124a457600080fd5b6124b089828a016122e6565b93505060806124c189828a01612310565b92505060a06124d289828a01612310565b9150509295509295509295565b6000602082840312156124f157600080fd5b60006124ff84828501612310565b91505092915050565b60006020828403121561251a57600080fd5b600061252884828501612325565b91505092915050565b60008060006060848603121561254657600080fd5b600061255486828701612310565b9350506020612565868287016122d1565b925050604061257686828701612310565b9150509250925092565b600080600080600080600060e0888a03121561259b57600080fd5b60006125a98a828b01612310565b975050602088013567ffffffffffffffff8111156125c657600080fd5b6125d28a828b016122e6565b965050604088013567ffffffffffffffff8111156125ef57600080fd5b6125fb8a828b016122e6565b955050606088013567ffffffffffffffff81111561261857600080fd5b6126248a828b016122e6565b945050608088013567ffffffffffffffff81111561264157600080fd5b61264d8a828b016122e6565b93505060a061265e8a828b01612310565b92505060c061266f8a828b01612310565b91505092959891949750929550565b600061268a8383612963565b905092915050565b61269b81612d30565b82525050565b6126aa81612d30565b82525050565b60006126bb82612c2a565b6126c58185612c4d565b9350836020820285016126d785612c1a565b8060005b8581101561271357848403895281516126f4858261267e565b94506126ff83612c40565b925060208a019950506001810190506126db565b50829750879550505050505092915050565b600061273082612c35565b61273a8185612c5e565b935061274a818560208601612d88565b61275381612ec3565b840191505092915050565b600061276982612c35565b6127738185612c6f565b9350612783818560208601612d88565b61278c81612ec3565b840191505092915050565b60006127a4602383612c6f565b91507f6572726f725f6f6e6c795f70726f6a6563745f63726561746f725f63616e5f6560008301527f64697400000000000000000000000000000000000000000000000000000000006020830152604082019050919050565b600061280a602783612c6f565b91507f6572726f725f6f6e6c795f6170706c69636174696f6e5f63726561746f725f6360008301527f616e5f65646974000000000000000000000000000000000000000000000000006020830152604082019050919050565b6000612870601583612c6f565b91507f6572726f725f70726f6a6563745f6578706972656400000000000000000000006000830152602082019050919050565b60006128b0601c83612c6f565b91507f6572726f725f70726f6a6563745f646f65735f6e6f745f6578697374000000006000830152602082019050919050565b60006128f0600083612c6f565b9150600082019050919050565b600061290a602683612c6f565b91507f6572726f725f726f79616c746965735f6578636565645f746f74616c5f61766160008301527f696c61626c6500000000000000000000000000000000000000000000000000006020830152604082019050919050565b60006101408301600083015161297c6000860182612a52565b50602083015161298f6020860182612a52565b5060408301516129a26040860182612692565b50606083015184820360608601526129ba8282612725565b915050608083015184820360808601526129d48282612725565b91505060a083015184820360a08601526129ee8282612725565b91505060c083015184820360c0860152612a088282612725565b91505060e0830151612a1d60e0860182612a52565b50610100830151612a32610100860182612a52565b50610120830151612a47610120860182612a70565b508091505092915050565b612a5b81612d62565b82525050565b612a6a81612d62565b82525050565b612a7981612d6c565b82525050565b6000602082019050612a9460008301846126a1565b92915050565b60006020820190508181036000830152612ab481846126b0565b905092915050565b60006020820190508181036000830152612ad6818461275e565b905092915050565b60006020820190508181036000830152612af781612797565b9050919050565b60006020820190508181036000830152612b17816127fd565b9050919050565b60006020820190508181036000830152612b3781612863565b9050919050565b60006020820190508181036000830152612b57816128a3565b9050919050565b60006020820190508181036000830152612b77816128e3565b9050919050565b60006020820190508181036000830152612b97816128fd565b9050919050565b6000602082019050612bb36000830184612a61565b92915050565b6000604051905081810181811067ffffffffffffffff82111715612be057612bdf612e94565b5b8060405250919050565b600067ffffffffffffffff821115612c0557612c04612e94565b5b601f19601f8301169050602081019050919050565b6000819050602082019050919050565b600081519050919050565b600081519050919050565b6000602082019050919050565b600082825260208201905092915050565b600082825260208201905092915050565b600082825260208201905092915050565b6000612c8b82612d62565b9150612c9683612d62565b9250827fffffffffffffffffffffffffffffffffffffffffffffffffffffffffffffffff03821115612ccb57612cca612e36565b5b828201905092915050565b6000612ce182612d62565b9150612cec83612d62565b9250817fffffffffffffffffffffffffffffffffffffffffffffffffffffffffffffffff0483118215151615612d2557612d24612e36565b5b828202905092915050565b6000612d3b82612d42565b9050919050565b600073ffffffffffffffffffffffffffffffffffffffff82169050919050565b6000819050919050565b600060ff82169050919050565b82818337600083830152505050565b60005b83811015612da6578082015181840152602081019050612d8b565b83811115612db5576000848401525b50505050565b60006002820490506001821680612dd357607f821691505b60208210811415612de757612de6612e65565b5b50919050565b6000612df882612d62565b91507fffffffffffffffffffffffffffffffffffffffffffffffffffffffffffffffff821415612e2b57612e2a612e36565b5b600182019050919050565b7f4e487b7100000000000000000000000000000000000000000000000000000000600052601160045260246000fd5b7f4e487b7100000000000000000000000000000000000000000000000000000000600052602260045260246000fd5b7f4e487b7100000000000000000000000000000000000000000000000000000000600052604160045260246000fd5b6000601f19601f8301169050919050565b612edd81612d30565b8114612ee857600080fd5b50565b612ef481612d62565b8114612eff57600080fd5b5056fea2646970667358221220e5e64eefcc83a5eaa26409837a13e573390d3dfc82b029f9418baf2a1193ae4d64736f6c63430008000033",
  "linkReferences": {},
  "deployedLinkReferences": {}
}