{
  "_format": "hh-sol-artifact-1",
  "contractName": "DevPipes",
  "sourceName": "contracts/DevPipes.sol",
  "abi": [
    {
      "inputs": [
        {
          "internalType": "uint256",
          "name": "projectId",
          "type": "uint256"
        },
        {
          "internalType": "address",
          "name": "user",
          "type": "address"
        },
        {
          "internalType": "uint256",
          "name": "amount",
          "type": "uint256"
        }
      ],
      "name": "addRoyalty",
      "outputs": [],
      "stateMutability": "nonpayable",
      "type": "function"
    },
    {
      "inputs": [
        {
          "internalType": "address",
          "name": "applicant",
          "type": "address"
        },
        {
          "internalType": "uint256",
          "name": "projectId",
          "type": "uint256"
        },
        {
          "internalType": "string",
          "name": "details1",
          "type": "string"
        },
        {
          "internalType": "string",
          "name": "details2",
          "type": "string"
        }
      ],
      "name": "applyForProject",
      "outputs": [],
      "stateMutability": "nonpayable",
      "type": "function"
    },
    {
      "inputs": [],
      "name": "balance",
      "outputs": [
        {
          "internalType": "uint256",
          "name": "",
          "type": "uint256"
        }
      ],
      "stateMutability": "view",
      "type": "function"
    },
    {
      "inputs": [
        {
          "internalType": "string",
          "name": "projectName",
          "type": "string"
        },
        {
          "internalType": "string",
          "name": "description",
          "type": "string"
        },
        {
          "internalType": "string",
          "name": "uri",
          "type": "string"
        },
        {
          "internalType": "string",
          "name": "tags",
          "type": "string"
        },
        {
          "internalType": "uint256",
          "name": "dueDate",
          "type": "uint256"
        },
        {
          "internalType": "uint256",
          "name": "budget",
          "type": "uint256"
        }
      ],
      "name": "createProject",
      "outputs": [],
      "stateMutability": "nonpayable",
      "type": "function"
    },
    {
      "inputs": [
        {
          "internalType": "uint256",
          "name": "parentId",
          "type": "uint256"
        },
        {
          "internalType": "string",
          "name": "projectName",
          "type": "string"
        },
        {
          "internalType": "string",
          "name": "description",
          "type": "string"
        },
        {
          "internalType": "string",
          "name": "uri",
          "type": "string"
        },
        {
          "internalType": "string",
          "name": "tags",
          "type": "string"
        },
        {
          "internalType": "uint256",
          "name": "dueDate",
          "type": "uint256"
        },
        {
          "internalType": "uint256",
          "name": "budget",
          "type": "uint256"
        }
      ],
      "name": "createSubProject",
      "outputs": [],
      "stateMutability": "nonpayable",
      "type": "function"
    },
    {
      "inputs": [
        {
          "internalType": "address",
          "name": "user",
          "type": "address"
        }
      ],
      "name": "getProjectsForUser",
      "outputs": [
        {
          "components": [
            {
              "internalType": "uint256",
              "name": "id",
              "type": "uint256"
            },
            {
              "internalType": "uint256",
              "name": "parentId",
              "type": "uint256"
            },
            {
              "internalType": "address",
              "name": "creator",
              "type": "address"
            },
            {
              "internalType": "string",
              "name": "name",
              "type": "string"
            },
            {
              "internalType": "string",
              "name": "description",
              "type": "string"
            },
            {
              "internalType": "string",
              "name": "uri",
              "type": "string"
            },
            {
              "internalType": "string",
              "name": "tags",
              "type": "string"
            },
            {
              "internalType": "uint256",
              "name": "dueDate",
              "type": "uint256"
            },
            {
              "internalType": "uint256",
              "name": "budget",
              "type": "uint256"
            },
            {
              "internalType": "uint8",
              "name": "status",
              "type": "uint8"
            }
          ],
          "internalType": "struct DevPipes.Project[]",
          "name": "",
          "type": "tuple[]"
        }
      ],
      "stateMutability": "view",
      "type": "function"
    },
    {
      "inputs": [
        {
          "internalType": "uint256",
          "name": "projectId",
          "type": "uint256"
        }
      ],
      "name": "getRoyaltiesTotal",
      "outputs": [
        {
          "internalType": "uint256",
          "name": "",
          "type": "uint256"
        }
      ],
      "stateMutability": "view",
      "type": "function"
    },
    {
      "inputs": [],
      "name": "init",
      "outputs": [],
      "stateMutability": "nonpayable",
      "type": "function"
    },
    {
      "inputs": [],
      "name": "name",
      "outputs": [
        {
          "internalType": "string",
          "name": "",
          "type": "string"
        }
      ],
      "stateMutability": "view",
      "type": "function"
    },
    {
      "inputs": [],
      "name": "numApplications",
      "outputs": [
        {
          "internalType": "uint256",
          "name": "",
          "type": "uint256"
        }
      ],
      "stateMutability": "view",
      "type": "function"
    },
    {
      "inputs": [],
      "name": "numPayments",
      "outputs": [
        {
          "internalType": "uint256",
          "name": "",
          "type": "uint256"
        }
      ],
      "stateMutability": "view",
      "type": "function"
    },
    {
      "inputs": [],
      "name": "numProjects",
      "outputs": [
        {
          "internalType": "uint256",
          "name": "",
          "type": "uint256"
        }
      ],
      "stateMutability": "view",
      "type": "function"
    },
    {
      "inputs": [],
      "name": "numSubProjects",
      "outputs": [
        {
          "internalType": "uint256",
          "name": "",
          "type": "uint256"
        }
      ],
      "stateMutability": "view",
      "type": "function"
    },
    {
      "inputs": [],
      "name": "owner",
      "outputs": [
        {
          "internalType": "address",
          "name": "",
          "type": "address"
        }
      ],
      "stateMutability": "view",
      "type": "function"
    },
    {
      "inputs": [
        {
          "internalType": "uint256",
          "name": "projectId",
          "type": "uint256"
        }
      ],
      "name": "publish",
      "outputs": [],
      "stateMutability": "nonpayable",
      "type": "function"
    },
    {
      "inputs": [],
      "name": "symbol",
      "outputs": [
        {
          "internalType": "string",
          "name": "",
          "type": "string"
        }
      ],
      "stateMutability": "view",
      "type": "function"
    },
    {
      "inputs": [
        {
          "internalType": "uint256",
          "name": "applicationId",
          "type": "uint256"
        }
      ],
      "name": "withdrawApplication",
      "outputs": [],
      "stateMutability": "nonpayable",
      "type": "function"
    }
  ],
  "bytecode": "0x608060405234801561001057600080fd5b50612d93806100206000396000f3fe608060405234801561001057600080fd5b506004361061010b5760003560e01c806371274734116100a257806395d89b411161007157806395d89b4114610294578063b69ef8a8146102b2578063cc4ef119146102d0578063e1c7392a146102ec578063f1d5314a146102f65761010b565b8063712747341461022057806381d3a83a1461023c5780638da5cb5b1461025a57806391b87f23146102785761010b565b806320fcd0dd116100de57806320fcd0dd14610184578063223153fa146101b45780632279fa4c146101e45780635a067baa146102025761010b565b8063012865a41461011057806306fdde031461012c57806316dcb2901461014a57806318fad13514610166575b600080fd5b61012a60048036038101906101259190612251565b610312565b005b61013461063f565b6040516101419190612917565b60405180910390f35b610164600480360381019061015f91906121be565b6106cd565b005b61016e610d80565b60405161017b91906129f9565b60405180910390f35b61019e6004803603810190610199919061233a565b610d86565b6040516101ab91906129f9565b60405180910390f35b6101ce60048036038101906101c99190612195565b610e35565b6040516101db91906128f5565b60405180910390f35b6101ec6111b7565b6040516101f991906129f9565b60405180910390f35b61020a6111bd565b60405161021791906129f9565b60405180910390f35b61023a600480360381019061023591906123db565b6111c3565b005b610244611635565b60405161025191906129f9565b60405180910390f35b61026261163b565b60405161026f91906128da565b60405180910390f35b610292600480360381019061028d919061238c565b611661565b005b61029c611cb4565b6040516102a99190612917565b60405180910390f35b6102ba611d42565b6040516102c791906129f9565b60405180910390f35b6102ea60048036038101906102e5919061233a565b611d48565b005b6102f4611e48565b005b610310600480360381019061030b919061233a565b611f4b565b005b60006040518061014001604052806003548152602001600081526020013373ffffffffffffffffffffffffffffffffffffffff168152602001888152602001878152602001868152602001858152602001848152602001838152602001600060ff16815250905060088190806001815401808255809150506001900390600052602060002090600a0201600090919091909150600082015181600001556020820151816001015560408201518160020160006101000a81548173ffffffffffffffffffffffffffffffffffffffff021916908373ffffffffffffffffffffffffffffffffffffffff160217905550606082015181600301908051906020019061041c92919061204b565b50608082015181600401908051906020019061043992919061204b565b5060a082015181600501908051906020019061045692919061204b565b5060c082015181600601908051906020019061047392919061204b565b5060e0820151816007015561010082015181600801556101208201518160090160006101000a81548160ff021916908360ff1602179055505050600b60003373ffffffffffffffffffffffffffffffffffffffff1673ffffffffffffffffffffffffffffffffffffffff1681526020019081526020016000208190806001815401808255809150506001900390600052602060002090600a0201600090919091909150600082015181600001556020820151816001015560408201518160020160006101000a81548173ffffffffffffffffffffffffffffffffffffffff021916908373ffffffffffffffffffffffffffffffffffffffff160217905550606082015181600301908051906020019061058d92919061204b565b5060808201518160040190805190602001906105aa92919061204b565b5060a08201518160050190805190602001906105c792919061204b565b5060c08201518160060190805190602001906105e492919061204b565b5060e0820151816007015561010082015181600801556101208201518160090160006101000a81548160ff021916908360ff16021790555050506003600081548092919061063190612c48565b919050555050505050505050565b6000805461064c90612c16565b80601f016020809104026020016040519081016040528092919081815260200182805461067890612c16565b80156106c55780601f1061069a576101008083540402835291602001916106c5565b820191906000526020600020905b8154815290600101906020018083116106a857829003601f168201915b505050505081565b600354831115610712576040517f08c379a000000000000000000000000000000000000000000000000000000000815260040161070990612999565b60405180910390fd5b60006008848154811061074e577f4e487b7100000000000000000000000000000000000000000000000000000000600052603260045260246000fd5b90600052602060002090600a02016040518061014001604052908160008201548152602001600182015481526020016002820160009054906101000a900473ffffffffffffffffffffffffffffffffffffffff1673ffffffffffffffffffffffffffffffffffffffff1673ffffffffffffffffffffffffffffffffffffffff1681526020016003820180546107e290612c16565b80601f016020809104026020016040519081016040528092919081815260200182805461080e90612c16565b801561085b5780601f106108305761010080835404028352916020019161085b565b820191906000526020600020905b81548152906001019060200180831161083e57829003601f168201915b5050505050815260200160048201805461087490612c16565b80601f01602080910402602001604051908101604052809291908181526020018280546108a090612c16565b80156108ed5780601f106108c2576101008083540402835291602001916108ed565b820191906000526020600020905b8154815290600101906020018083116108d057829003601f168201915b5050505050815260200160058201805461090690612c16565b80601f016020809104026020016040519081016040528092919081815260200182805461093290612c16565b801561097f5780601f106109545761010080835404028352916020019161097f565b820191906000526020600020905b81548152906001019060200180831161096257829003601f168201915b5050505050815260200160068201805461099890612c16565b80601f01602080910402602001604051908101604052809291908181526020018280546109c490612c16565b8015610a115780601f106109e657610100808354040283529160200191610a11565b820191906000526020600020905b8154815290600101906020018083116109f457829003601f168201915b5050505050815260200160078201548152602001600882015481526020016009820160009054906101000a900460ff1660ff1660ff1681525050905060006103e842610a5d9190612b31565b90508160e001518110610aa5576040517f08c379a0000000000000000000000000000000000000000000000000000000008152600401610a9c90612979565b60405180910390fd5b600082610120015160ff1611610af0576040517f08c379a0000000000000000000000000000000000000000000000000000000008152600401610ae7906129b9565b60405180910390fd5b60006040518060e0016040528060055481526020018873ffffffffffffffffffffffffffffffffffffffff168152602001878152602001868152602001858152602001600015158152602001600060ff16815250905060098190806001815401808255809150506001900390600052602060002090600602016000909190919091506000820151816000015560208201518160010160006101000a81548173ffffffffffffffffffffffffffffffffffffffff021916908373ffffffffffffffffffffffffffffffffffffffff160217905550604082015181600201556060820151816003019080519060200190610be992919061204b565b506080820151816004019080519060200190610c0692919061204b565b5060a08201518160050160006101000a81548160ff02191690831515021790555060c08201518160050160016101000a81548160ff021916908360ff1602179055505050600e60008781526020019081526020016000208190806001815401808255809150506001900390600052602060002090600602016000909190919091506000820151816000015560208201518160010160006101000a81548173ffffffffffffffffffffffffffffffffffffffff021916908373ffffffffffffffffffffffffffffffffffffffff160217905550604082015181600201556060820151816003019080519060200190610cfe92919061204b565b506080820151816004019080519060200190610d1b92919061204b565b5060a08201518160050160006101000a81548160ff02191690831515021790555060c08201518160050160016101000a81548160ff021916908360ff160217905550505060056000815480929190610d7290612c48565b919050555050505050505050565b60055481565b6000806000905060005b600d600085815260200190815260200160002080549050811015610e2b57600d60008581526020019081526020016000208181548110610df9577f4e487b7100000000000000000000000000000000000000000000000000000000600052603260045260246000fd5b90600052602060002090600402016002015482610e169190612adb565b91508080610e2390612c48565b915050610d90565b5080915050919050565b6060600b60008373ffffffffffffffffffffffffffffffffffffffff1673ffffffffffffffffffffffffffffffffffffffff168152602001908152602001600020805480602002602001604051908101604052809291908181526020016000905b828210156111ac57838290600052602060002090600a02016040518061014001604052908160008201548152602001600182015481526020016002820160009054906101000a900473ffffffffffffffffffffffffffffffffffffffff1673ffffffffffffffffffffffffffffffffffffffff1673ffffffffffffffffffffffffffffffffffffffff168152602001600382018054610f3490612c16565b80601f0160208091040260200160405190810160405280929190818152602001828054610f6090612c16565b8015610fad5780601f10610f8257610100808354040283529160200191610fad565b820191906000526020600020905b815481529060010190602001808311610f9057829003601f168201915b50505050508152602001600482018054610fc690612c16565b80601f0160208091040260200160405190810160405280929190818152602001828054610ff290612c16565b801561103f5780601f106110145761010080835404028352916020019161103f565b820191906000526020600020905b81548152906001019060200180831161102257829003601f168201915b5050505050815260200160058201805461105890612c16565b80601f016020809104026020016040519081016040528092919081815260200182805461108490612c16565b80156110d15780601f106110a6576101008083540402835291602001916110d1565b820191906000526020600020905b8154815290600101906020018083116110b457829003601f168201915b505050505081526020016006820180546110ea90612c16565b80601f016020809104026020016040519081016040528092919081815260200182805461111690612c16565b80156111635780601f1061113857610100808354040283529160200191611163565b820191906000526020600020905b81548152906001019060200180831161114657829003601f168201915b5050505050815260200160078201548152602001600882015481526020016009820160009054906101000a900460ff1660ff1660ff168152505081526020019060010190610e96565b505050509050919050565b60065481565b60035481565b600060405180610140016040528060035481526020018981526020013373ffffffffffffffffffffffffffffffffffffffff168152602001888152602001878152602001868152602001858152602001848152602001838152602001600060ff16815250905060088190806001815401808255809150506001900390600052602060002090600a0201600090919091909150600082015181600001556020820151816001015560408201518160020160006101000a81548173ffffffffffffffffffffffffffffffffffffffff021916908373ffffffffffffffffffffffffffffffffffffffff16021790555060608201518160030190805190602001906112cc92919061204b565b5060808201518160040190805190602001906112e992919061204b565b5060a082015181600501908051906020019061130692919061204b565b5060c082015181600601908051906020019061132392919061204b565b5060e0820151816007015561010082015181600801556101208201518160090160006101000a81548160ff021916908360ff1602179055505050600c60008981526020019081526020016000208190806001815401808255809150506001900390600052602060002090600a0201600090919091909150600082015181600001556020820151816001015560408201518160020160006101000a81548173ffffffffffffffffffffffffffffffffffffffff021916908373ffffffffffffffffffffffffffffffffffffffff160217905550606082015181600301908051906020019061141192919061204b565b50608082015181600401908051906020019061142e92919061204b565b5060a082015181600501908051906020019061144b92919061204b565b5060c082015181600601908051906020019061146892919061204b565b5060e0820151816007015561010082015181600801556101208201518160090160006101000a81548160ff021916908360ff1602179055505050600b60003373ffffffffffffffffffffffffffffffffffffffff1673ffffffffffffffffffffffffffffffffffffffff1681526020019081526020016000208190806001815401808255809150506001900390600052602060002090600a0201600090919091909150600082015181600001556020820151816001015560408201518160020160006101000a81548173ffffffffffffffffffffffffffffffffffffffff021916908373ffffffffffffffffffffffffffffffffffffffff160217905550606082015181600301908051906020019061158292919061204b565b50608082015181600401908051906020019061159f92919061204b565b5060a08201518160050190805190602001906115bc92919061204b565b5060c08201518160060190805190602001906115d992919061204b565b5060e0820151816007015561010082015181600801556101208201518160090160006101000a81548160ff021916908360ff16021790555050506003600081548092919061162690612c48565b91905055505050505050505050565b60045481565b600760009054906101000a900473ffffffffffffffffffffffffffffffffffffffff1681565b60006008848154811061169d577f4e487b7100000000000000000000000000000000000000000000000000000000600052603260045260246000fd5b90600052602060002090600a02016040518061014001604052908160008201548152602001600182015481526020016002820160009054906101000a900473ffffffffffffffffffffffffffffffffffffffff1673ffffffffffffffffffffffffffffffffffffffff1673ffffffffffffffffffffffffffffffffffffffff16815260200160038201805461173190612c16565b80601f016020809104026020016040519081016040528092919081815260200182805461175d90612c16565b80156117aa5780601f1061177f576101008083540402835291602001916117aa565b820191906000526020600020905b81548152906001019060200180831161178d57829003601f168201915b505050505081526020016004820180546117c390612c16565b80601f01602080910402602001604051908101604052809291908181526020018280546117ef90612c16565b801561183c5780601f106118115761010080835404028352916020019161183c565b820191906000526020600020905b81548152906001019060200180831161181f57829003601f168201915b5050505050815260200160058201805461185590612c16565b80601f016020809104026020016040519081016040528092919081815260200182805461188190612c16565b80156118ce5780601f106118a3576101008083540402835291602001916118ce565b820191906000526020600020905b8154815290600101906020018083116118b157829003601f168201915b505050505081526020016006820180546118e790612c16565b80601f016020809104026020016040519081016040528092919081815260200182805461191390612c16565b80156119605780601f1061193557610100808354040283529160200191611960565b820191906000526020600020905b81548152906001019060200180831161194357829003601f168201915b5050505050815260200160078201548152602001600882015481526020016009820160009054906101000a900460ff1660ff1660ff168152505090503373ffffffffffffffffffffffffffffffffffffffff16816040015173ffffffffffffffffffffffffffffffffffffffff1614611a0e576040517f08c379a0000000000000000000000000000000000000000000000000000000008152600401611a0590612939565b60405180910390fd5b60003073ffffffffffffffffffffffffffffffffffffffff166320fcd0dd866040518263ffffffff1660e01b8152600401611a4991906129f9565b60206040518083038186803b158015611a6157600080fd5b505afa158015611a75573d6000803e3d6000fd5b505050506040513d601f19601f82011682018060405250810190611a999190612363565b90508161010001518382611aad9190612adb565b1115611aee576040517f08c379a0000000000000000000000000000000000000000000000000000000008152600401611ae5906129d9565b60405180910390fd5b6000604051806080016040528060065481526020018673ffffffffffffffffffffffffffffffffffffffff168152602001858152602001600060ff168152509050600a8190806001815401808255809150506001900390600052602060002090600402016000909190919091506000820151816000015560208201518160010160006101000a81548173ffffffffffffffffffffffffffffffffffffffff021916908373ffffffffffffffffffffffffffffffffffffffff1602179055506040820151816002015560608201518160030160006101000a81548160ff021916908360ff1602179055505050600d60008781526020019081526020016000208190806001815401808255809150506001900390600052602060002090600402016000909190919091506000820151816000015560208201518160010160006101000a81548173ffffffffffffffffffffffffffffffffffffffff021916908373ffffffffffffffffffffffffffffffffffffffff1602179055506040820151816002015560608201518160030160006101000a81548160ff021916908360ff160217905550505060066000815480929190611ca790612c48565b9190505550505050505050565b60018054611cc190612c16565b80601f0160208091040260200160405190810160405280929190818152602001828054611ced90612c16565b8015611d3a5780601f10611d0f57610100808354040283529160200191611d3a565b820191906000526020600020905b815481529060010190602001808311611d1d57829003601f168201915b505050505081565b60025481565b600060088281548110611d84577f4e487b7100000000000000000000000000000000000000000000000000000000600052603260045260246000fd5b90600052602060002090600a020190503373ffffffffffffffffffffffffffffffffffffffff168160020160009054906101000a900473ffffffffffffffffffffffffffffffffffffffff1673ffffffffffffffffffffffffffffffffffffffff1614611e26576040517f08c379a0000000000000000000000000000000000000000000000000000000008152600401611e1d90612939565b60405180910390fd5b60018160090160006101000a81548160ff021916908360ff1602179055505050565b33600760006101000a81548173ffffffffffffffffffffffffffffffffffffffff021916908373ffffffffffffffffffffffffffffffffffffffff1602179055506040518060400160405280600981526020017f446576205069706573000000000000000000000000000000000000000000000081525060009080519060200190611ed492919061204b565b506040518060400160405280600581526020017f504950455300000000000000000000000000000000000000000000000000000081525060019080519060200190611f2092919061204b565b5060006002819055506000600381905550600060048190555060006005819055506000600681905550565b600060098281548110611f87577f4e487b7100000000000000000000000000000000000000000000000000000000600052603260045260246000fd5b906000526020600020906006020190503373ffffffffffffffffffffffffffffffffffffffff168160010160009054906101000a900473ffffffffffffffffffffffffffffffffffffffff1673ffffffffffffffffffffffffffffffffffffffff1614612029576040517f08c379a000000000000000000000000000000000000000000000000000000000815260040161202090612959565b60405180910390fd5b60018160050160016101000a81548160ff021916908360ff1602179055505050565b82805461205790612c16565b90600052602060002090601f01602090048101928261207957600085556120c0565b82601f1061209257805160ff19168380011785556120c0565b828001600101855582156120c0579182015b828111156120bf5782518255916020019190600101906120a4565b5b5090506120cd91906120d1565b5090565b5b808211156120ea5760008160009055506001016120d2565b5090565b60006121016120fc84612a45565b612a14565b90508281526020810184848401111561211957600080fd5b612124848285612bd4565b509392505050565b60008135905061213b81612d2f565b92915050565b600082601f83011261215257600080fd5b81356121628482602086016120ee565b91505092915050565b60008135905061217a81612d46565b92915050565b60008151905061218f81612d46565b92915050565b6000602082840312156121a757600080fd5b60006121b58482850161212c565b91505092915050565b600080600080608085870312156121d457600080fd5b60006121e28782880161212c565b94505060206121f38782880161216b565b935050604085013567ffffffffffffffff81111561221057600080fd5b61221c87828801612141565b925050606085013567ffffffffffffffff81111561223957600080fd5b61224587828801612141565b91505092959194509250565b60008060008060008060c0878903121561226a57600080fd5b600087013567ffffffffffffffff81111561228457600080fd5b61229089828a01612141565b965050602087013567ffffffffffffffff8111156122ad57600080fd5b6122b989828a01612141565b955050604087013567ffffffffffffffff8111156122d657600080fd5b6122e289828a01612141565b945050606087013567ffffffffffffffff8111156122ff57600080fd5b61230b89828a01612141565b935050608061231c89828a0161216b565b92505060a061232d89828a0161216b565b9150509295509295509295565b60006020828403121561234c57600080fd5b600061235a8482850161216b565b91505092915050565b60006020828403121561237557600080fd5b600061238384828501612180565b91505092915050565b6000806000606084860312156123a157600080fd5b60006123af8682870161216b565b93505060206123c08682870161212c565b92505060406123d18682870161216b565b9150509250925092565b600080600080600080600060e0888a0312156123f657600080fd5b60006124048a828b0161216b565b975050602088013567ffffffffffffffff81111561242157600080fd5b61242d8a828b01612141565b965050604088013567ffffffffffffffff81111561244a57600080fd5b6124568a828b01612141565b955050606088013567ffffffffffffffff81111561247357600080fd5b61247f8a828b01612141565b945050608088013567ffffffffffffffff81111561249c57600080fd5b6124a88a828b01612141565b93505060a06124b98a828b0161216b565b92505060c06124ca8a828b0161216b565b91505092959891949750929550565b60006124e583836127be565b905092915050565b6124f681612b8b565b82525050565b61250581612b8b565b82525050565b600061251682612a85565b6125208185612aa8565b93508360208202850161253285612a75565b8060005b8581101561256e578484038952815161254f85826124d9565b945061255a83612a9b565b925060208a01995050600181019050612536565b50829750879550505050505092915050565b600061258b82612a90565b6125958185612ab9565b93506125a5818560208601612be3565b6125ae81612d1e565b840191505092915050565b60006125c482612a90565b6125ce8185612aca565b93506125de818560208601612be3565b6125e781612d1e565b840191505092915050565b60006125ff602383612aca565b91507f6572726f725f6f6e6c795f70726f6a6563745f63726561746f725f63616e5f6560008301527f64697400000000000000000000000000000000000000000000000000000000006020830152604082019050919050565b6000612665602783612aca565b91507f6572726f725f6f6e6c795f6170706c69636174696f6e5f63726561746f725f6360008301527f616e5f65646974000000000000000000000000000000000000000000000000006020830152604082019050919050565b60006126cb601583612aca565b91507f6572726f725f70726f6a6563745f6578706972656400000000000000000000006000830152602082019050919050565b600061270b601c83612aca565b91507f6572726f725f70726f6a6563745f646f65735f6e6f745f6578697374000000006000830152602082019050919050565b600061274b600083612aca565b9150600082019050919050565b6000612765602683612aca565b91507f6572726f725f726f79616c746965735f6578636565645f746f74616c5f61766160008301527f696c61626c6500000000000000000000000000000000000000000000000000006020830152604082019050919050565b6000610140830160008301516127d760008601826128ad565b5060208301516127ea60208601826128ad565b5060408301516127fd60408601826124ed565b50606083015184820360608601526128158282612580565b9150506080830151848203608086015261282f8282612580565b91505060a083015184820360a08601526128498282612580565b91505060c083015184820360c08601526128638282612580565b91505060e083015161287860e08601826128ad565b5061010083015161288d6101008601826128ad565b506101208301516128a26101208601826128cb565b508091505092915050565b6128b681612bbd565b82525050565b6128c581612bbd565b82525050565b6128d481612bc7565b82525050565b60006020820190506128ef60008301846124fc565b92915050565b6000602082019050818103600083015261290f818461250b565b905092915050565b6000602082019050818103600083015261293181846125b9565b905092915050565b60006020820190508181036000830152612952816125f2565b9050919050565b6000602082019050818103600083015261297281612658565b9050919050565b60006020820190508181036000830152612992816126be565b9050919050565b600060208201905081810360008301526129b2816126fe565b9050919050565b600060208201905081810360008301526129d28161273e565b9050919050565b600060208201905081810360008301526129f281612758565b9050919050565b6000602082019050612a0e60008301846128bc565b92915050565b6000604051905081810181811067ffffffffffffffff82111715612a3b57612a3a612cef565b5b8060405250919050565b600067ffffffffffffffff821115612a6057612a5f612cef565b5b601f19601f8301169050602081019050919050565b6000819050602082019050919050565b600081519050919050565b600081519050919050565b6000602082019050919050565b600082825260208201905092915050565b600082825260208201905092915050565b600082825260208201905092915050565b6000612ae682612bbd565b9150612af183612bbd565b9250827fffffffffffffffffffffffffffffffffffffffffffffffffffffffffffffffff03821115612b2657612b25612c91565b5b828201905092915050565b6000612b3c82612bbd565b9150612b4783612bbd565b9250817fffffffffffffffffffffffffffffffffffffffffffffffffffffffffffffffff0483118215151615612b8057612b7f612c91565b5b828202905092915050565b6000612b9682612b9d565b9050919050565b600073ffffffffffffffffffffffffffffffffffffffff82169050919050565b6000819050919050565b600060ff82169050919050565b82818337600083830152505050565b60005b83811015612c01578082015181840152602081019050612be6565b83811115612c10576000848401525b50505050565b60006002820490506001821680612c2e57607f821691505b60208210811415612c4257612c41612cc0565b5b50919050565b6000612c5382612bbd565b91507fffffffffffffffffffffffffffffffffffffffffffffffffffffffffffffffff821415612c8657612c85612c91565b5b600182019050919050565b7f4e487b7100000000000000000000000000000000000000000000000000000000600052601160045260246000fd5b7f4e487b7100000000000000000000000000000000000000000000000000000000600052602260045260246000fd5b7f4e487b7100000000000000000000000000000000000000000000000000000000600052604160045260246000fd5b6000601f19601f8301169050919050565b612d3881612b8b565b8114612d4357600080fd5b50565b612d4f81612bbd565b8114612d5a57600080fd5b5056fea26469706673582212208cc43b45c981aae7f8fc3c63c141743d0e281a372231de26146be343277befce64736f6c63430008000033",
  "linkReferences": {},
  "deployedLinkReferences": {}
}